{
	"contracts/Workaround_BasicTypes.sol": {
		"BasicTypes": {
			"abi": [
				{
					"inputs": [
						{
							"internalType": "string",
							"name": "_myGreeting2",
							"type": "string"
						}
					],
					"name": "compareStrings",
					"outputs": [
						{
							"internalType": "bool",
							"name": "",
							"type": "bool"
						}
					],
					"stateMutability": "view",
					"type": "function"
				},
				{
					"inputs": [],
					"name": "decreementUint",
					"outputs": [],
					"stateMutability": "nonpayable",
					"type": "function"
				},
				{
					"inputs": [],
					"name": "greeting",
					"outputs": [
						{
							"internalType": "string",
							"name": "",
							"type": "string"
						}
					],
					"stateMutability": "view",
					"type": "function"
				},
				{
					"inputs": [],
					"name": "incrementInt",
					"outputs": [],
					"stateMutability": "nonpayable",
					"type": "function"
				},
				{
					"inputs": [],
					"name": "myBytesGreeting",
					"outputs": [
						{
							"internalType": "bytes",
							"name": "",
							"type": "bytes"
						}
					],
					"stateMutability": "view",
					"type": "function"
				},
				{
					"inputs": [],
					"name": "myInt",
					"outputs": [
						{
							"internalType": "int256",
							"name": "",
							"type": "int256"
						}
					],
					"stateMutability": "view",
					"type": "function"
				},
				{
					"inputs": [],
					"name": "myUint",
					"outputs": [
						{
							"internalType": "uint256",
							"name": "",
							"type": "uint256"
						}
					],
					"stateMutability": "view",
					"type": "function"
				},
				{
					"inputs": [],
					"name": "myUint8",
					"outputs": [
						{
							"internalType": "uint8",
							"name": "",
							"type": "uint8"
						}
					],
					"stateMutability": "view",
					"type": "function"
				},
				{
					"inputs": [],
					"name": "myboll",
					"outputs": [
						{
							"internalType": "bool",
							"name": "",
							"type": "bool"
						}
					],
					"stateMutability": "view",
					"type": "function"
				},
				{
					"inputs": [
						{
							"internalType": "string",
							"name": "_myGreeting",
							"type": "string"
						}
					],
					"name": "setMyString",
					"outputs": [],
					"stateMutability": "nonpayable",
					"type": "function"
				},
				{
					"inputs": [
						{
							"internalType": "uint256",
							"name": "_myUint",
							"type": "uint256"
						}
					],
					"name": "setMyUint",
					"outputs": [],
					"stateMutability": "nonpayable",
					"type": "function"
				}
			],
			"devdoc": {
				"kind": "dev",
				"methods": {},
				"version": 1
			},
			"evm": {
				"assembly": "    /* \"contracts/Workaround_BasicTypes.sol\":57:1095  contract BasicTypes{... */\n  mstore(0x40, 0x80)\n    /* \"contracts/Workaround_BasicTypes.sol\":194:198  2**4 */\n  0x10\n    /* \"contracts/Workaround_BasicTypes.sol\":171:198  uint8 public myUint8 = 2**4 */\n  0x02\n  exp(0x0100, 0x00)\n  dup2\n  sload\n  dup2\n  0xff\n  mul\n  not\n  and\n  swap1\n  dup4\n  0xff\n  and\n  mul\n  or\n  swap1\n  sstore\n  pop\n    /* \"contracts/Workaround_BasicTypes.sol\":224:227  -10 */\n  0xfffffffffffffffffffffffffffffffffffffffffffffffffffffffffffffff6\n    /* \"contracts/Workaround_BasicTypes.sol\":205:227  int public myInt = -10 */\n  0x03\n  sstore\n    /* \"contracts/Workaround_BasicTypes.sol\":277:315  string public greeting = \"Hello World\" */\n  mload(0x40)\n  dup1\n  0x40\n  add\n  0x40\n  mstore\n  dup1\n  0x0b\n  dup2\n  mstore\n  0x20\n  add\n  0x48656c6c6f20576f726c64000000000000000000000000000000000000000000\n  dup2\n  mstore\n  pop\n  0x04\n  swap1\n  dup1\n  mload\n  swap1\n  0x20\n  add\n  swap1\n  tag_1\n  swap3\n  swap2\n  swap1\n  tag_2\n  jump\t// in\ntag_1:\n  pop\n    /* \"contracts/Workaround_BasicTypes.sol\":435:479  bytes public myBytesGreeting = \"Hello World\" */\n  mload(0x40)\n  dup1\n  0x40\n  add\n  0x40\n  mstore\n  dup1\n  0x0b\n  dup2\n  mstore\n  0x20\n  add\n  0x48656c6c6f20576f726c64000000000000000000000000000000000000000000\n  dup2\n  mstore\n  pop\n  0x05\n  swap1\n  dup1\n  mload\n  swap1\n  0x20\n  add\n  swap1\n  tag_3\n  swap3\n  swap2\n  swap1\n  tag_4\n  jump\t// in\ntag_3:\n  pop\n    /* \"contracts/Workaround_BasicTypes.sol\":57:1095  contract BasicTypes{... */\n  callvalue\n  dup1\n  iszero\n  tag_5\n  jumpi\n  0x00\n  dup1\n  revert\ntag_5:\n  pop\n  jump(tag_6)\ntag_2:\n  dup3\n  dup1\n  sload\n  tag_7\n  swap1\n  tag_8\n  jump\t// in\ntag_7:\n  swap1\n  0x00\n  mstore\n  keccak256(0x00, 0x20)\n  swap1\n  0x1f\n  add\n  0x20\n  swap1\n  div\n  dup2\n  add\n  swap3\n  dup3\n  tag_10\n  jumpi\n  0x00\n  dup6\n  sstore\n  jump(tag_9)\ntag_10:\n  dup3\n  0x1f\n  lt\n  tag_11\n  jumpi\n  dup1\n  mload\n  not(0xff)\n  and\n  dup4\n  dup1\n  add\n  or\n  dup6\n  sstore\n  jump(tag_9)\ntag_11:\n  dup3\n  dup1\n  add\n  0x01\n  add\n  dup6\n  sstore\n  dup3\n  iszero\n  tag_9\n  jumpi\n  swap2\n  dup3\n  add\ntag_12:\n  dup3\n  dup2\n  gt\n  iszero\n  tag_13\n  jumpi\n  dup3\n  mload\n  dup3\n  sstore\n  swap2\n  0x20\n  add\n  swap2\n  swap1\n  0x01\n  add\n  swap1\n  jump(tag_12)\ntag_13:\ntag_9:\n  pop\n  swap1\n  pop\n  tag_14\n  swap2\n  swap1\n  tag_15\n  jump\t// in\ntag_14:\n  pop\n  swap1\n  jump\t// out\ntag_4:\n  dup3\n  dup1\n  sload\n  tag_16\n  swap1\n  tag_8\n  jump\t// in\ntag_16:\n  swap1\n  0x00\n  mstore\n  keccak256(0x00, 0x20)\n  swap1\n  0x1f\n  add\n  0x20\n  swap1\n  div\n  dup2\n  add\n  swap3\n  dup3\n  tag_18\n  jumpi\n  0x00\n  dup6\n  sstore\n  jump(tag_17)\ntag_18:\n  dup3\n  0x1f\n  lt\n  tag_19\n  jumpi\n  dup1\n  mload\n  not(0xff)\n  and\n  dup4\n  dup1\n  add\n  or\n  dup6\n  sstore\n  jump(tag_17)\ntag_19:\n  dup3\n  dup1\n  add\n  0x01\n  add\n  dup6\n  sstore\n  dup3\n  iszero\n  tag_17\n  jumpi\n  swap2\n  dup3\n  add\ntag_20:\n  dup3\n  dup2\n  gt\n  iszero\n  tag_21\n  jumpi\n  dup3\n  mload\n  dup3\n  sstore\n  swap2\n  0x20\n  add\n  swap2\n  swap1\n  0x01\n  add\n  swap1\n  jump(tag_20)\ntag_21:\ntag_17:\n  pop\n  swap1\n  pop\n  tag_22\n  swap2\n  swap1\n  tag_15\n  jump\t// in\ntag_22:\n  pop\n  swap1\n  jump\t// out\ntag_15:\ntag_23:\n  dup1\n  dup3\n  gt\n  iszero\n  tag_24\n  jumpi\n  0x00\n  dup2\n  0x00\n  swap1\n  sstore\n  pop\n  0x01\n  add\n  jump(tag_23)\ntag_24:\n  pop\n  swap1\n  jump\t// out\n    /* \"#utility.yul\":7:187   */\ntag_25:\n    /* \"#utility.yul\":55:132   */\n  0x4e487b7100000000000000000000000000000000000000000000000000000000\n    /* \"#utility.yul\":52:53   */\n  0x00\n    /* \"#utility.yul\":45:133   */\n  mstore\n    /* \"#utility.yul\":152:156   */\n  0x22\n    /* \"#utility.yul\":149:150   */\n  0x04\n    /* \"#utility.yul\":142:157   */\n  mstore\n    /* \"#utility.yul\":176:180   */\n  0x24\n    /* \"#utility.yul\":173:174   */\n  0x00\n    /* \"#utility.yul\":166:181   */\n  revert\n    /* \"#utility.yul\":193:513   */\ntag_8:\n    /* \"#utility.yul\":237:243   */\n  0x00\n    /* \"#utility.yul\":274:275   */\n  0x02\n    /* \"#utility.yul\":268:272   */\n  dup3\n    /* \"#utility.yul\":264:276   */\n  div\n    /* \"#utility.yul\":254:276   */\n  swap1\n  pop\n    /* \"#utility.yul\":321:322   */\n  0x01\n    /* \"#utility.yul\":315:319   */\n  dup3\n    /* \"#utility.yul\":311:323   */\n  and\n    /* \"#utility.yul\":342:360   */\n  dup1\n    /* \"#utility.yul\":332:413   */\n  tag_29\n  jumpi\n    /* \"#utility.yul\":398:402   */\n  0x7f\n    /* \"#utility.yul\":390:396   */\n  dup3\n    /* \"#utility.yul\":386:403   */\n  and\n    /* \"#utility.yul\":376:403   */\n  swap2\n  pop\n    /* \"#utility.yul\":332:413   */\ntag_29:\n    /* \"#utility.yul\":460:462   */\n  0x20\n    /* \"#utility.yul\":452:458   */\n  dup3\n    /* \"#utility.yul\":449:463   */\n  lt\n    /* \"#utility.yul\":429:447   */\n  dup2\n    /* \"#utility.yul\":426:464   */\n  sub\n    /* \"#utility.yul\":423:507   */\n  tag_30\n  jumpi\n    /* \"#utility.yul\":479:497   */\n  tag_31\n  tag_25\n  jump\t// in\ntag_31:\n    /* \"#utility.yul\":423:507   */\ntag_30:\n    /* \"#utility.yul\":244:513   */\n  pop\n    /* \"#utility.yul\":193:513   */\n  swap2\n  swap1\n  pop\n  jump\t// out\n    /* \"contracts/Workaround_BasicTypes.sol\":57:1095  contract BasicTypes{... */\ntag_6:\n  dataSize(sub_0)\n  dup1\n  dataOffset(sub_0)\n  0x00\n  codecopy\n  0x00\n  return\nstop\n\nsub_0: assembly {\n        /* \"contracts/Workaround_BasicTypes.sol\":57:1095  contract BasicTypes{... */\n      mstore(0x40, 0x80)\n      callvalue\n      dup1\n      iszero\n      tag_1\n      jumpi\n      0x00\n      dup1\n      revert\n    tag_1:\n      pop\n      jumpi(tag_2, lt(calldatasize, 0x04))\n      shr(0xe0, calldataload(0x00))\n      dup1\n      0x82180568\n      gt\n      tag_14\n      jumpi\n      dup1\n      0x82180568\n      eq\n      tag_8\n      jumpi\n      dup1\n      0xe2a4b2af\n      eq\n      tag_9\n      jumpi\n      dup1\n      0xe492fd84\n      eq\n      tag_10\n      jumpi\n      dup1\n      0xef690cc0\n      eq\n      tag_11\n      jumpi\n      dup1\n      0xf102a71d\n      eq\n      tag_12\n      jumpi\n      dup1\n      0xfc979f7b\n      eq\n      tag_13\n      jumpi\n      jump(tag_2)\n    tag_14:\n      dup1\n      0x06540f7e\n      eq\n      tag_3\n      jumpi\n      dup1\n      0x2cb777a6\n      eq\n      tag_4\n      jumpi\n      dup1\n      0x336ab504\n      eq\n      tag_5\n      jumpi\n      dup1\n      0x4f86f506\n      eq\n      tag_6\n      jumpi\n      dup1\n      0x7c43b66e\n      eq\n      tag_7\n      jumpi\n    tag_2:\n      0x00\n      dup1\n      revert\n        /* \"contracts/Workaround_BasicTypes.sol\":146:164  uint public myUint */\n    tag_3:\n      tag_15\n      tag_16\n      jump\t// in\n    tag_15:\n      mload(0x40)\n      tag_17\n      swap2\n      swap1\n      tag_18\n      jump\t// in\n    tag_17:\n      mload(0x40)\n      dup1\n      swap2\n      sub\n      swap1\n      return\n        /* \"contracts/Workaround_BasicTypes.sol\":205:227  int public myInt = -10 */\n    tag_4:\n      tag_19\n      tag_20\n      jump\t// in\n    tag_19:\n      mload(0x40)\n      tag_21\n      swap2\n      swap1\n      tag_22\n      jump\t// in\n    tag_21:\n      mload(0x40)\n      dup1\n      swap2\n      sub\n      swap1\n      return\n        /* \"contracts/Workaround_BasicTypes.sol\":435:479  bytes public myBytesGreeting = \"Hello World\" */\n    tag_5:\n      tag_23\n      tag_24\n      jump\t// in\n    tag_23:\n      mload(0x40)\n      tag_25\n      swap2\n      swap1\n      tag_26\n      jump\t// in\n    tag_25:\n      mload(0x40)\n      dup1\n      swap2\n      sub\n      swap1\n      return\n        /* \"contracts/Workaround_BasicTypes.sol\":663:848  function compareStrings(string memory _myGreeting2) public  view returns(bool){... */\n    tag_6:\n      tag_27\n      0x04\n      dup1\n      calldatasize\n      sub\n      dup2\n      add\n      swap1\n      tag_28\n      swap2\n      swap1\n      tag_29\n      jump\t// in\n    tag_28:\n      tag_30\n      jump\t// in\n    tag_27:\n      mload(0x40)\n      tag_31\n      swap2\n      swap1\n      tag_32\n      jump\t// in\n    tag_31:\n      mload(0x40)\n      dup1\n      swap2\n      sub\n      swap1\n      return\n        /* \"contracts/Workaround_BasicTypes.sol\":83:101  bool public myboll */\n    tag_7:\n      tag_33\n      tag_34\n      jump\t// in\n    tag_33:\n      mload(0x40)\n      tag_35\n      swap2\n      swap1\n      tag_32\n      jump\t// in\n    tag_35:\n      mload(0x40)\n      dup1\n      swap2\n      sub\n      swap1\n      return\n        /* \"contracts/Workaround_BasicTypes.sol\":486:581  function setMyString (string memory _myGreeting) public {... */\n    tag_8:\n      tag_36\n      0x04\n      dup1\n      calldatasize\n      sub\n      dup2\n      add\n      swap1\n      tag_37\n      swap2\n      swap1\n      tag_29\n      jump\t// in\n    tag_37:\n      tag_38\n      jump\t// in\n    tag_36:\n      stop\n        /* \"contracts/Workaround_BasicTypes.sol\":171:198  uint8 public myUint8 = 2**4 */\n    tag_9:\n      tag_39\n      tag_40\n      jump\t// in\n    tag_39:\n      mload(0x40)\n      tag_41\n      swap2\n      swap1\n      tag_42\n      jump\t// in\n    tag_41:\n      mload(0x40)\n      dup1\n      swap2\n      sub\n      swap1\n      return\n        /* \"contracts/Workaround_BasicTypes.sol\":859:932  function setMyUint(uint _myUint) public {... */\n    tag_10:\n      tag_43\n      0x04\n      dup1\n      calldatasize\n      sub\n      dup2\n      add\n      swap1\n      tag_44\n      swap2\n      swap1\n      tag_45\n      jump\t// in\n    tag_44:\n      tag_46\n      jump\t// in\n    tag_43:\n      stop\n        /* \"contracts/Workaround_BasicTypes.sol\":277:315  string public greeting = \"Hello World\" */\n    tag_11:\n      tag_47\n      tag_48\n      jump\t// in\n    tag_47:\n      mload(0x40)\n      tag_49\n      swap2\n      swap1\n      tag_50\n      jump\t// in\n    tag_49:\n      mload(0x40)\n      dup1\n      swap2\n      sub\n      swap1\n      return\n        /* \"contracts/Workaround_BasicTypes.sol\":938:993  function incrementInt() public {... */\n    tag_12:\n      tag_51\n      tag_52\n      jump\t// in\n    tag_51:\n      stop\n        /* \"contracts/Workaround_BasicTypes.sol\":999:1090  function decreementUint() public {... */\n    tag_13:\n      tag_53\n      tag_54\n      jump\t// in\n    tag_53:\n      stop\n        /* \"contracts/Workaround_BasicTypes.sol\":146:164  uint public myUint */\n    tag_16:\n      sload(0x01)\n      dup2\n      jump\t// out\n        /* \"contracts/Workaround_BasicTypes.sol\":205:227  int public myInt = -10 */\n    tag_20:\n      sload(0x03)\n      dup2\n      jump\t// out\n        /* \"contracts/Workaround_BasicTypes.sol\":435:479  bytes public myBytesGreeting = \"Hello World\" */\n    tag_24:\n      0x05\n      dup1\n      sload\n      tag_55\n      swap1\n      tag_56\n      jump\t// in\n    tag_55:\n      dup1\n      0x1f\n      add\n      0x20\n      dup1\n      swap2\n      div\n      mul\n      0x20\n      add\n      mload(0x40)\n      swap1\n      dup2\n      add\n      0x40\n      mstore\n      dup1\n      swap3\n      swap2\n      swap1\n      dup2\n      dup2\n      mstore\n      0x20\n      add\n      dup3\n      dup1\n      sload\n      tag_57\n      swap1\n      tag_56\n      jump\t// in\n    tag_57:\n      dup1\n      iszero\n      tag_58\n      jumpi\n      dup1\n      0x1f\n      lt\n      tag_59\n      jumpi\n      0x0100\n      dup1\n      dup4\n      sload\n      div\n      mul\n      dup4\n      mstore\n      swap2\n      0x20\n      add\n      swap2\n      jump(tag_58)\n    tag_59:\n      dup3\n      add\n      swap2\n      swap1\n      0x00\n      mstore\n      keccak256(0x00, 0x20)\n      swap1\n    tag_60:\n      dup2\n      sload\n      dup2\n      mstore\n      swap1\n      0x01\n      add\n      swap1\n      0x20\n      add\n      dup1\n      dup4\n      gt\n      tag_60\n      jumpi\n      dup3\n      swap1\n      sub\n      0x1f\n      and\n      dup3\n      add\n      swap2\n    tag_58:\n      pop\n      pop\n      pop\n      pop\n      pop\n      dup2\n      jump\t// out\n        /* \"contracts/Workaround_BasicTypes.sol\":663:848  function compareStrings(string memory _myGreeting2) public  view returns(bool){... */\n    tag_30:\n        /* \"contracts/Workaround_BasicTypes.sol\":736:740  bool */\n      0x00\n        /* \"contracts/Workaround_BasicTypes.sol\":826:838  _myGreeting2 */\n      dup2\n        /* \"contracts/Workaround_BasicTypes.sol\":809:839  abi.encodePacked(_myGreeting2) */\n      add(0x20, mload(0x40))\n      tag_62\n      swap2\n      swap1\n      tag_63\n      jump\t// in\n    tag_62:\n      mload(0x40)\n      0x20\n      dup2\n      dup4\n      sub\n      sub\n      dup2\n      mstore\n      swap1\n      0x40\n      mstore\n        /* \"contracts/Workaround_BasicTypes.sol\":799:840  keccak256(abi.encodePacked(_myGreeting2)) */\n      dup1\n      mload\n      swap1\n      0x20\n      add\n      keccak256\n        /* \"contracts/Workaround_BasicTypes.sol\":785:793  greeting */\n      0x04\n        /* \"contracts/Workaround_BasicTypes.sol\":768:794  abi.encodePacked(greeting) */\n      add(0x20, mload(0x40))\n      tag_64\n      swap2\n      swap1\n      tag_65\n      jump\t// in\n    tag_64:\n      mload(0x40)\n      0x20\n      dup2\n      dup4\n      sub\n      sub\n      dup2\n      mstore\n      swap1\n      0x40\n      mstore\n        /* \"contracts/Workaround_BasicTypes.sol\":758:795  keccak256(abi.encodePacked(greeting)) */\n      dup1\n      mload\n      swap1\n      0x20\n      add\n      keccak256\n        /* \"contracts/Workaround_BasicTypes.sol\":758:840  keccak256(abi.encodePacked(greeting)) == keccak256(abi.encodePacked(_myGreeting2)) */\n      eq\n        /* \"contracts/Workaround_BasicTypes.sol\":751:840  return keccak256(abi.encodePacked(greeting)) == keccak256(abi.encodePacked(_myGreeting2)) */\n      swap1\n      pop\n        /* \"contracts/Workaround_BasicTypes.sol\":663:848  function compareStrings(string memory _myGreeting2) public  view returns(bool){... */\n      swap2\n      swap1\n      pop\n      jump\t// out\n        /* \"contracts/Workaround_BasicTypes.sol\":83:101  bool public myboll */\n    tag_34:\n      0x00\n      dup1\n      sload\n      swap1\n      0x0100\n      exp\n      swap1\n      div\n      0xff\n      and\n      dup2\n      jump\t// out\n        /* \"contracts/Workaround_BasicTypes.sol\":486:581  function setMyString (string memory _myGreeting) public {... */\n    tag_38:\n        /* \"contracts/Workaround_BasicTypes.sol\":563:574  _myGreeting */\n      dup1\n        /* \"contracts/Workaround_BasicTypes.sol\":552:560  greeting */\n      0x04\n        /* \"contracts/Workaround_BasicTypes.sol\":552:574  greeting = _myGreeting */\n      swap1\n      dup1\n      mload\n      swap1\n      0x20\n      add\n      swap1\n      tag_67\n      swap3\n      swap2\n      swap1\n      tag_68\n      jump\t// in\n    tag_67:\n      pop\n        /* \"contracts/Workaround_BasicTypes.sol\":486:581  function setMyString (string memory _myGreeting) public {... */\n      pop\n      jump\t// out\n        /* \"contracts/Workaround_BasicTypes.sol\":171:198  uint8 public myUint8 = 2**4 */\n    tag_40:\n      0x02\n      0x00\n      swap1\n      sload\n      swap1\n      0x0100\n      exp\n      swap1\n      div\n      0xff\n      and\n      dup2\n      jump\t// out\n        /* \"contracts/Workaround_BasicTypes.sol\":859:932  function setMyUint(uint _myUint) public {... */\n    tag_46:\n        /* \"contracts/Workaround_BasicTypes.sol\":918:925  _myUint */\n      dup1\n        /* \"contracts/Workaround_BasicTypes.sol\":909:915  myUint */\n      0x01\n        /* \"contracts/Workaround_BasicTypes.sol\":909:925  myUint = _myUint */\n      dup2\n      swap1\n      sstore\n      pop\n        /* \"contracts/Workaround_BasicTypes.sol\":859:932  function setMyUint(uint _myUint) public {... */\n      pop\n      jump\t// out\n        /* \"contracts/Workaround_BasicTypes.sol\":277:315  string public greeting = \"Hello World\" */\n    tag_48:\n      0x04\n      dup1\n      sload\n      tag_70\n      swap1\n      tag_56\n      jump\t// in\n    tag_70:\n      dup1\n      0x1f\n      add\n      0x20\n      dup1\n      swap2\n      div\n      mul\n      0x20\n      add\n      mload(0x40)\n      swap1\n      dup2\n      add\n      0x40\n      mstore\n      dup1\n      swap3\n      swap2\n      swap1\n      dup2\n      dup2\n      mstore\n      0x20\n      add\n      dup3\n      dup1\n      sload\n      tag_71\n      swap1\n      tag_56\n      jump\t// in\n    tag_71:\n      dup1\n      iszero\n      tag_72\n      jumpi\n      dup1\n      0x1f\n      lt\n      tag_73\n      jumpi\n      0x0100\n      dup1\n      dup4\n      sload\n      div\n      mul\n      dup4\n      mstore\n      swap2\n      0x20\n      add\n      swap2\n      jump(tag_72)\n    tag_73:\n      dup3\n      add\n      swap2\n      swap1\n      0x00\n      mstore\n      keccak256(0x00, 0x20)\n      swap1\n    tag_74:\n      dup2\n      sload\n      dup2\n      mstore\n      swap1\n      0x01\n      add\n      swap1\n      0x20\n      add\n      dup1\n      dup4\n      gt\n      tag_74\n      jumpi\n      dup3\n      swap1\n      sub\n      0x1f\n      and\n      dup3\n      add\n      swap2\n    tag_72:\n      pop\n      pop\n      pop\n      pop\n      pop\n      dup2\n      jump\t// out\n        /* \"contracts/Workaround_BasicTypes.sol\":938:993  function incrementInt() public {... */\n    tag_52:\n        /* \"contracts/Workaround_BasicTypes.sol\":979:984  myInt */\n      0x03\n      0x00\n        /* \"contracts/Workaround_BasicTypes.sol\":979:986  myInt++ */\n      dup2\n      sload\n      dup1\n      swap3\n      swap2\n      swap1\n      tag_76\n      swap1\n      tag_77\n      jump\t// in\n    tag_76:\n      swap2\n      swap1\n      pop\n      sstore\n      pop\n        /* \"contracts/Workaround_BasicTypes.sol\":938:993  function incrementInt() public {... */\n      jump\t// out\n        /* \"contracts/Workaround_BasicTypes.sol\":999:1090  function decreementUint() public {... */\n    tag_54:\n        /* \"contracts/Workaround_BasicTypes.sol\":1065:1071  myUint */\n      0x01\n      0x00\n        /* \"contracts/Workaround_BasicTypes.sol\":1065:1073  myUint-- */\n      dup2\n      sload\n      dup1\n      swap3\n      swap2\n      swap1\n      0x01\n      swap1\n      sub\n      swap2\n      swap1\n      pop\n      sstore\n      pop\n        /* \"contracts/Workaround_BasicTypes.sol\":999:1090  function decreementUint() public {... */\n      jump\t// out\n    tag_68:\n      dup3\n      dup1\n      sload\n      tag_79\n      swap1\n      tag_56\n      jump\t// in\n    tag_79:\n      swap1\n      0x00\n      mstore\n      keccak256(0x00, 0x20)\n      swap1\n      0x1f\n      add\n      0x20\n      swap1\n      div\n      dup2\n      add\n      swap3\n      dup3\n      tag_81\n      jumpi\n      0x00\n      dup6\n      sstore\n      jump(tag_80)\n    tag_81:\n      dup3\n      0x1f\n      lt\n      tag_82\n      jumpi\n      dup1\n      mload\n      not(0xff)\n      and\n      dup4\n      dup1\n      add\n      or\n      dup6\n      sstore\n      jump(tag_80)\n    tag_82:\n      dup3\n      dup1\n      add\n      0x01\n      add\n      dup6\n      sstore\n      dup3\n      iszero\n      tag_80\n      jumpi\n      swap2\n      dup3\n      add\n    tag_83:\n      dup3\n      dup2\n      gt\n      iszero\n      tag_84\n      jumpi\n      dup3\n      mload\n      dup3\n      sstore\n      swap2\n      0x20\n      add\n      swap2\n      swap1\n      0x01\n      add\n      swap1\n      jump(tag_83)\n    tag_84:\n    tag_80:\n      pop\n      swap1\n      pop\n      tag_85\n      swap2\n      swap1\n      tag_86\n      jump\t// in\n    tag_85:\n      pop\n      swap1\n      jump\t// out\n    tag_86:\n    tag_87:\n      dup1\n      dup3\n      gt\n      iszero\n      tag_88\n      jumpi\n      0x00\n      dup2\n      0x00\n      swap1\n      sstore\n      pop\n      0x01\n      add\n      jump(tag_87)\n    tag_88:\n      pop\n      swap1\n      jump\t// out\n        /* \"#utility.yul\":7:84   */\n    tag_89:\n        /* \"#utility.yul\":44:51   */\n      0x00\n        /* \"#utility.yul\":73:78   */\n      dup2\n        /* \"#utility.yul\":62:78   */\n      swap1\n      pop\n        /* \"#utility.yul\":7:84   */\n      swap2\n      swap1\n      pop\n      jump\t// out\n        /* \"#utility.yul\":90:208   */\n    tag_90:\n        /* \"#utility.yul\":177:201   */\n      tag_128\n        /* \"#utility.yul\":195:200   */\n      dup2\n        /* \"#utility.yul\":177:201   */\n      tag_89\n      jump\t// in\n    tag_128:\n        /* \"#utility.yul\":172:175   */\n      dup3\n        /* \"#utility.yul\":165:202   */\n      mstore\n        /* \"#utility.yul\":90:208   */\n      pop\n      pop\n      jump\t// out\n        /* \"#utility.yul\":214:436   */\n    tag_18:\n        /* \"#utility.yul\":307:311   */\n      0x00\n        /* \"#utility.yul\":345:347   */\n      0x20\n        /* \"#utility.yul\":334:343   */\n      dup3\n        /* \"#utility.yul\":330:348   */\n      add\n        /* \"#utility.yul\":322:348   */\n      swap1\n      pop\n        /* \"#utility.yul\":358:429   */\n      tag_130\n        /* \"#utility.yul\":426:427   */\n      0x00\n        /* \"#utility.yul\":415:424   */\n      dup4\n        /* \"#utility.yul\":411:428   */\n      add\n        /* \"#utility.yul\":402:408   */\n      dup5\n        /* \"#utility.yul\":358:429   */\n      tag_90\n      jump\t// in\n    tag_130:\n        /* \"#utility.yul\":214:436   */\n      swap3\n      swap2\n      pop\n      pop\n      jump\t// out\n        /* \"#utility.yul\":442:518   */\n    tag_91:\n        /* \"#utility.yul\":478:485   */\n      0x00\n        /* \"#utility.yul\":507:512   */\n      dup2\n        /* \"#utility.yul\":496:512   */\n      swap1\n      pop\n        /* \"#utility.yul\":442:518   */\n      swap2\n      swap1\n      pop\n      jump\t// out\n        /* \"#utility.yul\":524:639   */\n    tag_92:\n        /* \"#utility.yul\":609:632   */\n      tag_133\n        /* \"#utility.yul\":626:631   */\n      dup2\n        /* \"#utility.yul\":609:632   */\n      tag_91\n      jump\t// in\n    tag_133:\n        /* \"#utility.yul\":604:607   */\n      dup3\n        /* \"#utility.yul\":597:633   */\n      mstore\n        /* \"#utility.yul\":524:639   */\n      pop\n      pop\n      jump\t// out\n        /* \"#utility.yul\":645:863   */\n    tag_22:\n        /* \"#utility.yul\":736:740   */\n      0x00\n        /* \"#utility.yul\":774:776   */\n      0x20\n        /* \"#utility.yul\":763:772   */\n      dup3\n        /* \"#utility.yul\":759:777   */\n      add\n        /* \"#utility.yul\":751:777   */\n      swap1\n      pop\n        /* \"#utility.yul\":787:856   */\n      tag_135\n        /* \"#utility.yul\":853:854   */\n      0x00\n        /* \"#utility.yul\":842:851   */\n      dup4\n        /* \"#utility.yul\":838:855   */\n      add\n        /* \"#utility.yul\":829:835   */\n      dup5\n        /* \"#utility.yul\":787:856   */\n      tag_92\n      jump\t// in\n    tag_135:\n        /* \"#utility.yul\":645:863   */\n      swap3\n      swap2\n      pop\n      pop\n      jump\t// out\n        /* \"#utility.yul\":869:967   */\n    tag_93:\n        /* \"#utility.yul\":920:926   */\n      0x00\n        /* \"#utility.yul\":954:959   */\n      dup2\n        /* \"#utility.yul\":948:960   */\n      mload\n        /* \"#utility.yul\":938:960   */\n      swap1\n      pop\n        /* \"#utility.yul\":869:967   */\n      swap2\n      swap1\n      pop\n      jump\t// out\n        /* \"#utility.yul\":973:1141   */\n    tag_94:\n        /* \"#utility.yul\":1056:1067   */\n      0x00\n        /* \"#utility.yul\":1090:1096   */\n      dup3\n        /* \"#utility.yul\":1085:1088   */\n      dup3\n        /* \"#utility.yul\":1078:1097   */\n      mstore\n        /* \"#utility.yul\":1130:1134   */\n      0x20\n        /* \"#utility.yul\":1125:1128   */\n      dup3\n        /* \"#utility.yul\":1121:1135   */\n      add\n        /* \"#utility.yul\":1106:1135   */\n      swap1\n      pop\n        /* \"#utility.yul\":973:1141   */\n      swap3\n      swap2\n      pop\n      pop\n      jump\t// out\n        /* \"#utility.yul\":1147:1454   */\n    tag_95:\n        /* \"#utility.yul\":1215:1216   */\n      0x00\n        /* \"#utility.yul\":1225:1338   */\n    tag_139:\n        /* \"#utility.yul\":1239:1245   */\n      dup4\n        /* \"#utility.yul\":1236:1237   */\n      dup2\n        /* \"#utility.yul\":1233:1246   */\n      lt\n        /* \"#utility.yul\":1225:1338   */\n      iszero\n      tag_141\n      jumpi\n        /* \"#utility.yul\":1324:1325   */\n      dup1\n        /* \"#utility.yul\":1319:1322   */\n      dup3\n        /* \"#utility.yul\":1315:1326   */\n      add\n        /* \"#utility.yul\":1309:1327   */\n      mload\n        /* \"#utility.yul\":1305:1306   */\n      dup2\n        /* \"#utility.yul\":1300:1303   */\n      dup5\n        /* \"#utility.yul\":1296:1307   */\n      add\n        /* \"#utility.yul\":1289:1328   */\n      mstore\n        /* \"#utility.yul\":1261:1263   */\n      0x20\n        /* \"#utility.yul\":1258:1259   */\n      dup2\n        /* \"#utility.yul\":1254:1264   */\n      add\n        /* \"#utility.yul\":1249:1264   */\n      swap1\n      pop\n        /* \"#utility.yul\":1225:1338   */\n      jump(tag_139)\n    tag_141:\n        /* \"#utility.yul\":1356:1362   */\n      dup4\n        /* \"#utility.yul\":1353:1354   */\n      dup2\n        /* \"#utility.yul\":1350:1363   */\n      gt\n        /* \"#utility.yul\":1347:1448   */\n      iszero\n      tag_142\n      jumpi\n        /* \"#utility.yul\":1436:1437   */\n      0x00\n        /* \"#utility.yul\":1427:1433   */\n      dup5\n        /* \"#utility.yul\":1422:1425   */\n      dup5\n        /* \"#utility.yul\":1418:1434   */\n      add\n        /* \"#utility.yul\":1411:1438   */\n      mstore\n        /* \"#utility.yul\":1347:1448   */\n    tag_142:\n        /* \"#utility.yul\":1196:1454   */\n      pop\n        /* \"#utility.yul\":1147:1454   */\n      pop\n      pop\n      pop\n      jump\t// out\n        /* \"#utility.yul\":1460:1562   */\n    tag_96:\n        /* \"#utility.yul\":1501:1507   */\n      0x00\n        /* \"#utility.yul\":1552:1554   */\n      0x1f\n        /* \"#utility.yul\":1548:1555   */\n      not\n        /* \"#utility.yul\":1543:1545   */\n      0x1f\n        /* \"#utility.yul\":1536:1541   */\n      dup4\n        /* \"#utility.yul\":1532:1546   */\n      add\n        /* \"#utility.yul\":1528:1556   */\n      and\n        /* \"#utility.yul\":1518:1556   */\n      swap1\n      pop\n        /* \"#utility.yul\":1460:1562   */\n      swap2\n      swap1\n      pop\n      jump\t// out\n        /* \"#utility.yul\":1568:1928   */\n    tag_97:\n        /* \"#utility.yul\":1654:1657   */\n      0x00\n        /* \"#utility.yul\":1682:1720   */\n      tag_145\n        /* \"#utility.yul\":1714:1719   */\n      dup3\n        /* \"#utility.yul\":1682:1720   */\n      tag_93\n      jump\t// in\n    tag_145:\n        /* \"#utility.yul\":1736:1806   */\n      tag_146\n        /* \"#utility.yul\":1799:1805   */\n      dup2\n        /* \"#utility.yul\":1794:1797   */\n      dup6\n        /* \"#utility.yul\":1736:1806   */\n      tag_94\n      jump\t// in\n    tag_146:\n        /* \"#utility.yul\":1729:1806   */\n      swap4\n      pop\n        /* \"#utility.yul\":1815:1867   */\n      tag_147\n        /* \"#utility.yul\":1860:1866   */\n      dup2\n        /* \"#utility.yul\":1855:1858   */\n      dup6\n        /* \"#utility.yul\":1848:1852   */\n      0x20\n        /* \"#utility.yul\":1841:1846   */\n      dup7\n        /* \"#utility.yul\":1837:1853   */\n      add\n        /* \"#utility.yul\":1815:1867   */\n      tag_95\n      jump\t// in\n    tag_147:\n        /* \"#utility.yul\":1892:1921   */\n      tag_148\n        /* \"#utility.yul\":1914:1920   */\n      dup2\n        /* \"#utility.yul\":1892:1921   */\n      tag_96\n      jump\t// in\n    tag_148:\n        /* \"#utility.yul\":1887:1890   */\n      dup5\n        /* \"#utility.yul\":1883:1922   */\n      add\n        /* \"#utility.yul\":1876:1922   */\n      swap2\n      pop\n        /* \"#utility.yul\":1658:1928   */\n      pop\n        /* \"#utility.yul\":1568:1928   */\n      swap3\n      swap2\n      pop\n      pop\n      jump\t// out\n        /* \"#utility.yul\":1934:2243   */\n    tag_26:\n        /* \"#utility.yul\":2045:2049   */\n      0x00\n        /* \"#utility.yul\":2083:2085   */\n      0x20\n        /* \"#utility.yul\":2072:2081   */\n      dup3\n        /* \"#utility.yul\":2068:2086   */\n      add\n        /* \"#utility.yul\":2060:2086   */\n      swap1\n      pop\n        /* \"#utility.yul\":2132:2141   */\n      dup2\n        /* \"#utility.yul\":2126:2130   */\n      dup2\n        /* \"#utility.yul\":2122:2142   */\n      sub\n        /* \"#utility.yul\":2118:2119   */\n      0x00\n        /* \"#utility.yul\":2107:2116   */\n      dup4\n        /* \"#utility.yul\":2103:2120   */\n      add\n        /* \"#utility.yul\":2096:2143   */\n      mstore\n        /* \"#utility.yul\":2160:2236   */\n      tag_150\n        /* \"#utility.yul\":2231:2235   */\n      dup2\n        /* \"#utility.yul\":2222:2228   */\n      dup5\n        /* \"#utility.yul\":2160:2236   */\n      tag_97\n      jump\t// in\n    tag_150:\n        /* \"#utility.yul\":2152:2236   */\n      swap1\n      pop\n        /* \"#utility.yul\":1934:2243   */\n      swap3\n      swap2\n      pop\n      pop\n      jump\t// out\n        /* \"#utility.yul\":2249:2324   */\n    tag_98:\n        /* \"#utility.yul\":2282:2288   */\n      0x00\n        /* \"#utility.yul\":2315:2317   */\n      0x40\n        /* \"#utility.yul\":2309:2318   */\n      mload\n        /* \"#utility.yul\":2299:2318   */\n      swap1\n      pop\n        /* \"#utility.yul\":2249:2324   */\n      swap1\n      jump\t// out\n        /* \"#utility.yul\":2330:2447   */\n    tag_99:\n        /* \"#utility.yul\":2439:2440   */\n      0x00\n        /* \"#utility.yul\":2436:2437   */\n      dup1\n        /* \"#utility.yul\":2429:2441   */\n      revert\n        /* \"#utility.yul\":2453:2570   */\n    tag_100:\n        /* \"#utility.yul\":2562:2563   */\n      0x00\n        /* \"#utility.yul\":2559:2560   */\n      dup1\n        /* \"#utility.yul\":2552:2564   */\n      revert\n        /* \"#utility.yul\":2576:2693   */\n    tag_101:\n        /* \"#utility.yul\":2685:2686   */\n      0x00\n        /* \"#utility.yul\":2682:2683   */\n      dup1\n        /* \"#utility.yul\":2675:2687   */\n      revert\n        /* \"#utility.yul\":2699:2816   */\n    tag_102:\n        /* \"#utility.yul\":2808:2809   */\n      0x00\n        /* \"#utility.yul\":2805:2806   */\n      dup1\n        /* \"#utility.yul\":2798:2810   */\n      revert\n        /* \"#utility.yul\":2822:3002   */\n    tag_103:\n        /* \"#utility.yul\":2870:2947   */\n      0x4e487b7100000000000000000000000000000000000000000000000000000000\n        /* \"#utility.yul\":2867:2868   */\n      0x00\n        /* \"#utility.yul\":2860:2948   */\n      mstore\n        /* \"#utility.yul\":2967:2971   */\n      0x41\n        /* \"#utility.yul\":2964:2965   */\n      0x04\n        /* \"#utility.yul\":2957:2972   */\n      mstore\n        /* \"#utility.yul\":2991:2995   */\n      0x24\n        /* \"#utility.yul\":2988:2989   */\n      0x00\n        /* \"#utility.yul\":2981:2996   */\n      revert\n        /* \"#utility.yul\":3008:3289   */\n    tag_104:\n        /* \"#utility.yul\":3091:3118   */\n      tag_158\n        /* \"#utility.yul\":3113:3117   */\n      dup3\n        /* \"#utility.yul\":3091:3118   */\n      tag_96\n      jump\t// in\n    tag_158:\n        /* \"#utility.yul\":3083:3089   */\n      dup2\n        /* \"#utility.yul\":3079:3119   */\n      add\n        /* \"#utility.yul\":3221:3227   */\n      dup2\n        /* \"#utility.yul\":3209:3219   */\n      dup2\n        /* \"#utility.yul\":3206:3228   */\n      lt\n        /* \"#utility.yul\":3185:3203   */\n      0xffffffffffffffff\n        /* \"#utility.yul\":3173:3183   */\n      dup3\n        /* \"#utility.yul\":3170:3204   */\n      gt\n        /* \"#utility.yul\":3167:3229   */\n      or\n        /* \"#utility.yul\":3164:3252   */\n      iszero\n      tag_159\n      jumpi\n        /* \"#utility.yul\":3232:3250   */\n      tag_160\n      tag_103\n      jump\t// in\n    tag_160:\n        /* \"#utility.yul\":3164:3252   */\n    tag_159:\n        /* \"#utility.yul\":3272:3282   */\n      dup1\n        /* \"#utility.yul\":3268:3270   */\n      0x40\n        /* \"#utility.yul\":3261:3283   */\n      mstore\n        /* \"#utility.yul\":3051:3289   */\n      pop\n        /* \"#utility.yul\":3008:3289   */\n      pop\n      pop\n      jump\t// out\n        /* \"#utility.yul\":3295:3424   */\n    tag_105:\n        /* \"#utility.yul\":3329:3335   */\n      0x00\n        /* \"#utility.yul\":3356:3376   */\n      tag_162\n      tag_98\n      jump\t// in\n    tag_162:\n        /* \"#utility.yul\":3346:3376   */\n      swap1\n      pop\n        /* \"#utility.yul\":3385:3418   */\n      tag_163\n        /* \"#utility.yul\":3413:3417   */\n      dup3\n        /* \"#utility.yul\":3405:3411   */\n      dup3\n        /* \"#utility.yul\":3385:3418   */\n      tag_104\n      jump\t// in\n    tag_163:\n        /* \"#utility.yul\":3295:3424   */\n      swap2\n      swap1\n      pop\n      jump\t// out\n        /* \"#utility.yul\":3430:3738   */\n    tag_106:\n        /* \"#utility.yul\":3492:3496   */\n      0x00\n        /* \"#utility.yul\":3582:3600   */\n      0xffffffffffffffff\n        /* \"#utility.yul\":3574:3580   */\n      dup3\n        /* \"#utility.yul\":3571:3601   */\n      gt\n        /* \"#utility.yul\":3568:3624   */\n      iszero\n      tag_165\n      jumpi\n        /* \"#utility.yul\":3604:3622   */\n      tag_166\n      tag_103\n      jump\t// in\n    tag_166:\n        /* \"#utility.yul\":3568:3624   */\n    tag_165:\n        /* \"#utility.yul\":3642:3671   */\n      tag_167\n        /* \"#utility.yul\":3664:3670   */\n      dup3\n        /* \"#utility.yul\":3642:3671   */\n      tag_96\n      jump\t// in\n    tag_167:\n        /* \"#utility.yul\":3634:3671   */\n      swap1\n      pop\n        /* \"#utility.yul\":3726:3730   */\n      0x20\n        /* \"#utility.yul\":3720:3724   */\n      dup2\n        /* \"#utility.yul\":3716:3731   */\n      add\n        /* \"#utility.yul\":3708:3731   */\n      swap1\n      pop\n        /* \"#utility.yul\":3430:3738   */\n      swap2\n      swap1\n      pop\n      jump\t// out\n        /* \"#utility.yul\":3744:3898   */\n    tag_107:\n        /* \"#utility.yul\":3828:3834   */\n      dup3\n        /* \"#utility.yul\":3823:3826   */\n      dup2\n        /* \"#utility.yul\":3818:3821   */\n      dup4\n        /* \"#utility.yul\":3805:3835   */\n      calldatacopy\n        /* \"#utility.yul\":3890:3891   */\n      0x00\n        /* \"#utility.yul\":3881:3887   */\n      dup4\n        /* \"#utility.yul\":3876:3879   */\n      dup4\n        /* \"#utility.yul\":3872:3888   */\n      add\n        /* \"#utility.yul\":3865:3892   */\n      mstore\n        /* \"#utility.yul\":3744:3898   */\n      pop\n      pop\n      pop\n      jump\t// out\n        /* \"#utility.yul\":3904:4316   */\n    tag_108:\n        /* \"#utility.yul\":3982:3987   */\n      0x00\n        /* \"#utility.yul\":4007:4073   */\n      tag_170\n        /* \"#utility.yul\":4023:4072   */\n      tag_171\n        /* \"#utility.yul\":4065:4071   */\n      dup5\n        /* \"#utility.yul\":4023:4072   */\n      tag_106\n      jump\t// in\n    tag_171:\n        /* \"#utility.yul\":4007:4073   */\n      tag_105\n      jump\t// in\n    tag_170:\n        /* \"#utility.yul\":3998:4073   */\n      swap1\n      pop\n        /* \"#utility.yul\":4096:4102   */\n      dup3\n        /* \"#utility.yul\":4089:4094   */\n      dup2\n        /* \"#utility.yul\":4082:4103   */\n      mstore\n        /* \"#utility.yul\":4134:4138   */\n      0x20\n        /* \"#utility.yul\":4127:4132   */\n      dup2\n        /* \"#utility.yul\":4123:4139   */\n      add\n        /* \"#utility.yul\":4172:4175   */\n      dup5\n        /* \"#utility.yul\":4163:4169   */\n      dup5\n        /* \"#utility.yul\":4158:4161   */\n      dup5\n        /* \"#utility.yul\":4154:4170   */\n      add\n        /* \"#utility.yul\":4151:4176   */\n      gt\n        /* \"#utility.yul\":4148:4260   */\n      iszero\n      tag_172\n      jumpi\n        /* \"#utility.yul\":4179:4258   */\n      tag_173\n      tag_102\n      jump\t// in\n    tag_173:\n        /* \"#utility.yul\":4148:4260   */\n    tag_172:\n        /* \"#utility.yul\":4269:4310   */\n      tag_174\n        /* \"#utility.yul\":4303:4309   */\n      dup5\n        /* \"#utility.yul\":4298:4301   */\n      dup3\n        /* \"#utility.yul\":4293:4296   */\n      dup6\n        /* \"#utility.yul\":4269:4310   */\n      tag_107\n      jump\t// in\n    tag_174:\n        /* \"#utility.yul\":3988:4316   */\n      pop\n        /* \"#utility.yul\":3904:4316   */\n      swap4\n      swap3\n      pop\n      pop\n      pop\n      jump\t// out\n        /* \"#utility.yul\":4336:4676   */\n    tag_109:\n        /* \"#utility.yul\":4392:4397   */\n      0x00\n        /* \"#utility.yul\":4441:4444   */\n      dup3\n        /* \"#utility.yul\":4434:4438   */\n      0x1f\n        /* \"#utility.yul\":4426:4432   */\n      dup4\n        /* \"#utility.yul\":4422:4439   */\n      add\n        /* \"#utility.yul\":4418:4445   */\n      slt\n        /* \"#utility.yul\":4408:4530   */\n      tag_176\n      jumpi\n        /* \"#utility.yul\":4449:4528   */\n      tag_177\n      tag_101\n      jump\t// in\n    tag_177:\n        /* \"#utility.yul\":4408:4530   */\n    tag_176:\n        /* \"#utility.yul\":4566:4572   */\n      dup2\n        /* \"#utility.yul\":4553:4573   */\n      calldataload\n        /* \"#utility.yul\":4591:4670   */\n      tag_178\n        /* \"#utility.yul\":4666:4669   */\n      dup5\n        /* \"#utility.yul\":4658:4664   */\n      dup3\n        /* \"#utility.yul\":4651:4655   */\n      0x20\n        /* \"#utility.yul\":4643:4649   */\n      dup7\n        /* \"#utility.yul\":4639:4656   */\n      add\n        /* \"#utility.yul\":4591:4670   */\n      tag_108\n      jump\t// in\n    tag_178:\n        /* \"#utility.yul\":4582:4670   */\n      swap2\n      pop\n        /* \"#utility.yul\":4398:4676   */\n      pop\n        /* \"#utility.yul\":4336:4676   */\n      swap3\n      swap2\n      pop\n      pop\n      jump\t// out\n        /* \"#utility.yul\":4682:5191   */\n    tag_29:\n        /* \"#utility.yul\":4751:4757   */\n      0x00\n        /* \"#utility.yul\":4800:4802   */\n      0x20\n        /* \"#utility.yul\":4788:4797   */\n      dup3\n        /* \"#utility.yul\":4779:4786   */\n      dup5\n        /* \"#utility.yul\":4775:4798   */\n      sub\n        /* \"#utility.yul\":4771:4803   */\n      slt\n        /* \"#utility.yul\":4768:4887   */\n      iszero\n      tag_180\n      jumpi\n        /* \"#utility.yul\":4806:4885   */\n      tag_181\n      tag_99\n      jump\t// in\n    tag_181:\n        /* \"#utility.yul\":4768:4887   */\n    tag_180:\n        /* \"#utility.yul\":4954:4955   */\n      0x00\n        /* \"#utility.yul\":4943:4952   */\n      dup3\n        /* \"#utility.yul\":4939:4956   */\n      add\n        /* \"#utility.yul\":4926:4957   */\n      calldataload\n        /* \"#utility.yul\":4984:5002   */\n      0xffffffffffffffff\n        /* \"#utility.yul\":4976:4982   */\n      dup2\n        /* \"#utility.yul\":4973:5003   */\n      gt\n        /* \"#utility.yul\":4970:5087   */\n      iszero\n      tag_182\n      jumpi\n        /* \"#utility.yul\":5006:5085   */\n      tag_183\n      tag_100\n      jump\t// in\n    tag_183:\n        /* \"#utility.yul\":4970:5087   */\n    tag_182:\n        /* \"#utility.yul\":5111:5174   */\n      tag_184\n        /* \"#utility.yul\":5166:5173   */\n      dup5\n        /* \"#utility.yul\":5157:5163   */\n      dup3\n        /* \"#utility.yul\":5146:5155   */\n      dup6\n        /* \"#utility.yul\":5142:5164   */\n      add\n        /* \"#utility.yul\":5111:5174   */\n      tag_109\n      jump\t// in\n    tag_184:\n        /* \"#utility.yul\":5101:5174   */\n      swap2\n      pop\n        /* \"#utility.yul\":4897:5184   */\n      pop\n        /* \"#utility.yul\":4682:5191   */\n      swap3\n      swap2\n      pop\n      pop\n      jump\t// out\n        /* \"#utility.yul\":5197:5287   */\n    tag_110:\n        /* \"#utility.yul\":5231:5238   */\n      0x00\n        /* \"#utility.yul\":5274:5279   */\n      dup2\n        /* \"#utility.yul\":5267:5280   */\n      iszero\n        /* \"#utility.yul\":5260:5281   */\n      iszero\n        /* \"#utility.yul\":5249:5281   */\n      swap1\n      pop\n        /* \"#utility.yul\":5197:5287   */\n      swap2\n      swap1\n      pop\n      jump\t// out\n        /* \"#utility.yul\":5293:5402   */\n    tag_111:\n        /* \"#utility.yul\":5374:5395   */\n      tag_187\n        /* \"#utility.yul\":5389:5394   */\n      dup2\n        /* \"#utility.yul\":5374:5395   */\n      tag_110\n      jump\t// in\n    tag_187:\n        /* \"#utility.yul\":5369:5372   */\n      dup3\n        /* \"#utility.yul\":5362:5396   */\n      mstore\n        /* \"#utility.yul\":5293:5402   */\n      pop\n      pop\n      jump\t// out\n        /* \"#utility.yul\":5408:5618   */\n    tag_32:\n        /* \"#utility.yul\":5495:5499   */\n      0x00\n        /* \"#utility.yul\":5533:5535   */\n      0x20\n        /* \"#utility.yul\":5522:5531   */\n      dup3\n        /* \"#utility.yul\":5518:5536   */\n      add\n        /* \"#utility.yul\":5510:5536   */\n      swap1\n      pop\n        /* \"#utility.yul\":5546:5611   */\n      tag_189\n        /* \"#utility.yul\":5608:5609   */\n      0x00\n        /* \"#utility.yul\":5597:5606   */\n      dup4\n        /* \"#utility.yul\":5593:5610   */\n      add\n        /* \"#utility.yul\":5584:5590   */\n      dup5\n        /* \"#utility.yul\":5546:5611   */\n      tag_111\n      jump\t// in\n    tag_189:\n        /* \"#utility.yul\":5408:5618   */\n      swap3\n      swap2\n      pop\n      pop\n      jump\t// out\n        /* \"#utility.yul\":5624:5710   */\n    tag_112:\n        /* \"#utility.yul\":5659:5666   */\n      0x00\n        /* \"#utility.yul\":5699:5703   */\n      0xff\n        /* \"#utility.yul\":5692:5697   */\n      dup3\n        /* \"#utility.yul\":5688:5704   */\n      and\n        /* \"#utility.yul\":5677:5704   */\n      swap1\n      pop\n        /* \"#utility.yul\":5624:5710   */\n      swap2\n      swap1\n      pop\n      jump\t// out\n        /* \"#utility.yul\":5716:5828   */\n    tag_113:\n        /* \"#utility.yul\":5799:5821   */\n      tag_192\n        /* \"#utility.yul\":5815:5820   */\n      dup2\n        /* \"#utility.yul\":5799:5821   */\n      tag_112\n      jump\t// in\n    tag_192:\n        /* \"#utility.yul\":5794:5797   */\n      dup3\n        /* \"#utility.yul\":5787:5822   */\n      mstore\n        /* \"#utility.yul\":5716:5828   */\n      pop\n      pop\n      jump\t// out\n        /* \"#utility.yul\":5834:6048   */\n    tag_42:\n        /* \"#utility.yul\":5923:5927   */\n      0x00\n        /* \"#utility.yul\":5961:5963   */\n      0x20\n        /* \"#utility.yul\":5950:5959   */\n      dup3\n        /* \"#utility.yul\":5946:5964   */\n      add\n        /* \"#utility.yul\":5938:5964   */\n      swap1\n      pop\n        /* \"#utility.yul\":5974:6041   */\n      tag_194\n        /* \"#utility.yul\":6038:6039   */\n      0x00\n        /* \"#utility.yul\":6027:6036   */\n      dup4\n        /* \"#utility.yul\":6023:6040   */\n      add\n        /* \"#utility.yul\":6014:6020   */\n      dup5\n        /* \"#utility.yul\":5974:6041   */\n      tag_113\n      jump\t// in\n    tag_194:\n        /* \"#utility.yul\":5834:6048   */\n      swap3\n      swap2\n      pop\n      pop\n      jump\t// out\n        /* \"#utility.yul\":6054:6176   */\n    tag_114:\n        /* \"#utility.yul\":6127:6151   */\n      tag_196\n        /* \"#utility.yul\":6145:6150   */\n      dup2\n        /* \"#utility.yul\":6127:6151   */\n      tag_89\n      jump\t// in\n    tag_196:\n        /* \"#utility.yul\":6120:6125   */\n      dup2\n        /* \"#utility.yul\":6117:6152   */\n      eq\n        /* \"#utility.yul\":6107:6170   */\n      tag_197\n      jumpi\n        /* \"#utility.yul\":6166:6167   */\n      0x00\n        /* \"#utility.yul\":6163:6164   */\n      dup1\n        /* \"#utility.yul\":6156:6168   */\n      revert\n        /* \"#utility.yul\":6107:6170   */\n    tag_197:\n        /* \"#utility.yul\":6054:6176   */\n      pop\n      jump\t// out\n        /* \"#utility.yul\":6182:6321   */\n    tag_115:\n        /* \"#utility.yul\":6228:6233   */\n      0x00\n        /* \"#utility.yul\":6266:6272   */\n      dup2\n        /* \"#utility.yul\":6253:6273   */\n      calldataload\n        /* \"#utility.yul\":6244:6273   */\n      swap1\n      pop\n        /* \"#utility.yul\":6282:6315   */\n      tag_199\n        /* \"#utility.yul\":6309:6314   */\n      dup2\n        /* \"#utility.yul\":6282:6315   */\n      tag_114\n      jump\t// in\n    tag_199:\n        /* \"#utility.yul\":6182:6321   */\n      swap3\n      swap2\n      pop\n      pop\n      jump\t// out\n        /* \"#utility.yul\":6327:6656   */\n    tag_45:\n        /* \"#utility.yul\":6386:6392   */\n      0x00\n        /* \"#utility.yul\":6435:6437   */\n      0x20\n        /* \"#utility.yul\":6423:6432   */\n      dup3\n        /* \"#utility.yul\":6414:6421   */\n      dup5\n        /* \"#utility.yul\":6410:6433   */\n      sub\n        /* \"#utility.yul\":6406:6438   */\n      slt\n        /* \"#utility.yul\":6403:6522   */\n      iszero\n      tag_201\n      jumpi\n        /* \"#utility.yul\":6441:6520   */\n      tag_202\n      tag_99\n      jump\t// in\n    tag_202:\n        /* \"#utility.yul\":6403:6522   */\n    tag_201:\n        /* \"#utility.yul\":6561:6562   */\n      0x00\n        /* \"#utility.yul\":6586:6639   */\n      tag_203\n        /* \"#utility.yul\":6631:6638   */\n      dup5\n        /* \"#utility.yul\":6622:6628   */\n      dup3\n        /* \"#utility.yul\":6611:6620   */\n      dup6\n        /* \"#utility.yul\":6607:6629   */\n      add\n        /* \"#utility.yul\":6586:6639   */\n      tag_115\n      jump\t// in\n    tag_203:\n        /* \"#utility.yul\":6576:6639   */\n      swap2\n      pop\n        /* \"#utility.yul\":6532:6649   */\n      pop\n        /* \"#utility.yul\":6327:6656   */\n      swap3\n      swap2\n      pop\n      pop\n      jump\t// out\n        /* \"#utility.yul\":6662:6761   */\n    tag_116:\n        /* \"#utility.yul\":6714:6720   */\n      0x00\n        /* \"#utility.yul\":6748:6753   */\n      dup2\n        /* \"#utility.yul\":6742:6754   */\n      mload\n        /* \"#utility.yul\":6732:6754   */\n      swap1\n      pop\n        /* \"#utility.yul\":6662:6761   */\n      swap2\n      swap1\n      pop\n      jump\t// out\n        /* \"#utility.yul\":6767:6936   */\n    tag_117:\n        /* \"#utility.yul\":6851:6862   */\n      0x00\n        /* \"#utility.yul\":6885:6891   */\n      dup3\n        /* \"#utility.yul\":6880:6883   */\n      dup3\n        /* \"#utility.yul\":6873:6892   */\n      mstore\n        /* \"#utility.yul\":6925:6929   */\n      0x20\n        /* \"#utility.yul\":6920:6923   */\n      dup3\n        /* \"#utility.yul\":6916:6930   */\n      add\n        /* \"#utility.yul\":6901:6930   */\n      swap1\n      pop\n        /* \"#utility.yul\":6767:6936   */\n      swap3\n      swap2\n      pop\n      pop\n      jump\t// out\n        /* \"#utility.yul\":6942:7306   */\n    tag_118:\n        /* \"#utility.yul\":7030:7033   */\n      0x00\n        /* \"#utility.yul\":7058:7097   */\n      tag_207\n        /* \"#utility.yul\":7091:7096   */\n      dup3\n        /* \"#utility.yul\":7058:7097   */\n      tag_116\n      jump\t// in\n    tag_207:\n        /* \"#utility.yul\":7113:7184   */\n      tag_208\n        /* \"#utility.yul\":7177:7183   */\n      dup2\n        /* \"#utility.yul\":7172:7175   */\n      dup6\n        /* \"#utility.yul\":7113:7184   */\n      tag_117\n      jump\t// in\n    tag_208:\n        /* \"#utility.yul\":7106:7184   */\n      swap4\n      pop\n        /* \"#utility.yul\":7193:7245   */\n      tag_209\n        /* \"#utility.yul\":7238:7244   */\n      dup2\n        /* \"#utility.yul\":7233:7236   */\n      dup6\n        /* \"#utility.yul\":7226:7230   */\n      0x20\n        /* \"#utility.yul\":7219:7224   */\n      dup7\n        /* \"#utility.yul\":7215:7231   */\n      add\n        /* \"#utility.yul\":7193:7245   */\n      tag_95\n      jump\t// in\n    tag_209:\n        /* \"#utility.yul\":7270:7299   */\n      tag_210\n        /* \"#utility.yul\":7292:7298   */\n      dup2\n        /* \"#utility.yul\":7270:7299   */\n      tag_96\n      jump\t// in\n    tag_210:\n        /* \"#utility.yul\":7265:7268   */\n      dup5\n        /* \"#utility.yul\":7261:7300   */\n      add\n        /* \"#utility.yul\":7254:7300   */\n      swap2\n      pop\n        /* \"#utility.yul\":7034:7306   */\n      pop\n        /* \"#utility.yul\":6942:7306   */\n      swap3\n      swap2\n      pop\n      pop\n      jump\t// out\n        /* \"#utility.yul\":7312:7625   */\n    tag_50:\n        /* \"#utility.yul\":7425:7429   */\n      0x00\n        /* \"#utility.yul\":7463:7465   */\n      0x20\n        /* \"#utility.yul\":7452:7461   */\n      dup3\n        /* \"#utility.yul\":7448:7466   */\n      add\n        /* \"#utility.yul\":7440:7466   */\n      swap1\n      pop\n        /* \"#utility.yul\":7512:7521   */\n      dup2\n        /* \"#utility.yul\":7506:7510   */\n      dup2\n        /* \"#utility.yul\":7502:7522   */\n      sub\n        /* \"#utility.yul\":7498:7499   */\n      0x00\n        /* \"#utility.yul\":7487:7496   */\n      dup4\n        /* \"#utility.yul\":7483:7500   */\n      add\n        /* \"#utility.yul\":7476:7523   */\n      mstore\n        /* \"#utility.yul\":7540:7618   */\n      tag_212\n        /* \"#utility.yul\":7613:7617   */\n      dup2\n        /* \"#utility.yul\":7604:7610   */\n      dup5\n        /* \"#utility.yul\":7540:7618   */\n      tag_118\n      jump\t// in\n    tag_212:\n        /* \"#utility.yul\":7532:7618   */\n      swap1\n      pop\n        /* \"#utility.yul\":7312:7625   */\n      swap3\n      swap2\n      pop\n      pop\n      jump\t// out\n        /* \"#utility.yul\":7631:7811   */\n    tag_119:\n        /* \"#utility.yul\":7679:7756   */\n      0x4e487b7100000000000000000000000000000000000000000000000000000000\n        /* \"#utility.yul\":7676:7677   */\n      0x00\n        /* \"#utility.yul\":7669:7757   */\n      mstore\n        /* \"#utility.yul\":7776:7780   */\n      0x22\n        /* \"#utility.yul\":7773:7774   */\n      0x04\n        /* \"#utility.yul\":7766:7781   */\n      mstore\n        /* \"#utility.yul\":7800:7804   */\n      0x24\n        /* \"#utility.yul\":7797:7798   */\n      0x00\n        /* \"#utility.yul\":7790:7805   */\n      revert\n        /* \"#utility.yul\":7817:8137   */\n    tag_56:\n        /* \"#utility.yul\":7861:7867   */\n      0x00\n        /* \"#utility.yul\":7898:7899   */\n      0x02\n        /* \"#utility.yul\":7892:7896   */\n      dup3\n        /* \"#utility.yul\":7888:7900   */\n      div\n        /* \"#utility.yul\":7878:7900   */\n      swap1\n      pop\n        /* \"#utility.yul\":7945:7946   */\n      0x01\n        /* \"#utility.yul\":7939:7943   */\n      dup3\n        /* \"#utility.yul\":7935:7947   */\n      and\n        /* \"#utility.yul\":7966:7984   */\n      dup1\n        /* \"#utility.yul\":7956:8037   */\n      tag_215\n      jumpi\n        /* \"#utility.yul\":8022:8026   */\n      0x7f\n        /* \"#utility.yul\":8014:8020   */\n      dup3\n        /* \"#utility.yul\":8010:8027   */\n      and\n        /* \"#utility.yul\":8000:8027   */\n      swap2\n      pop\n        /* \"#utility.yul\":7956:8037   */\n    tag_215:\n        /* \"#utility.yul\":8084:8086   */\n      0x20\n        /* \"#utility.yul\":8076:8082   */\n      dup3\n        /* \"#utility.yul\":8073:8087   */\n      lt\n        /* \"#utility.yul\":8053:8071   */\n      dup2\n        /* \"#utility.yul\":8050:8088   */\n      sub\n        /* \"#utility.yul\":8047:8131   */\n      tag_216\n      jumpi\n        /* \"#utility.yul\":8103:8121   */\n      tag_217\n      tag_119\n      jump\t// in\n    tag_217:\n        /* \"#utility.yul\":8047:8131   */\n    tag_216:\n        /* \"#utility.yul\":7868:8137   */\n      pop\n        /* \"#utility.yul\":7817:8137   */\n      swap2\n      swap1\n      pop\n      jump\t// out\n        /* \"#utility.yul\":8143:8291   */\n    tag_120:\n        /* \"#utility.yul\":8245:8256   */\n      0x00\n        /* \"#utility.yul\":8282:8285   */\n      dup2\n        /* \"#utility.yul\":8267:8285   */\n      swap1\n      pop\n        /* \"#utility.yul\":8143:8291   */\n      swap3\n      swap2\n      pop\n      pop\n      jump\t// out\n        /* \"#utility.yul\":8297:8674   */\n    tag_121:\n        /* \"#utility.yul\":8403:8406   */\n      0x00\n        /* \"#utility.yul\":8431:8470   */\n      tag_220\n        /* \"#utility.yul\":8464:8469   */\n      dup3\n        /* \"#utility.yul\":8431:8470   */\n      tag_116\n      jump\t// in\n    tag_220:\n        /* \"#utility.yul\":8486:8575   */\n      tag_221\n        /* \"#utility.yul\":8568:8574   */\n      dup2\n        /* \"#utility.yul\":8563:8566   */\n      dup6\n        /* \"#utility.yul\":8486:8575   */\n      tag_120\n      jump\t// in\n    tag_221:\n        /* \"#utility.yul\":8479:8575   */\n      swap4\n      pop\n        /* \"#utility.yul\":8584:8636   */\n      tag_222\n        /* \"#utility.yul\":8629:8635   */\n      dup2\n        /* \"#utility.yul\":8624:8627   */\n      dup6\n        /* \"#utility.yul\":8617:8621   */\n      0x20\n        /* \"#utility.yul\":8610:8615   */\n      dup7\n        /* \"#utility.yul\":8606:8622   */\n      add\n        /* \"#utility.yul\":8584:8636   */\n      tag_95\n      jump\t// in\n    tag_222:\n        /* \"#utility.yul\":8661:8667   */\n      dup1\n        /* \"#utility.yul\":8656:8659   */\n      dup5\n        /* \"#utility.yul\":8652:8668   */\n      add\n        /* \"#utility.yul\":8645:8668   */\n      swap2\n      pop\n        /* \"#utility.yul\":8407:8674   */\n      pop\n        /* \"#utility.yul\":8297:8674   */\n      swap3\n      swap2\n      pop\n      pop\n      jump\t// out\n        /* \"#utility.yul\":8680:8955   */\n    tag_63:\n        /* \"#utility.yul\":8812:8815   */\n      0x00\n        /* \"#utility.yul\":8834:8929   */\n      tag_224\n        /* \"#utility.yul\":8925:8928   */\n      dup3\n        /* \"#utility.yul\":8916:8922   */\n      dup5\n        /* \"#utility.yul\":8834:8929   */\n      tag_121\n      jump\t// in\n    tag_224:\n        /* \"#utility.yul\":8827:8929   */\n      swap2\n      pop\n        /* \"#utility.yul\":8946:8949   */\n      dup2\n        /* \"#utility.yul\":8939:8949   */\n      swap1\n      pop\n        /* \"#utility.yul\":8680:8955   */\n      swap3\n      swap2\n      pop\n      pop\n      jump\t// out\n        /* \"#utility.yul\":8961:9102   */\n    tag_122:\n        /* \"#utility.yul\":9010:9014   */\n      0x00\n        /* \"#utility.yul\":9033:9036   */\n      dup2\n        /* \"#utility.yul\":9025:9036   */\n      swap1\n      pop\n        /* \"#utility.yul\":9056:9059   */\n      dup2\n        /* \"#utility.yul\":9053:9054   */\n      0x00\n        /* \"#utility.yul\":9046:9060   */\n      mstore\n        /* \"#utility.yul\":9090:9094   */\n      0x20\n        /* \"#utility.yul\":9087:9088   */\n      0x00\n        /* \"#utility.yul\":9077:9095   */\n      keccak256\n        /* \"#utility.yul\":9069:9095   */\n      swap1\n      pop\n        /* \"#utility.yul\":8961:9102   */\n      swap2\n      swap1\n      pop\n      jump\t// out\n        /* \"#utility.yul\":9132:9977   */\n    tag_123:\n        /* \"#utility.yul\":9235:9238   */\n      0x00\n        /* \"#utility.yul\":9272:9277   */\n      dup2\n        /* \"#utility.yul\":9266:9278   */\n      sload\n        /* \"#utility.yul\":9301:9337   */\n      tag_227\n        /* \"#utility.yul\":9327:9336   */\n      dup2\n        /* \"#utility.yul\":9301:9337   */\n      tag_56\n      jump\t// in\n    tag_227:\n        /* \"#utility.yul\":9353:9442   */\n      tag_228\n        /* \"#utility.yul\":9435:9441   */\n      dup2\n        /* \"#utility.yul\":9430:9433   */\n      dup7\n        /* \"#utility.yul\":9353:9442   */\n      tag_120\n      jump\t// in\n    tag_228:\n        /* \"#utility.yul\":9346:9442   */\n      swap5\n      pop\n        /* \"#utility.yul\":9473:9474   */\n      0x01\n        /* \"#utility.yul\":9462:9471   */\n      dup3\n        /* \"#utility.yul\":9458:9475   */\n      and\n        /* \"#utility.yul\":9489:9490   */\n      0x00\n        /* \"#utility.yul\":9484:9621   */\n      dup2\n      eq\n      tag_230\n      jumpi\n        /* \"#utility.yul\":9635:9636   */\n      0x01\n        /* \"#utility.yul\":9630:9971   */\n      dup2\n      eq\n      tag_231\n      jumpi\n        /* \"#utility.yul\":9451:9971   */\n      jump(tag_229)\n        /* \"#utility.yul\":9484:9621   */\n    tag_230:\n        /* \"#utility.yul\":9568:9572   */\n      0xff\n        /* \"#utility.yul\":9564:9573   */\n      not\n        /* \"#utility.yul\":9553:9562   */\n      dup4\n        /* \"#utility.yul\":9549:9574   */\n      and\n        /* \"#utility.yul\":9544:9547   */\n      dup7\n        /* \"#utility.yul\":9537:9575   */\n      mstore\n        /* \"#utility.yul\":9604:9610   */\n      dup2\n        /* \"#utility.yul\":9599:9602   */\n      dup7\n        /* \"#utility.yul\":9595:9611   */\n      add\n        /* \"#utility.yul\":9588:9611   */\n      swap4\n      pop\n        /* \"#utility.yul\":9484:9621   */\n      jump(tag_229)\n        /* \"#utility.yul\":9630:9971   */\n    tag_231:\n        /* \"#utility.yul\":9697:9735   */\n      tag_232\n        /* \"#utility.yul\":9729:9734   */\n      dup6\n        /* \"#utility.yul\":9697:9735   */\n      tag_122\n      jump\t// in\n    tag_232:\n        /* \"#utility.yul\":9757:9758   */\n      0x00\n        /* \"#utility.yul\":9771:9925   */\n    tag_233:\n        /* \"#utility.yul\":9785:9791   */\n      dup4\n        /* \"#utility.yul\":9782:9783   */\n      dup2\n        /* \"#utility.yul\":9779:9792   */\n      lt\n        /* \"#utility.yul\":9771:9925   */\n      iszero\n      tag_235\n      jumpi\n        /* \"#utility.yul\":9859:9866   */\n      dup2\n        /* \"#utility.yul\":9853:9867   */\n      sload\n        /* \"#utility.yul\":9849:9850   */\n      dup2\n        /* \"#utility.yul\":9844:9847   */\n      dup10\n        /* \"#utility.yul\":9840:9851   */\n      add\n        /* \"#utility.yul\":9833:9868   */\n      mstore\n        /* \"#utility.yul\":9909:9910   */\n      0x01\n        /* \"#utility.yul\":9900:9907   */\n      dup3\n        /* \"#utility.yul\":9896:9911   */\n      add\n        /* \"#utility.yul\":9885:9911   */\n      swap2\n      pop\n        /* \"#utility.yul\":9807:9811   */\n      0x20\n        /* \"#utility.yul\":9804:9805   */\n      dup2\n        /* \"#utility.yul\":9800:9812   */\n      add\n        /* \"#utility.yul\":9795:9812   */\n      swap1\n      pop\n        /* \"#utility.yul\":9771:9925   */\n      jump(tag_233)\n    tag_235:\n        /* \"#utility.yul\":9954:9960   */\n      dup4\n        /* \"#utility.yul\":9949:9952   */\n      dup9\n        /* \"#utility.yul\":9945:9961   */\n      add\n        /* \"#utility.yul\":9938:9961   */\n      swap6\n      pop\n        /* \"#utility.yul\":9637:9971   */\n      pop\n      pop\n        /* \"#utility.yul\":9451:9971   */\n    tag_229:\n      pop\n        /* \"#utility.yul\":9239:9977   */\n      pop\n      pop\n        /* \"#utility.yul\":9132:9977   */\n      swap3\n      swap2\n      pop\n      pop\n      jump\t// out\n        /* \"#utility.yul\":9983:10252   */\n    tag_65:\n        /* \"#utility.yul\":10112:10115   */\n      0x00\n        /* \"#utility.yul\":10134:10226   */\n      tag_237\n        /* \"#utility.yul\":10222:10225   */\n      dup3\n        /* \"#utility.yul\":10213:10219   */\n      dup5\n        /* \"#utility.yul\":10134:10226   */\n      tag_123\n      jump\t// in\n    tag_237:\n        /* \"#utility.yul\":10127:10226   */\n      swap2\n      pop\n        /* \"#utility.yul\":10243:10246   */\n      dup2\n        /* \"#utility.yul\":10236:10246   */\n      swap1\n      pop\n        /* \"#utility.yul\":9983:10252   */\n      swap3\n      swap2\n      pop\n      pop\n      jump\t// out\n        /* \"#utility.yul\":10258:10438   */\n    tag_124:\n        /* \"#utility.yul\":10306:10383   */\n      0x4e487b7100000000000000000000000000000000000000000000000000000000\n        /* \"#utility.yul\":10303:10304   */\n      0x00\n        /* \"#utility.yul\":10296:10384   */\n      mstore\n        /* \"#utility.yul\":10403:10407   */\n      0x11\n        /* \"#utility.yul\":10400:10401   */\n      0x04\n        /* \"#utility.yul\":10393:10408   */\n      mstore\n        /* \"#utility.yul\":10427:10431   */\n      0x24\n        /* \"#utility.yul\":10424:10425   */\n      0x00\n        /* \"#utility.yul\":10417:10432   */\n      revert\n        /* \"#utility.yul\":10444:10675   */\n    tag_77:\n        /* \"#utility.yul\":10482:10485   */\n      0x00\n        /* \"#utility.yul\":10505:10528   */\n      tag_240\n        /* \"#utility.yul\":10522:10527   */\n      dup3\n        /* \"#utility.yul\":10505:10528   */\n      tag_91\n      jump\t// in\n    tag_240:\n        /* \"#utility.yul\":10496:10528   */\n      swap2\n      pop\n        /* \"#utility.yul\":10550:10616   */\n      0x7fffffffffffffffffffffffffffffffffffffffffffffffffffffffffffffff\n        /* \"#utility.yul\":10543:10548   */\n      dup3\n        /* \"#utility.yul\":10540:10617   */\n      sub\n        /* \"#utility.yul\":10537:10640   */\n      tag_241\n      jumpi\n        /* \"#utility.yul\":10620:10638   */\n      tag_242\n      tag_124\n      jump\t// in\n    tag_242:\n        /* \"#utility.yul\":10537:10640   */\n    tag_241:\n        /* \"#utility.yul\":10667:10668   */\n      0x01\n        /* \"#utility.yul\":10660:10665   */\n      dup3\n        /* \"#utility.yul\":10656:10669   */\n      add\n        /* \"#utility.yul\":10649:10669   */\n      swap1\n      pop\n        /* \"#utility.yul\":10444:10675   */\n      swap2\n      swap1\n      pop\n      jump\t// out\n\n    auxdata: 0xa2646970667358221220be968787959908f27c9caa625ca0ffd7f17d3bda7e2557796c228ccbac9918a964736f6c634300080e0033\n}\n",
				"bytecode": {
					"linkReferences": {},
					"object": "60806040526010600260006101000a81548160ff021916908360ff1602179055507ffffffffffffffffffffffffffffffffffffffffffffffffffffffffffffffff66003556040518060400160405280600b81526020017f48656c6c6f20576f726c640000000000000000000000000000000000000000008152506004908051906020019062000091929190620000f4565b506040518060400160405280600b81526020017f48656c6c6f20576f726c6400000000000000000000000000000000000000000081525060059080519060200190620000df92919062000185565b50348015620000ed57600080fd5b5062000299565b828054620001029062000264565b90600052602060002090601f01602090048101928262000126576000855562000172565b82601f106200014157805160ff191683800117855562000172565b8280016001018555821562000172579182015b828111156200017157825182559160200191906001019062000154565b5b50905062000181919062000216565b5090565b828054620001939062000264565b90600052602060002090601f016020900481019282620001b7576000855562000203565b82601f10620001d257805160ff191683800117855562000203565b8280016001018555821562000203579182015b8281111562000202578251825591602001919060010190620001e5565b5b50905062000212919062000216565b5090565b5b808211156200023157600081600090555060010162000217565b5090565b7f4e487b7100000000000000000000000000000000000000000000000000000000600052602260045260246000fd5b600060028204905060018216806200027d57607f821691505b60208210810362000293576200029262000235565b5b50919050565b610a7680620002a96000396000f3fe608060405234801561001057600080fd5b50600436106100a95760003560e01c806382180568116100715780638218056814610156578063e2a4b2af14610172578063e492fd8414610190578063ef690cc0146101ac578063f102a71d146101ca578063fc979f7b146101d4576100a9565b806306540f7e146100ae5780632cb777a6146100cc578063336ab504146100ea5780634f86f506146101085780637c43b66e14610138575b600080fd5b6100b66101de565b6040516100c39190610492565b60405180910390f35b6100d46101e4565b6040516100e191906104c6565b60405180910390f35b6100f26101ea565b6040516100ff919061057a565b60405180910390f35b610122600480360381019061011d91906106e5565b610278565b60405161012f9190610749565b60405180910390f35b6101406102d1565b60405161014d9190610749565b60405180910390f35b610170600480360381019061016b91906106e5565b6102e2565b005b61017a6102fc565b6040516101879190610780565b60405180910390f35b6101aa60048036038101906101a591906107c7565b61030f565b005b6101b4610319565b6040516101c19190610849565b60405180910390f35b6101d26103a7565b005b6101dc6103c1565b005b60015481565b60035481565b600580546101f79061089a565b80601f01602080910402602001604051908101604052809291908181526020018280546102239061089a565b80156102705780601f1061024557610100808354040283529160200191610270565b820191906000526020600020905b81548152906001019060200180831161025357829003601f168201915b505050505081565b60008160405160200161028b9190610907565b6040516020818303038152906040528051906020012060046040516020016102b391906109b2565b60405160208183030381529060405280519060200120149050919050565b60008054906101000a900460ff1681565b80600490805190602001906102f89291906103d6565b5050565b600260009054906101000a900460ff1681565b8060018190555050565b600480546103269061089a565b80601f01602080910402602001604051908101604052809291908181526020018280546103529061089a565b801561039f5780601f106103745761010080835404028352916020019161039f565b820191906000526020600020905b81548152906001019060200180831161038257829003601f168201915b505050505081565b600360008154809291906103ba906109f8565b9190505550565b60016000815480929190600190039190505550565b8280546103e29061089a565b90600052602060002090601f016020900481019282610404576000855561044b565b82601f1061041d57805160ff191683800117855561044b565b8280016001018555821561044b579182015b8281111561044a57825182559160200191906001019061042f565b5b509050610458919061045c565b5090565b5b8082111561047557600081600090555060010161045d565b5090565b6000819050919050565b61048c81610479565b82525050565b60006020820190506104a76000830184610483565b92915050565b6000819050919050565b6104c0816104ad565b82525050565b60006020820190506104db60008301846104b7565b92915050565b600081519050919050565b600082825260208201905092915050565b60005b8381101561051b578082015181840152602081019050610500565b8381111561052a576000848401525b50505050565b6000601f19601f8301169050919050565b600061054c826104e1565b61055681856104ec565b93506105668185602086016104fd565b61056f81610530565b840191505092915050565b600060208201905081810360008301526105948184610541565b905092915050565b6000604051905090565b600080fd5b600080fd5b600080fd5b600080fd5b7f4e487b7100000000000000000000000000000000000000000000000000000000600052604160045260246000fd5b6105f282610530565b810181811067ffffffffffffffff82111715610611576106106105ba565b5b80604052505050565b600061062461059c565b905061063082826105e9565b919050565b600067ffffffffffffffff8211156106505761064f6105ba565b5b61065982610530565b9050602081019050919050565b82818337600083830152505050565b600061068861068384610635565b61061a565b9050828152602081018484840111156106a4576106a36105b5565b5b6106af848285610666565b509392505050565b600082601f8301126106cc576106cb6105b0565b5b81356106dc848260208601610675565b91505092915050565b6000602082840312156106fb576106fa6105a6565b5b600082013567ffffffffffffffff811115610719576107186105ab565b5b610725848285016106b7565b91505092915050565b60008115159050919050565b6107438161072e565b82525050565b600060208201905061075e600083018461073a565b92915050565b600060ff82169050919050565b61077a81610764565b82525050565b60006020820190506107956000830184610771565b92915050565b6107a481610479565b81146107af57600080fd5b50565b6000813590506107c18161079b565b92915050565b6000602082840312156107dd576107dc6105a6565b5b60006107eb848285016107b2565b91505092915050565b600081519050919050565b600082825260208201905092915050565b600061081b826107f4565b61082581856107ff565b93506108358185602086016104fd565b61083e81610530565b840191505092915050565b600060208201905081810360008301526108638184610810565b905092915050565b7f4e487b7100000000000000000000000000000000000000000000000000000000600052602260045260246000fd5b600060028204905060018216806108b257607f821691505b6020821081036108c5576108c461086b565b5b50919050565b600081905092915050565b60006108e1826107f4565b6108eb81856108cb565b93506108fb8185602086016104fd565b80840191505092915050565b600061091382846108d6565b915081905092915050565b60008190508160005260206000209050919050565b600081546109408161089a565b61094a81866108cb565b945060018216600081146109655760018114610976576109a9565b60ff198316865281860193506109a9565b61097f8561091e565b60005b838110156109a157815481890152600182019150602081019050610982565b838801955050505b50505092915050565b60006109be8284610933565b915081905092915050565b7f4e487b7100000000000000000000000000000000000000000000000000000000600052601160045260246000fd5b6000610a03826104ad565b91507f7fffffffffffffffffffffffffffffffffffffffffffffffffffffffffffffff8203610a3557610a346109c9565b5b60018201905091905056fea2646970667358221220be968787959908f27c9caa625ca0ffd7f17d3bda7e2557796c228ccbac9918a964736f6c634300080e0033",
					"opcodes": "PUSH1 0x80 PUSH1 0x40 MSTORE PUSH1 0x10 PUSH1 0x2 PUSH1 0x0 PUSH2 0x100 EXP DUP2 SLOAD DUP2 PUSH1 0xFF MUL NOT AND SWAP1 DUP4 PUSH1 0xFF AND MUL OR SWAP1 SSTORE POP PUSH32 0xFFFFFFFFFFFFFFFFFFFFFFFFFFFFFFFFFFFFFFFFFFFFFFFFFFFFFFFFFFFFFFF6 PUSH1 0x3 SSTORE PUSH1 0x40 MLOAD DUP1 PUSH1 0x40 ADD PUSH1 0x40 MSTORE DUP1 PUSH1 0xB DUP2 MSTORE PUSH1 0x20 ADD PUSH32 0x48656C6C6F20576F726C64000000000000000000000000000000000000000000 DUP2 MSTORE POP PUSH1 0x4 SWAP1 DUP1 MLOAD SWAP1 PUSH1 0x20 ADD SWAP1 PUSH3 0x91 SWAP3 SWAP2 SWAP1 PUSH3 0xF4 JUMP JUMPDEST POP PUSH1 0x40 MLOAD DUP1 PUSH1 0x40 ADD PUSH1 0x40 MSTORE DUP1 PUSH1 0xB DUP2 MSTORE PUSH1 0x20 ADD PUSH32 0x48656C6C6F20576F726C64000000000000000000000000000000000000000000 DUP2 MSTORE POP PUSH1 0x5 SWAP1 DUP1 MLOAD SWAP1 PUSH1 0x20 ADD SWAP1 PUSH3 0xDF SWAP3 SWAP2 SWAP1 PUSH3 0x185 JUMP JUMPDEST POP CALLVALUE DUP1 ISZERO PUSH3 0xED JUMPI PUSH1 0x0 DUP1 REVERT JUMPDEST POP PUSH3 0x299 JUMP JUMPDEST DUP3 DUP1 SLOAD PUSH3 0x102 SWAP1 PUSH3 0x264 JUMP JUMPDEST SWAP1 PUSH1 0x0 MSTORE PUSH1 0x20 PUSH1 0x0 KECCAK256 SWAP1 PUSH1 0x1F ADD PUSH1 0x20 SWAP1 DIV DUP2 ADD SWAP3 DUP3 PUSH3 0x126 JUMPI PUSH1 0x0 DUP6 SSTORE PUSH3 0x172 JUMP JUMPDEST DUP3 PUSH1 0x1F LT PUSH3 0x141 JUMPI DUP1 MLOAD PUSH1 0xFF NOT AND DUP4 DUP1 ADD OR DUP6 SSTORE PUSH3 0x172 JUMP JUMPDEST DUP3 DUP1 ADD PUSH1 0x1 ADD DUP6 SSTORE DUP3 ISZERO PUSH3 0x172 JUMPI SWAP2 DUP3 ADD JUMPDEST DUP3 DUP2 GT ISZERO PUSH3 0x171 JUMPI DUP3 MLOAD DUP3 SSTORE SWAP2 PUSH1 0x20 ADD SWAP2 SWAP1 PUSH1 0x1 ADD SWAP1 PUSH3 0x154 JUMP JUMPDEST JUMPDEST POP SWAP1 POP PUSH3 0x181 SWAP2 SWAP1 PUSH3 0x216 JUMP JUMPDEST POP SWAP1 JUMP JUMPDEST DUP3 DUP1 SLOAD PUSH3 0x193 SWAP1 PUSH3 0x264 JUMP JUMPDEST SWAP1 PUSH1 0x0 MSTORE PUSH1 0x20 PUSH1 0x0 KECCAK256 SWAP1 PUSH1 0x1F ADD PUSH1 0x20 SWAP1 DIV DUP2 ADD SWAP3 DUP3 PUSH3 0x1B7 JUMPI PUSH1 0x0 DUP6 SSTORE PUSH3 0x203 JUMP JUMPDEST DUP3 PUSH1 0x1F LT PUSH3 0x1D2 JUMPI DUP1 MLOAD PUSH1 0xFF NOT AND DUP4 DUP1 ADD OR DUP6 SSTORE PUSH3 0x203 JUMP JUMPDEST DUP3 DUP1 ADD PUSH1 0x1 ADD DUP6 SSTORE DUP3 ISZERO PUSH3 0x203 JUMPI SWAP2 DUP3 ADD JUMPDEST DUP3 DUP2 GT ISZERO PUSH3 0x202 JUMPI DUP3 MLOAD DUP3 SSTORE SWAP2 PUSH1 0x20 ADD SWAP2 SWAP1 PUSH1 0x1 ADD SWAP1 PUSH3 0x1E5 JUMP JUMPDEST JUMPDEST POP SWAP1 POP PUSH3 0x212 SWAP2 SWAP1 PUSH3 0x216 JUMP JUMPDEST POP SWAP1 JUMP JUMPDEST JUMPDEST DUP1 DUP3 GT ISZERO PUSH3 0x231 JUMPI PUSH1 0x0 DUP2 PUSH1 0x0 SWAP1 SSTORE POP PUSH1 0x1 ADD PUSH3 0x217 JUMP JUMPDEST POP SWAP1 JUMP JUMPDEST PUSH32 0x4E487B7100000000000000000000000000000000000000000000000000000000 PUSH1 0x0 MSTORE PUSH1 0x22 PUSH1 0x4 MSTORE PUSH1 0x24 PUSH1 0x0 REVERT JUMPDEST PUSH1 0x0 PUSH1 0x2 DUP3 DIV SWAP1 POP PUSH1 0x1 DUP3 AND DUP1 PUSH3 0x27D JUMPI PUSH1 0x7F DUP3 AND SWAP2 POP JUMPDEST PUSH1 0x20 DUP3 LT DUP2 SUB PUSH3 0x293 JUMPI PUSH3 0x292 PUSH3 0x235 JUMP JUMPDEST JUMPDEST POP SWAP2 SWAP1 POP JUMP JUMPDEST PUSH2 0xA76 DUP1 PUSH3 0x2A9 PUSH1 0x0 CODECOPY PUSH1 0x0 RETURN INVALID PUSH1 0x80 PUSH1 0x40 MSTORE CALLVALUE DUP1 ISZERO PUSH2 0x10 JUMPI PUSH1 0x0 DUP1 REVERT JUMPDEST POP PUSH1 0x4 CALLDATASIZE LT PUSH2 0xA9 JUMPI PUSH1 0x0 CALLDATALOAD PUSH1 0xE0 SHR DUP1 PUSH4 0x82180568 GT PUSH2 0x71 JUMPI DUP1 PUSH4 0x82180568 EQ PUSH2 0x156 JUMPI DUP1 PUSH4 0xE2A4B2AF EQ PUSH2 0x172 JUMPI DUP1 PUSH4 0xE492FD84 EQ PUSH2 0x190 JUMPI DUP1 PUSH4 0xEF690CC0 EQ PUSH2 0x1AC JUMPI DUP1 PUSH4 0xF102A71D EQ PUSH2 0x1CA JUMPI DUP1 PUSH4 0xFC979F7B EQ PUSH2 0x1D4 JUMPI PUSH2 0xA9 JUMP JUMPDEST DUP1 PUSH4 0x6540F7E EQ PUSH2 0xAE JUMPI DUP1 PUSH4 0x2CB777A6 EQ PUSH2 0xCC JUMPI DUP1 PUSH4 0x336AB504 EQ PUSH2 0xEA JUMPI DUP1 PUSH4 0x4F86F506 EQ PUSH2 0x108 JUMPI DUP1 PUSH4 0x7C43B66E EQ PUSH2 0x138 JUMPI JUMPDEST PUSH1 0x0 DUP1 REVERT JUMPDEST PUSH2 0xB6 PUSH2 0x1DE JUMP JUMPDEST PUSH1 0x40 MLOAD PUSH2 0xC3 SWAP2 SWAP1 PUSH2 0x492 JUMP JUMPDEST PUSH1 0x40 MLOAD DUP1 SWAP2 SUB SWAP1 RETURN JUMPDEST PUSH2 0xD4 PUSH2 0x1E4 JUMP JUMPDEST PUSH1 0x40 MLOAD PUSH2 0xE1 SWAP2 SWAP1 PUSH2 0x4C6 JUMP JUMPDEST PUSH1 0x40 MLOAD DUP1 SWAP2 SUB SWAP1 RETURN JUMPDEST PUSH2 0xF2 PUSH2 0x1EA JUMP JUMPDEST PUSH1 0x40 MLOAD PUSH2 0xFF SWAP2 SWAP1 PUSH2 0x57A JUMP JUMPDEST PUSH1 0x40 MLOAD DUP1 SWAP2 SUB SWAP1 RETURN JUMPDEST PUSH2 0x122 PUSH1 0x4 DUP1 CALLDATASIZE SUB DUP2 ADD SWAP1 PUSH2 0x11D SWAP2 SWAP1 PUSH2 0x6E5 JUMP JUMPDEST PUSH2 0x278 JUMP JUMPDEST PUSH1 0x40 MLOAD PUSH2 0x12F SWAP2 SWAP1 PUSH2 0x749 JUMP JUMPDEST PUSH1 0x40 MLOAD DUP1 SWAP2 SUB SWAP1 RETURN JUMPDEST PUSH2 0x140 PUSH2 0x2D1 JUMP JUMPDEST PUSH1 0x40 MLOAD PUSH2 0x14D SWAP2 SWAP1 PUSH2 0x749 JUMP JUMPDEST PUSH1 0x40 MLOAD DUP1 SWAP2 SUB SWAP1 RETURN JUMPDEST PUSH2 0x170 PUSH1 0x4 DUP1 CALLDATASIZE SUB DUP2 ADD SWAP1 PUSH2 0x16B SWAP2 SWAP1 PUSH2 0x6E5 JUMP JUMPDEST PUSH2 0x2E2 JUMP JUMPDEST STOP JUMPDEST PUSH2 0x17A PUSH2 0x2FC JUMP JUMPDEST PUSH1 0x40 MLOAD PUSH2 0x187 SWAP2 SWAP1 PUSH2 0x780 JUMP JUMPDEST PUSH1 0x40 MLOAD DUP1 SWAP2 SUB SWAP1 RETURN JUMPDEST PUSH2 0x1AA PUSH1 0x4 DUP1 CALLDATASIZE SUB DUP2 ADD SWAP1 PUSH2 0x1A5 SWAP2 SWAP1 PUSH2 0x7C7 JUMP JUMPDEST PUSH2 0x30F JUMP JUMPDEST STOP JUMPDEST PUSH2 0x1B4 PUSH2 0x319 JUMP JUMPDEST PUSH1 0x40 MLOAD PUSH2 0x1C1 SWAP2 SWAP1 PUSH2 0x849 JUMP JUMPDEST PUSH1 0x40 MLOAD DUP1 SWAP2 SUB SWAP1 RETURN JUMPDEST PUSH2 0x1D2 PUSH2 0x3A7 JUMP JUMPDEST STOP JUMPDEST PUSH2 0x1DC PUSH2 0x3C1 JUMP JUMPDEST STOP JUMPDEST PUSH1 0x1 SLOAD DUP2 JUMP JUMPDEST PUSH1 0x3 SLOAD DUP2 JUMP JUMPDEST PUSH1 0x5 DUP1 SLOAD PUSH2 0x1F7 SWAP1 PUSH2 0x89A JUMP JUMPDEST DUP1 PUSH1 0x1F ADD PUSH1 0x20 DUP1 SWAP2 DIV MUL PUSH1 0x20 ADD PUSH1 0x40 MLOAD SWAP1 DUP2 ADD PUSH1 0x40 MSTORE DUP1 SWAP3 SWAP2 SWAP1 DUP2 DUP2 MSTORE PUSH1 0x20 ADD DUP3 DUP1 SLOAD PUSH2 0x223 SWAP1 PUSH2 0x89A JUMP JUMPDEST DUP1 ISZERO PUSH2 0x270 JUMPI DUP1 PUSH1 0x1F LT PUSH2 0x245 JUMPI PUSH2 0x100 DUP1 DUP4 SLOAD DIV MUL DUP4 MSTORE SWAP2 PUSH1 0x20 ADD SWAP2 PUSH2 0x270 JUMP JUMPDEST DUP3 ADD SWAP2 SWAP1 PUSH1 0x0 MSTORE PUSH1 0x20 PUSH1 0x0 KECCAK256 SWAP1 JUMPDEST DUP2 SLOAD DUP2 MSTORE SWAP1 PUSH1 0x1 ADD SWAP1 PUSH1 0x20 ADD DUP1 DUP4 GT PUSH2 0x253 JUMPI DUP3 SWAP1 SUB PUSH1 0x1F AND DUP3 ADD SWAP2 JUMPDEST POP POP POP POP POP DUP2 JUMP JUMPDEST PUSH1 0x0 DUP2 PUSH1 0x40 MLOAD PUSH1 0x20 ADD PUSH2 0x28B SWAP2 SWAP1 PUSH2 0x907 JUMP JUMPDEST PUSH1 0x40 MLOAD PUSH1 0x20 DUP2 DUP4 SUB SUB DUP2 MSTORE SWAP1 PUSH1 0x40 MSTORE DUP1 MLOAD SWAP1 PUSH1 0x20 ADD KECCAK256 PUSH1 0x4 PUSH1 0x40 MLOAD PUSH1 0x20 ADD PUSH2 0x2B3 SWAP2 SWAP1 PUSH2 0x9B2 JUMP JUMPDEST PUSH1 0x40 MLOAD PUSH1 0x20 DUP2 DUP4 SUB SUB DUP2 MSTORE SWAP1 PUSH1 0x40 MSTORE DUP1 MLOAD SWAP1 PUSH1 0x20 ADD KECCAK256 EQ SWAP1 POP SWAP2 SWAP1 POP JUMP JUMPDEST PUSH1 0x0 DUP1 SLOAD SWAP1 PUSH2 0x100 EXP SWAP1 DIV PUSH1 0xFF AND DUP2 JUMP JUMPDEST DUP1 PUSH1 0x4 SWAP1 DUP1 MLOAD SWAP1 PUSH1 0x20 ADD SWAP1 PUSH2 0x2F8 SWAP3 SWAP2 SWAP1 PUSH2 0x3D6 JUMP JUMPDEST POP POP JUMP JUMPDEST PUSH1 0x2 PUSH1 0x0 SWAP1 SLOAD SWAP1 PUSH2 0x100 EXP SWAP1 DIV PUSH1 0xFF AND DUP2 JUMP JUMPDEST DUP1 PUSH1 0x1 DUP2 SWAP1 SSTORE POP POP JUMP JUMPDEST PUSH1 0x4 DUP1 SLOAD PUSH2 0x326 SWAP1 PUSH2 0x89A JUMP JUMPDEST DUP1 PUSH1 0x1F ADD PUSH1 0x20 DUP1 SWAP2 DIV MUL PUSH1 0x20 ADD PUSH1 0x40 MLOAD SWAP1 DUP2 ADD PUSH1 0x40 MSTORE DUP1 SWAP3 SWAP2 SWAP1 DUP2 DUP2 MSTORE PUSH1 0x20 ADD DUP3 DUP1 SLOAD PUSH2 0x352 SWAP1 PUSH2 0x89A JUMP JUMPDEST DUP1 ISZERO PUSH2 0x39F JUMPI DUP1 PUSH1 0x1F LT PUSH2 0x374 JUMPI PUSH2 0x100 DUP1 DUP4 SLOAD DIV MUL DUP4 MSTORE SWAP2 PUSH1 0x20 ADD SWAP2 PUSH2 0x39F JUMP JUMPDEST DUP3 ADD SWAP2 SWAP1 PUSH1 0x0 MSTORE PUSH1 0x20 PUSH1 0x0 KECCAK256 SWAP1 JUMPDEST DUP2 SLOAD DUP2 MSTORE SWAP1 PUSH1 0x1 ADD SWAP1 PUSH1 0x20 ADD DUP1 DUP4 GT PUSH2 0x382 JUMPI DUP3 SWAP1 SUB PUSH1 0x1F AND DUP3 ADD SWAP2 JUMPDEST POP POP POP POP POP DUP2 JUMP JUMPDEST PUSH1 0x3 PUSH1 0x0 DUP2 SLOAD DUP1 SWAP3 SWAP2 SWAP1 PUSH2 0x3BA SWAP1 PUSH2 0x9F8 JUMP JUMPDEST SWAP2 SWAP1 POP SSTORE POP JUMP JUMPDEST PUSH1 0x1 PUSH1 0x0 DUP2 SLOAD DUP1 SWAP3 SWAP2 SWAP1 PUSH1 0x1 SWAP1 SUB SWAP2 SWAP1 POP SSTORE POP JUMP JUMPDEST DUP3 DUP1 SLOAD PUSH2 0x3E2 SWAP1 PUSH2 0x89A JUMP JUMPDEST SWAP1 PUSH1 0x0 MSTORE PUSH1 0x20 PUSH1 0x0 KECCAK256 SWAP1 PUSH1 0x1F ADD PUSH1 0x20 SWAP1 DIV DUP2 ADD SWAP3 DUP3 PUSH2 0x404 JUMPI PUSH1 0x0 DUP6 SSTORE PUSH2 0x44B JUMP JUMPDEST DUP3 PUSH1 0x1F LT PUSH2 0x41D JUMPI DUP1 MLOAD PUSH1 0xFF NOT AND DUP4 DUP1 ADD OR DUP6 SSTORE PUSH2 0x44B JUMP JUMPDEST DUP3 DUP1 ADD PUSH1 0x1 ADD DUP6 SSTORE DUP3 ISZERO PUSH2 0x44B JUMPI SWAP2 DUP3 ADD JUMPDEST DUP3 DUP2 GT ISZERO PUSH2 0x44A JUMPI DUP3 MLOAD DUP3 SSTORE SWAP2 PUSH1 0x20 ADD SWAP2 SWAP1 PUSH1 0x1 ADD SWAP1 PUSH2 0x42F JUMP JUMPDEST JUMPDEST POP SWAP1 POP PUSH2 0x458 SWAP2 SWAP1 PUSH2 0x45C JUMP JUMPDEST POP SWAP1 JUMP JUMPDEST JUMPDEST DUP1 DUP3 GT ISZERO PUSH2 0x475 JUMPI PUSH1 0x0 DUP2 PUSH1 0x0 SWAP1 SSTORE POP PUSH1 0x1 ADD PUSH2 0x45D JUMP JUMPDEST POP SWAP1 JUMP JUMPDEST PUSH1 0x0 DUP2 SWAP1 POP SWAP2 SWAP1 POP JUMP JUMPDEST PUSH2 0x48C DUP2 PUSH2 0x479 JUMP JUMPDEST DUP3 MSTORE POP POP JUMP JUMPDEST PUSH1 0x0 PUSH1 0x20 DUP3 ADD SWAP1 POP PUSH2 0x4A7 PUSH1 0x0 DUP4 ADD DUP5 PUSH2 0x483 JUMP JUMPDEST SWAP3 SWAP2 POP POP JUMP JUMPDEST PUSH1 0x0 DUP2 SWAP1 POP SWAP2 SWAP1 POP JUMP JUMPDEST PUSH2 0x4C0 DUP2 PUSH2 0x4AD JUMP JUMPDEST DUP3 MSTORE POP POP JUMP JUMPDEST PUSH1 0x0 PUSH1 0x20 DUP3 ADD SWAP1 POP PUSH2 0x4DB PUSH1 0x0 DUP4 ADD DUP5 PUSH2 0x4B7 JUMP JUMPDEST SWAP3 SWAP2 POP POP JUMP JUMPDEST PUSH1 0x0 DUP2 MLOAD SWAP1 POP SWAP2 SWAP1 POP JUMP JUMPDEST PUSH1 0x0 DUP3 DUP3 MSTORE PUSH1 0x20 DUP3 ADD SWAP1 POP SWAP3 SWAP2 POP POP JUMP JUMPDEST PUSH1 0x0 JUMPDEST DUP4 DUP2 LT ISZERO PUSH2 0x51B JUMPI DUP1 DUP3 ADD MLOAD DUP2 DUP5 ADD MSTORE PUSH1 0x20 DUP2 ADD SWAP1 POP PUSH2 0x500 JUMP JUMPDEST DUP4 DUP2 GT ISZERO PUSH2 0x52A JUMPI PUSH1 0x0 DUP5 DUP5 ADD MSTORE JUMPDEST POP POP POP POP JUMP JUMPDEST PUSH1 0x0 PUSH1 0x1F NOT PUSH1 0x1F DUP4 ADD AND SWAP1 POP SWAP2 SWAP1 POP JUMP JUMPDEST PUSH1 0x0 PUSH2 0x54C DUP3 PUSH2 0x4E1 JUMP JUMPDEST PUSH2 0x556 DUP2 DUP6 PUSH2 0x4EC JUMP JUMPDEST SWAP4 POP PUSH2 0x566 DUP2 DUP6 PUSH1 0x20 DUP7 ADD PUSH2 0x4FD JUMP JUMPDEST PUSH2 0x56F DUP2 PUSH2 0x530 JUMP JUMPDEST DUP5 ADD SWAP2 POP POP SWAP3 SWAP2 POP POP JUMP JUMPDEST PUSH1 0x0 PUSH1 0x20 DUP3 ADD SWAP1 POP DUP2 DUP2 SUB PUSH1 0x0 DUP4 ADD MSTORE PUSH2 0x594 DUP2 DUP5 PUSH2 0x541 JUMP JUMPDEST SWAP1 POP SWAP3 SWAP2 POP POP JUMP JUMPDEST PUSH1 0x0 PUSH1 0x40 MLOAD SWAP1 POP SWAP1 JUMP JUMPDEST PUSH1 0x0 DUP1 REVERT JUMPDEST PUSH1 0x0 DUP1 REVERT JUMPDEST PUSH1 0x0 DUP1 REVERT JUMPDEST PUSH1 0x0 DUP1 REVERT JUMPDEST PUSH32 0x4E487B7100000000000000000000000000000000000000000000000000000000 PUSH1 0x0 MSTORE PUSH1 0x41 PUSH1 0x4 MSTORE PUSH1 0x24 PUSH1 0x0 REVERT JUMPDEST PUSH2 0x5F2 DUP3 PUSH2 0x530 JUMP JUMPDEST DUP2 ADD DUP2 DUP2 LT PUSH8 0xFFFFFFFFFFFFFFFF DUP3 GT OR ISZERO PUSH2 0x611 JUMPI PUSH2 0x610 PUSH2 0x5BA JUMP JUMPDEST JUMPDEST DUP1 PUSH1 0x40 MSTORE POP POP POP JUMP JUMPDEST PUSH1 0x0 PUSH2 0x624 PUSH2 0x59C JUMP JUMPDEST SWAP1 POP PUSH2 0x630 DUP3 DUP3 PUSH2 0x5E9 JUMP JUMPDEST SWAP2 SWAP1 POP JUMP JUMPDEST PUSH1 0x0 PUSH8 0xFFFFFFFFFFFFFFFF DUP3 GT ISZERO PUSH2 0x650 JUMPI PUSH2 0x64F PUSH2 0x5BA JUMP JUMPDEST JUMPDEST PUSH2 0x659 DUP3 PUSH2 0x530 JUMP JUMPDEST SWAP1 POP PUSH1 0x20 DUP2 ADD SWAP1 POP SWAP2 SWAP1 POP JUMP JUMPDEST DUP3 DUP2 DUP4 CALLDATACOPY PUSH1 0x0 DUP4 DUP4 ADD MSTORE POP POP POP JUMP JUMPDEST PUSH1 0x0 PUSH2 0x688 PUSH2 0x683 DUP5 PUSH2 0x635 JUMP JUMPDEST PUSH2 0x61A JUMP JUMPDEST SWAP1 POP DUP3 DUP2 MSTORE PUSH1 0x20 DUP2 ADD DUP5 DUP5 DUP5 ADD GT ISZERO PUSH2 0x6A4 JUMPI PUSH2 0x6A3 PUSH2 0x5B5 JUMP JUMPDEST JUMPDEST PUSH2 0x6AF DUP5 DUP3 DUP6 PUSH2 0x666 JUMP JUMPDEST POP SWAP4 SWAP3 POP POP POP JUMP JUMPDEST PUSH1 0x0 DUP3 PUSH1 0x1F DUP4 ADD SLT PUSH2 0x6CC JUMPI PUSH2 0x6CB PUSH2 0x5B0 JUMP JUMPDEST JUMPDEST DUP2 CALLDATALOAD PUSH2 0x6DC DUP5 DUP3 PUSH1 0x20 DUP7 ADD PUSH2 0x675 JUMP JUMPDEST SWAP2 POP POP SWAP3 SWAP2 POP POP JUMP JUMPDEST PUSH1 0x0 PUSH1 0x20 DUP3 DUP5 SUB SLT ISZERO PUSH2 0x6FB JUMPI PUSH2 0x6FA PUSH2 0x5A6 JUMP JUMPDEST JUMPDEST PUSH1 0x0 DUP3 ADD CALLDATALOAD PUSH8 0xFFFFFFFFFFFFFFFF DUP2 GT ISZERO PUSH2 0x719 JUMPI PUSH2 0x718 PUSH2 0x5AB JUMP JUMPDEST JUMPDEST PUSH2 0x725 DUP5 DUP3 DUP6 ADD PUSH2 0x6B7 JUMP JUMPDEST SWAP2 POP POP SWAP3 SWAP2 POP POP JUMP JUMPDEST PUSH1 0x0 DUP2 ISZERO ISZERO SWAP1 POP SWAP2 SWAP1 POP JUMP JUMPDEST PUSH2 0x743 DUP2 PUSH2 0x72E JUMP JUMPDEST DUP3 MSTORE POP POP JUMP JUMPDEST PUSH1 0x0 PUSH1 0x20 DUP3 ADD SWAP1 POP PUSH2 0x75E PUSH1 0x0 DUP4 ADD DUP5 PUSH2 0x73A JUMP JUMPDEST SWAP3 SWAP2 POP POP JUMP JUMPDEST PUSH1 0x0 PUSH1 0xFF DUP3 AND SWAP1 POP SWAP2 SWAP1 POP JUMP JUMPDEST PUSH2 0x77A DUP2 PUSH2 0x764 JUMP JUMPDEST DUP3 MSTORE POP POP JUMP JUMPDEST PUSH1 0x0 PUSH1 0x20 DUP3 ADD SWAP1 POP PUSH2 0x795 PUSH1 0x0 DUP4 ADD DUP5 PUSH2 0x771 JUMP JUMPDEST SWAP3 SWAP2 POP POP JUMP JUMPDEST PUSH2 0x7A4 DUP2 PUSH2 0x479 JUMP JUMPDEST DUP2 EQ PUSH2 0x7AF JUMPI PUSH1 0x0 DUP1 REVERT JUMPDEST POP JUMP JUMPDEST PUSH1 0x0 DUP2 CALLDATALOAD SWAP1 POP PUSH2 0x7C1 DUP2 PUSH2 0x79B JUMP JUMPDEST SWAP3 SWAP2 POP POP JUMP JUMPDEST PUSH1 0x0 PUSH1 0x20 DUP3 DUP5 SUB SLT ISZERO PUSH2 0x7DD JUMPI PUSH2 0x7DC PUSH2 0x5A6 JUMP JUMPDEST JUMPDEST PUSH1 0x0 PUSH2 0x7EB DUP5 DUP3 DUP6 ADD PUSH2 0x7B2 JUMP JUMPDEST SWAP2 POP POP SWAP3 SWAP2 POP POP JUMP JUMPDEST PUSH1 0x0 DUP2 MLOAD SWAP1 POP SWAP2 SWAP1 POP JUMP JUMPDEST PUSH1 0x0 DUP3 DUP3 MSTORE PUSH1 0x20 DUP3 ADD SWAP1 POP SWAP3 SWAP2 POP POP JUMP JUMPDEST PUSH1 0x0 PUSH2 0x81B DUP3 PUSH2 0x7F4 JUMP JUMPDEST PUSH2 0x825 DUP2 DUP6 PUSH2 0x7FF JUMP JUMPDEST SWAP4 POP PUSH2 0x835 DUP2 DUP6 PUSH1 0x20 DUP7 ADD PUSH2 0x4FD JUMP JUMPDEST PUSH2 0x83E DUP2 PUSH2 0x530 JUMP JUMPDEST DUP5 ADD SWAP2 POP POP SWAP3 SWAP2 POP POP JUMP JUMPDEST PUSH1 0x0 PUSH1 0x20 DUP3 ADD SWAP1 POP DUP2 DUP2 SUB PUSH1 0x0 DUP4 ADD MSTORE PUSH2 0x863 DUP2 DUP5 PUSH2 0x810 JUMP JUMPDEST SWAP1 POP SWAP3 SWAP2 POP POP JUMP JUMPDEST PUSH32 0x4E487B7100000000000000000000000000000000000000000000000000000000 PUSH1 0x0 MSTORE PUSH1 0x22 PUSH1 0x4 MSTORE PUSH1 0x24 PUSH1 0x0 REVERT JUMPDEST PUSH1 0x0 PUSH1 0x2 DUP3 DIV SWAP1 POP PUSH1 0x1 DUP3 AND DUP1 PUSH2 0x8B2 JUMPI PUSH1 0x7F DUP3 AND SWAP2 POP JUMPDEST PUSH1 0x20 DUP3 LT DUP2 SUB PUSH2 0x8C5 JUMPI PUSH2 0x8C4 PUSH2 0x86B JUMP JUMPDEST JUMPDEST POP SWAP2 SWAP1 POP JUMP JUMPDEST PUSH1 0x0 DUP2 SWAP1 POP SWAP3 SWAP2 POP POP JUMP JUMPDEST PUSH1 0x0 PUSH2 0x8E1 DUP3 PUSH2 0x7F4 JUMP JUMPDEST PUSH2 0x8EB DUP2 DUP6 PUSH2 0x8CB JUMP JUMPDEST SWAP4 POP PUSH2 0x8FB DUP2 DUP6 PUSH1 0x20 DUP7 ADD PUSH2 0x4FD JUMP JUMPDEST DUP1 DUP5 ADD SWAP2 POP POP SWAP3 SWAP2 POP POP JUMP JUMPDEST PUSH1 0x0 PUSH2 0x913 DUP3 DUP5 PUSH2 0x8D6 JUMP JUMPDEST SWAP2 POP DUP2 SWAP1 POP SWAP3 SWAP2 POP POP JUMP JUMPDEST PUSH1 0x0 DUP2 SWAP1 POP DUP2 PUSH1 0x0 MSTORE PUSH1 0x20 PUSH1 0x0 KECCAK256 SWAP1 POP SWAP2 SWAP1 POP JUMP JUMPDEST PUSH1 0x0 DUP2 SLOAD PUSH2 0x940 DUP2 PUSH2 0x89A JUMP JUMPDEST PUSH2 0x94A DUP2 DUP7 PUSH2 0x8CB JUMP JUMPDEST SWAP5 POP PUSH1 0x1 DUP3 AND PUSH1 0x0 DUP2 EQ PUSH2 0x965 JUMPI PUSH1 0x1 DUP2 EQ PUSH2 0x976 JUMPI PUSH2 0x9A9 JUMP JUMPDEST PUSH1 0xFF NOT DUP4 AND DUP7 MSTORE DUP2 DUP7 ADD SWAP4 POP PUSH2 0x9A9 JUMP JUMPDEST PUSH2 0x97F DUP6 PUSH2 0x91E JUMP JUMPDEST PUSH1 0x0 JUMPDEST DUP4 DUP2 LT ISZERO PUSH2 0x9A1 JUMPI DUP2 SLOAD DUP2 DUP10 ADD MSTORE PUSH1 0x1 DUP3 ADD SWAP2 POP PUSH1 0x20 DUP2 ADD SWAP1 POP PUSH2 0x982 JUMP JUMPDEST DUP4 DUP9 ADD SWAP6 POP POP POP JUMPDEST POP POP POP SWAP3 SWAP2 POP POP JUMP JUMPDEST PUSH1 0x0 PUSH2 0x9BE DUP3 DUP5 PUSH2 0x933 JUMP JUMPDEST SWAP2 POP DUP2 SWAP1 POP SWAP3 SWAP2 POP POP JUMP JUMPDEST PUSH32 0x4E487B7100000000000000000000000000000000000000000000000000000000 PUSH1 0x0 MSTORE PUSH1 0x11 PUSH1 0x4 MSTORE PUSH1 0x24 PUSH1 0x0 REVERT JUMPDEST PUSH1 0x0 PUSH2 0xA03 DUP3 PUSH2 0x4AD JUMP JUMPDEST SWAP2 POP PUSH32 0x7FFFFFFFFFFFFFFFFFFFFFFFFFFFFFFFFFFFFFFFFFFFFFFFFFFFFFFFFFFFFFFF DUP3 SUB PUSH2 0xA35 JUMPI PUSH2 0xA34 PUSH2 0x9C9 JUMP JUMPDEST JUMPDEST PUSH1 0x1 DUP3 ADD SWAP1 POP SWAP2 SWAP1 POP JUMP INVALID LOG2 PUSH5 0x6970667358 0x22 SLT KECCAK256 0xBE SWAP7 DUP8 DUP8 SWAP6 SWAP10 ADDMOD CALLCODE PUSH29 0x9CAA625CA0FFD7F17D3BDA7E2557796C228CCBAC9918A964736F6C6343 STOP ADDMOD 0xE STOP CALLER "
				},
				"gasEstimates": {
					"creation": {
						"codeDepositCost": "535600",
						"executionCost": "infinite",
						"totalCost": "infinite"
					},
					"external": {
						"compareStrings(string)": "infinite",
						"decreementUint()": "24494",
						"greeting()": "infinite",
						"incrementInt()": "24589",
						"myBytesGreeting()": "infinite",
						"myInt()": "2452",
						"myUint()": "2430",
						"myUint8()": "2493",
						"myboll()": "2557",
						"setMyString(string)": "infinite",
						"setMyUint(uint256)": "22564"
					}
				},
				"methodIdentifiers": {
					"compareStrings(string)": "4f86f506",
					"decreementUint()": "fc979f7b",
					"greeting()": "ef690cc0",
					"incrementInt()": "f102a71d",
					"myBytesGreeting()": "336ab504",
					"myInt()": "2cb777a6",
					"myUint()": "06540f7e",
					"myUint8()": "e2a4b2af",
					"myboll()": "7c43b66e",
					"setMyString(string)": "82180568",
					"setMyUint(uint256)": "e492fd84"
				}
			},
			"storageLayout": {
				"storage": [
					{
						"astId": 3,
						"contract": "contracts/Workaround_BasicTypes.sol:BasicTypes",
						"label": "myboll",
						"offset": 0,
						"slot": "0",
						"type": "t_bool"
					},
					{
						"astId": 5,
						"contract": "contracts/Workaround_BasicTypes.sol:BasicTypes",
						"label": "myUint",
						"offset": 0,
						"slot": "1",
						"type": "t_uint256"
					},
					{
						"astId": 10,
						"contract": "contracts/Workaround_BasicTypes.sol:BasicTypes",
						"label": "myUint8",
						"offset": 0,
						"slot": "2",
						"type": "t_uint8"
					},
					{
						"astId": 14,
						"contract": "contracts/Workaround_BasicTypes.sol:BasicTypes",
						"label": "myInt",
						"offset": 0,
						"slot": "3",
						"type": "t_int256"
					},
					{
						"astId": 17,
						"contract": "contracts/Workaround_BasicTypes.sol:BasicTypes",
						"label": "greeting",
						"offset": 0,
						"slot": "4",
						"type": "t_string_storage"
					},
					{
						"astId": 20,
						"contract": "contracts/Workaround_BasicTypes.sol:BasicTypes",
						"label": "myBytesGreeting",
						"offset": 0,
						"slot": "5",
						"type": "t_bytes_storage"
					}
				],
				"types": {
					"t_bool": {
						"encoding": "inplace",
						"label": "bool",
						"numberOfBytes": "1"
					},
					"t_bytes_storage": {
						"encoding": "bytes",
						"label": "bytes",
						"numberOfBytes": "32"
					},
					"t_int256": {
						"encoding": "inplace",
						"label": "int256",
						"numberOfBytes": "32"
					},
					"t_string_storage": {
						"encoding": "bytes",
						"label": "string",
						"numberOfBytes": "32"
					},
					"t_uint256": {
						"encoding": "inplace",
						"label": "uint256",
						"numberOfBytes": "32"
					},
					"t_uint8": {
						"encoding": "inplace",
						"label": "uint8",
						"numberOfBytes": "1"
					}
				}
			},
			"userdoc": {
				"kind": "user",
				"methods": {},
				"version": 1
			}
		}
	}
}