{
	"contracts/Workaround_BasicTypes.sol": {
		"BasicTypes": {
			"abi": [
				{
					"inputs": [],
					"name": "anAddress",
					"outputs": [
						{
							"internalType": "address",
							"name": "",
							"type": "address"
						}
					],
					"stateMutability": "view",
					"type": "function"
				},
				{
					"inputs": [
						{
							"internalType": "string",
							"name": "_myGreeting2",
							"type": "string"
						}
					],
					"name": "compareStrings",
					"outputs": [
						{
							"internalType": "bool",
							"name": "",
							"type": "bool"
						}
					],
					"stateMutability": "view",
					"type": "function"
				},
				{
					"inputs": [],
					"name": "decreementUint",
					"outputs": [],
					"stateMutability": "nonpayable",
					"type": "function"
				},
				{
					"inputs": [],
					"name": "getAddressBalance",
					"outputs": [
						{
							"internalType": "uint256",
							"name": "",
							"type": "uint256"
						}
					],
					"stateMutability": "view",
					"type": "function"
				},
				{
					"inputs": [],
					"name": "greeting",
					"outputs": [
						{
							"internalType": "string",
							"name": "",
							"type": "string"
						}
					],
					"stateMutability": "view",
					"type": "function"
				},
				{
					"inputs": [],
					"name": "incrementInt",
					"outputs": [],
					"stateMutability": "nonpayable",
					"type": "function"
				},
				{
					"inputs": [],
					"name": "myBytesGreeting",
					"outputs": [
						{
							"internalType": "bytes",
							"name": "",
							"type": "bytes"
						}
					],
					"stateMutability": "view",
					"type": "function"
				},
				{
					"inputs": [],
					"name": "myInt",
					"outputs": [
						{
							"internalType": "int256",
							"name": "",
							"type": "int256"
						}
					],
					"stateMutability": "view",
					"type": "function"
				},
				{
					"inputs": [],
					"name": "myUint",
					"outputs": [
						{
							"internalType": "uint256",
							"name": "",
							"type": "uint256"
						}
					],
					"stateMutability": "view",
					"type": "function"
				},
				{
					"inputs": [],
					"name": "myUint8",
					"outputs": [
						{
							"internalType": "uint8",
							"name": "",
							"type": "uint8"
						}
					],
					"stateMutability": "view",
					"type": "function"
				},
				{
					"inputs": [],
					"name": "myboll",
					"outputs": [
						{
							"internalType": "bool",
							"name": "",
							"type": "bool"
						}
					],
					"stateMutability": "view",
					"type": "function"
				},
				{
					"inputs": [
						{
							"internalType": "address",
							"name": "_anAdress",
							"type": "address"
						}
					],
					"name": "setAddress",
					"outputs": [],
					"stateMutability": "nonpayable",
					"type": "function"
				},
				{
					"inputs": [
						{
							"internalType": "string",
							"name": "_myGreeting",
							"type": "string"
						}
					],
					"name": "setMyString",
					"outputs": [],
					"stateMutability": "nonpayable",
					"type": "function"
				},
				{
					"inputs": [
						{
							"internalType": "uint256",
							"name": "_myUint",
							"type": "uint256"
						}
					],
					"name": "setMyUint",
					"outputs": [],
					"stateMutability": "nonpayable",
					"type": "function"
				}
			],
			"devdoc": {
				"kind": "dev",
				"methods": {},
				"version": 1
			},
			"evm": {
				"assembly": "    /* \"contracts/Workaround_BasicTypes.sol\":57:1417  contract BasicTypes{... */\n  mstore(0x40, 0x80)\n    /* \"contracts/Workaround_BasicTypes.sol\":194:198  2**4 */\n  0x10\n    /* \"contracts/Workaround_BasicTypes.sol\":171:198  uint8 public myUint8 = 2**4 */\n  0x02\n  exp(0x0100, 0x00)\n  dup2\n  sload\n  dup2\n  0xff\n  mul\n  not\n  and\n  swap1\n  dup4\n  0xff\n  and\n  mul\n  or\n  swap1\n  sstore\n  pop\n    /* \"contracts/Workaround_BasicTypes.sol\":224:227  -10 */\n  0xfffffffffffffffffffffffffffffffffffffffffffffffffffffffffffffff6\n    /* \"contracts/Workaround_BasicTypes.sol\":205:227  int public myInt = -10 */\n  0x03\n  sstore\n    /* \"contracts/Workaround_BasicTypes.sol\":277:315  string public greeting = \"Hello World\" */\n  mload(0x40)\n  dup1\n  0x40\n  add\n  0x40\n  mstore\n  dup1\n  0x0b\n  dup2\n  mstore\n  0x20\n  add\n  0x48656c6c6f20576f726c64000000000000000000000000000000000000000000\n  dup2\n  mstore\n  pop\n  0x04\n  swap1\n  dup1\n  mload\n  swap1\n  0x20\n  add\n  swap1\n  tag_1\n  swap3\n  swap2\n  swap1\n  tag_2\n  jump\t// in\ntag_1:\n  pop\n    /* \"contracts/Workaround_BasicTypes.sol\":435:479  bytes public myBytesGreeting = \"Hello World\" */\n  mload(0x40)\n  dup1\n  0x40\n  add\n  0x40\n  mstore\n  dup1\n  0x0b\n  dup2\n  mstore\n  0x20\n  add\n  0x48656c6c6f20576f726c64000000000000000000000000000000000000000000\n  dup2\n  mstore\n  pop\n  0x05\n  swap1\n  dup1\n  mload\n  swap1\n  0x20\n  add\n  swap1\n  tag_3\n  swap3\n  swap2\n  swap1\n  tag_4\n  jump\t// in\ntag_3:\n  pop\n    /* \"contracts/Workaround_BasicTypes.sol\":57:1417  contract BasicTypes{... */\n  callvalue\n  dup1\n  iszero\n  tag_5\n  jumpi\n  0x00\n  dup1\n  revert\ntag_5:\n  pop\n  jump(tag_6)\ntag_2:\n  dup3\n  dup1\n  sload\n  tag_7\n  swap1\n  tag_8\n  jump\t// in\ntag_7:\n  swap1\n  0x00\n  mstore\n  keccak256(0x00, 0x20)\n  swap1\n  0x1f\n  add\n  0x20\n  swap1\n  div\n  dup2\n  add\n  swap3\n  dup3\n  tag_10\n  jumpi\n  0x00\n  dup6\n  sstore\n  jump(tag_9)\ntag_10:\n  dup3\n  0x1f\n  lt\n  tag_11\n  jumpi\n  dup1\n  mload\n  not(0xff)\n  and\n  dup4\n  dup1\n  add\n  or\n  dup6\n  sstore\n  jump(tag_9)\ntag_11:\n  dup3\n  dup1\n  add\n  0x01\n  add\n  dup6\n  sstore\n  dup3\n  iszero\n  tag_9\n  jumpi\n  swap2\n  dup3\n  add\ntag_12:\n  dup3\n  dup2\n  gt\n  iszero\n  tag_13\n  jumpi\n  dup3\n  mload\n  dup3\n  sstore\n  swap2\n  0x20\n  add\n  swap2\n  swap1\n  0x01\n  add\n  swap1\n  jump(tag_12)\ntag_13:\ntag_9:\n  pop\n  swap1\n  pop\n  tag_14\n  swap2\n  swap1\n  tag_15\n  jump\t// in\ntag_14:\n  pop\n  swap1\n  jump\t// out\ntag_4:\n  dup3\n  dup1\n  sload\n  tag_16\n  swap1\n  tag_8\n  jump\t// in\ntag_16:\n  swap1\n  0x00\n  mstore\n  keccak256(0x00, 0x20)\n  swap1\n  0x1f\n  add\n  0x20\n  swap1\n  div\n  dup2\n  add\n  swap3\n  dup3\n  tag_18\n  jumpi\n  0x00\n  dup6\n  sstore\n  jump(tag_17)\ntag_18:\n  dup3\n  0x1f\n  lt\n  tag_19\n  jumpi\n  dup1\n  mload\n  not(0xff)\n  and\n  dup4\n  dup1\n  add\n  or\n  dup6\n  sstore\n  jump(tag_17)\ntag_19:\n  dup3\n  dup1\n  add\n  0x01\n  add\n  dup6\n  sstore\n  dup3\n  iszero\n  tag_17\n  jumpi\n  swap2\n  dup3\n  add\ntag_20:\n  dup3\n  dup2\n  gt\n  iszero\n  tag_21\n  jumpi\n  dup3\n  mload\n  dup3\n  sstore\n  swap2\n  0x20\n  add\n  swap2\n  swap1\n  0x01\n  add\n  swap1\n  jump(tag_20)\ntag_21:\ntag_17:\n  pop\n  swap1\n  pop\n  tag_22\n  swap2\n  swap1\n  tag_15\n  jump\t// in\ntag_22:\n  pop\n  swap1\n  jump\t// out\ntag_15:\ntag_23:\n  dup1\n  dup3\n  gt\n  iszero\n  tag_24\n  jumpi\n  0x00\n  dup2\n  0x00\n  swap1\n  sstore\n  pop\n  0x01\n  add\n  jump(tag_23)\ntag_24:\n  pop\n  swap1\n  jump\t// out\n    /* \"#utility.yul\":7:187   */\ntag_25:\n    /* \"#utility.yul\":55:132   */\n  0x4e487b7100000000000000000000000000000000000000000000000000000000\n    /* \"#utility.yul\":52:53   */\n  0x00\n    /* \"#utility.yul\":45:133   */\n  mstore\n    /* \"#utility.yul\":152:156   */\n  0x22\n    /* \"#utility.yul\":149:150   */\n  0x04\n    /* \"#utility.yul\":142:157   */\n  mstore\n    /* \"#utility.yul\":176:180   */\n  0x24\n    /* \"#utility.yul\":173:174   */\n  0x00\n    /* \"#utility.yul\":166:181   */\n  revert\n    /* \"#utility.yul\":193:513   */\ntag_8:\n    /* \"#utility.yul\":237:243   */\n  0x00\n    /* \"#utility.yul\":274:275   */\n  0x02\n    /* \"#utility.yul\":268:272   */\n  dup3\n    /* \"#utility.yul\":264:276   */\n  div\n    /* \"#utility.yul\":254:276   */\n  swap1\n  pop\n    /* \"#utility.yul\":321:322   */\n  0x01\n    /* \"#utility.yul\":315:319   */\n  dup3\n    /* \"#utility.yul\":311:323   */\n  and\n    /* \"#utility.yul\":342:360   */\n  dup1\n    /* \"#utility.yul\":332:413   */\n  tag_29\n  jumpi\n    /* \"#utility.yul\":398:402   */\n  0x7f\n    /* \"#utility.yul\":390:396   */\n  dup3\n    /* \"#utility.yul\":386:403   */\n  and\n    /* \"#utility.yul\":376:403   */\n  swap2\n  pop\n    /* \"#utility.yul\":332:413   */\ntag_29:\n    /* \"#utility.yul\":460:462   */\n  0x20\n    /* \"#utility.yul\":452:458   */\n  dup3\n    /* \"#utility.yul\":449:463   */\n  lt\n    /* \"#utility.yul\":429:447   */\n  dup2\n    /* \"#utility.yul\":426:464   */\n  sub\n    /* \"#utility.yul\":423:507   */\n  tag_30\n  jumpi\n    /* \"#utility.yul\":479:497   */\n  tag_31\n  tag_25\n  jump\t// in\ntag_31:\n    /* \"#utility.yul\":423:507   */\ntag_30:\n    /* \"#utility.yul\":244:513   */\n  pop\n    /* \"#utility.yul\":193:513   */\n  swap2\n  swap1\n  pop\n  jump\t// out\n    /* \"contracts/Workaround_BasicTypes.sol\":57:1417  contract BasicTypes{... */\ntag_6:\n  dataSize(sub_0)\n  dup1\n  dataOffset(sub_0)\n  0x00\n  codecopy\n  0x00\n  return\nstop\n\nsub_0: assembly {\n        /* \"contracts/Workaround_BasicTypes.sol\":57:1417  contract BasicTypes{... */\n      mstore(0x40, 0x80)\n      callvalue\n      dup1\n      iszero\n      tag_1\n      jumpi\n      0x00\n      dup1\n      revert\n    tag_1:\n      pop\n      jumpi(tag_2, lt(calldatasize, 0x04))\n      shr(0xe0, calldataload(0x00))\n      dup1\n      0x935760e7\n      gt\n      tag_17\n      jumpi\n      dup1\n      0xe492fd84\n      gt\n      tag_18\n      jumpi\n      dup1\n      0xe492fd84\n      eq\n      tag_13\n      jumpi\n      dup1\n      0xef690cc0\n      eq\n      tag_14\n      jumpi\n      dup1\n      0xf102a71d\n      eq\n      tag_15\n      jumpi\n      dup1\n      0xfc979f7b\n      eq\n      tag_16\n      jumpi\n      jump(tag_2)\n    tag_18:\n      dup1\n      0x935760e7\n      eq\n      tag_10\n      jumpi\n      dup1\n      0xe2a4b2af\n      eq\n      tag_11\n      jumpi\n      dup1\n      0xe30081a0\n      eq\n      tag_12\n      jumpi\n      jump(tag_2)\n    tag_17:\n      dup1\n      0x4f86f506\n      gt\n      tag_19\n      jumpi\n      dup1\n      0x4f86f506\n      eq\n      tag_6\n      jumpi\n      dup1\n      0x75eb2ad1\n      eq\n      tag_7\n      jumpi\n      dup1\n      0x7c43b66e\n      eq\n      tag_8\n      jumpi\n      dup1\n      0x82180568\n      eq\n      tag_9\n      jumpi\n      jump(tag_2)\n    tag_19:\n      dup1\n      0x06540f7e\n      eq\n      tag_3\n      jumpi\n      dup1\n      0x2cb777a6\n      eq\n      tag_4\n      jumpi\n      dup1\n      0x336ab504\n      eq\n      tag_5\n      jumpi\n    tag_2:\n      0x00\n      dup1\n      revert\n        /* \"contracts/Workaround_BasicTypes.sol\":146:164  uint public myUint */\n    tag_3:\n      tag_20\n      tag_21\n      jump\t// in\n    tag_20:\n      mload(0x40)\n      tag_22\n      swap2\n      swap1\n      tag_23\n      jump\t// in\n    tag_22:\n      mload(0x40)\n      dup1\n      swap2\n      sub\n      swap1\n      return\n        /* \"contracts/Workaround_BasicTypes.sol\":205:227  int public myInt = -10 */\n    tag_4:\n      tag_24\n      tag_25\n      jump\t// in\n    tag_24:\n      mload(0x40)\n      tag_26\n      swap2\n      swap1\n      tag_27\n      jump\t// in\n    tag_26:\n      mload(0x40)\n      dup1\n      swap2\n      sub\n      swap1\n      return\n        /* \"contracts/Workaround_BasicTypes.sol\":435:479  bytes public myBytesGreeting = \"Hello World\" */\n    tag_5:\n      tag_28\n      tag_29\n      jump\t// in\n    tag_28:\n      mload(0x40)\n      tag_30\n      swap2\n      swap1\n      tag_31\n      jump\t// in\n    tag_30:\n      mload(0x40)\n      dup1\n      swap2\n      sub\n      swap1\n      return\n        /* \"contracts/Workaround_BasicTypes.sol\":985:1170  function compareStrings(string memory _myGreeting2) public  view returns(bool){... */\n    tag_6:\n      tag_32\n      0x04\n      dup1\n      calldatasize\n      sub\n      dup2\n      add\n      swap1\n      tag_33\n      swap2\n      swap1\n      tag_34\n      jump\t// in\n    tag_33:\n      tag_35\n      jump\t// in\n    tag_32:\n      mload(0x40)\n      tag_36\n      swap2\n      swap1\n      tag_37\n      jump\t// in\n    tag_36:\n      mload(0x40)\n      dup1\n      swap2\n      sub\n      swap1\n      return\n        /* \"contracts/Workaround_BasicTypes.sol\":785:901  function getAddressBalance() public view returns(uint) {... */\n    tag_7:\n      tag_38\n      tag_39\n      jump\t// in\n    tag_38:\n      mload(0x40)\n      tag_40\n      swap2\n      swap1\n      tag_23\n      jump\t// in\n    tag_40:\n      mload(0x40)\n      dup1\n      swap2\n      sub\n      swap1\n      return\n        /* \"contracts/Workaround_BasicTypes.sol\":83:101  bool public myboll */\n    tag_8:\n      tag_41\n      tag_42\n      jump\t// in\n    tag_41:\n      mload(0x40)\n      tag_43\n      swap2\n      swap1\n      tag_37\n      jump\t// in\n    tag_43:\n      mload(0x40)\n      dup1\n      swap2\n      sub\n      swap1\n      return\n        /* \"contracts/Workaround_BasicTypes.sol\":486:581  function setMyString (string memory _myGreeting) public {... */\n    tag_9:\n      tag_44\n      0x04\n      dup1\n      calldatasize\n      sub\n      dup2\n      add\n      swap1\n      tag_45\n      swap2\n      swap1\n      tag_34\n      jump\t// in\n    tag_45:\n      tag_46\n      jump\t// in\n    tag_44:\n      stop\n        /* \"contracts/Workaround_BasicTypes.sol\":616:640  address public anAddress */\n    tag_10:\n      tag_47\n      tag_48\n      jump\t// in\n    tag_47:\n      mload(0x40)\n      tag_49\n      swap2\n      swap1\n      tag_50\n      jump\t// in\n    tag_49:\n      mload(0x40)\n      dup1\n      swap2\n      sub\n      swap1\n      return\n        /* \"contracts/Workaround_BasicTypes.sol\":171:198  uint8 public myUint8 = 2**4 */\n    tag_11:\n      tag_51\n      tag_52\n      jump\t// in\n    tag_51:\n      mload(0x40)\n      tag_53\n      swap2\n      swap1\n      tag_54\n      jump\t// in\n    tag_53:\n      mload(0x40)\n      dup1\n      swap2\n      sub\n      swap1\n      return\n        /* \"contracts/Workaround_BasicTypes.sol\":695:779  function setAddress(address _anAdress) public {... */\n    tag_12:\n      tag_55\n      0x04\n      dup1\n      calldatasize\n      sub\n      dup2\n      add\n      swap1\n      tag_56\n      swap2\n      swap1\n      tag_57\n      jump\t// in\n    tag_56:\n      tag_58\n      jump\t// in\n    tag_55:\n      stop\n        /* \"contracts/Workaround_BasicTypes.sol\":1181:1254  function setMyUint(uint _myUint) public {... */\n    tag_13:\n      tag_59\n      0x04\n      dup1\n      calldatasize\n      sub\n      dup2\n      add\n      swap1\n      tag_60\n      swap2\n      swap1\n      tag_61\n      jump\t// in\n    tag_60:\n      tag_62\n      jump\t// in\n    tag_59:\n      stop\n        /* \"contracts/Workaround_BasicTypes.sol\":277:315  string public greeting = \"Hello World\" */\n    tag_14:\n      tag_63\n      tag_64\n      jump\t// in\n    tag_63:\n      mload(0x40)\n      tag_65\n      swap2\n      swap1\n      tag_66\n      jump\t// in\n    tag_65:\n      mload(0x40)\n      dup1\n      swap2\n      sub\n      swap1\n      return\n        /* \"contracts/Workaround_BasicTypes.sol\":1260:1315  function incrementInt() public {... */\n    tag_15:\n      tag_67\n      tag_68\n      jump\t// in\n    tag_67:\n      stop\n        /* \"contracts/Workaround_BasicTypes.sol\":1321:1412  function decreementUint() public {... */\n    tag_16:\n      tag_69\n      tag_70\n      jump\t// in\n    tag_69:\n      stop\n        /* \"contracts/Workaround_BasicTypes.sol\":146:164  uint public myUint */\n    tag_21:\n      sload(0x01)\n      dup2\n      jump\t// out\n        /* \"contracts/Workaround_BasicTypes.sol\":205:227  int public myInt = -10 */\n    tag_25:\n      sload(0x03)\n      dup2\n      jump\t// out\n        /* \"contracts/Workaround_BasicTypes.sol\":435:479  bytes public myBytesGreeting = \"Hello World\" */\n    tag_29:\n      0x05\n      dup1\n      sload\n      tag_71\n      swap1\n      tag_72\n      jump\t// in\n    tag_71:\n      dup1\n      0x1f\n      add\n      0x20\n      dup1\n      swap2\n      div\n      mul\n      0x20\n      add\n      mload(0x40)\n      swap1\n      dup2\n      add\n      0x40\n      mstore\n      dup1\n      swap3\n      swap2\n      swap1\n      dup2\n      dup2\n      mstore\n      0x20\n      add\n      dup3\n      dup1\n      sload\n      tag_73\n      swap1\n      tag_72\n      jump\t// in\n    tag_73:\n      dup1\n      iszero\n      tag_74\n      jumpi\n      dup1\n      0x1f\n      lt\n      tag_75\n      jumpi\n      0x0100\n      dup1\n      dup4\n      sload\n      div\n      mul\n      dup4\n      mstore\n      swap2\n      0x20\n      add\n      swap2\n      jump(tag_74)\n    tag_75:\n      dup3\n      add\n      swap2\n      swap1\n      0x00\n      mstore\n      keccak256(0x00, 0x20)\n      swap1\n    tag_76:\n      dup2\n      sload\n      dup2\n      mstore\n      swap1\n      0x01\n      add\n      swap1\n      0x20\n      add\n      dup1\n      dup4\n      gt\n      tag_76\n      jumpi\n      dup3\n      swap1\n      sub\n      0x1f\n      and\n      dup3\n      add\n      swap2\n    tag_74:\n      pop\n      pop\n      pop\n      pop\n      pop\n      dup2\n      jump\t// out\n        /* \"contracts/Workaround_BasicTypes.sol\":985:1170  function compareStrings(string memory _myGreeting2) public  view returns(bool){... */\n    tag_35:\n        /* \"contracts/Workaround_BasicTypes.sol\":1058:1062  bool */\n      0x00\n        /* \"contracts/Workaround_BasicTypes.sol\":1148:1160  _myGreeting2 */\n      dup2\n        /* \"contracts/Workaround_BasicTypes.sol\":1131:1161  abi.encodePacked(_myGreeting2) */\n      add(0x20, mload(0x40))\n      tag_78\n      swap2\n      swap1\n      tag_79\n      jump\t// in\n    tag_78:\n      mload(0x40)\n      0x20\n      dup2\n      dup4\n      sub\n      sub\n      dup2\n      mstore\n      swap1\n      0x40\n      mstore\n        /* \"contracts/Workaround_BasicTypes.sol\":1121:1162  keccak256(abi.encodePacked(_myGreeting2)) */\n      dup1\n      mload\n      swap1\n      0x20\n      add\n      keccak256\n        /* \"contracts/Workaround_BasicTypes.sol\":1107:1115  greeting */\n      0x04\n        /* \"contracts/Workaround_BasicTypes.sol\":1090:1116  abi.encodePacked(greeting) */\n      add(0x20, mload(0x40))\n      tag_80\n      swap2\n      swap1\n      tag_81\n      jump\t// in\n    tag_80:\n      mload(0x40)\n      0x20\n      dup2\n      dup4\n      sub\n      sub\n      dup2\n      mstore\n      swap1\n      0x40\n      mstore\n        /* \"contracts/Workaround_BasicTypes.sol\":1080:1117  keccak256(abi.encodePacked(greeting)) */\n      dup1\n      mload\n      swap1\n      0x20\n      add\n      keccak256\n        /* \"contracts/Workaround_BasicTypes.sol\":1080:1162  keccak256(abi.encodePacked(greeting)) == keccak256(abi.encodePacked(_myGreeting2)) */\n      eq\n        /* \"contracts/Workaround_BasicTypes.sol\":1073:1162  return keccak256(abi.encodePacked(greeting)) == keccak256(abi.encodePacked(_myGreeting2)) */\n      swap1\n      pop\n        /* \"contracts/Workaround_BasicTypes.sol\":985:1170  function compareStrings(string memory _myGreeting2) public  view returns(bool){... */\n      swap2\n      swap1\n      pop\n      jump\t// out\n        /* \"contracts/Workaround_BasicTypes.sol\":785:901  function getAddressBalance() public view returns(uint) {... */\n    tag_39:\n        /* \"contracts/Workaround_BasicTypes.sol\":834:838  uint */\n      0x00\n        /* \"contracts/Workaround_BasicTypes.sol\":875:894  1000000000000000000 */\n      0x0de0b6b3a7640000\n        /* \"contracts/Workaround_BasicTypes.sol\":857:866  anAddress */\n      0x06\n      0x00\n      swap1\n      sload\n      swap1\n      0x0100\n      exp\n      swap1\n      div\n      0xffffffffffffffffffffffffffffffffffffffff\n      and\n        /* \"contracts/Workaround_BasicTypes.sol\":857:874  anAddress.balance */\n      0xffffffffffffffffffffffffffffffffffffffff\n      and\n      balance\n        /* \"contracts/Workaround_BasicTypes.sol\":857:894  anAddress.balance/1000000000000000000 */\n      tag_83\n      swap2\n      swap1\n      tag_84\n      jump\t// in\n    tag_83:\n        /* \"contracts/Workaround_BasicTypes.sol\":850:894  return anAddress.balance/1000000000000000000 */\n      swap1\n      pop\n        /* \"contracts/Workaround_BasicTypes.sol\":785:901  function getAddressBalance() public view returns(uint) {... */\n      swap1\n      jump\t// out\n        /* \"contracts/Workaround_BasicTypes.sol\":83:101  bool public myboll */\n    tag_42:\n      0x00\n      dup1\n      sload\n      swap1\n      0x0100\n      exp\n      swap1\n      div\n      0xff\n      and\n      dup2\n      jump\t// out\n        /* \"contracts/Workaround_BasicTypes.sol\":486:581  function setMyString (string memory _myGreeting) public {... */\n    tag_46:\n        /* \"contracts/Workaround_BasicTypes.sol\":563:574  _myGreeting */\n      dup1\n        /* \"contracts/Workaround_BasicTypes.sol\":552:560  greeting */\n      0x04\n        /* \"contracts/Workaround_BasicTypes.sol\":552:574  greeting = _myGreeting */\n      swap1\n      dup1\n      mload\n      swap1\n      0x20\n      add\n      swap1\n      tag_86\n      swap3\n      swap2\n      swap1\n      tag_87\n      jump\t// in\n    tag_86:\n      pop\n        /* \"contracts/Workaround_BasicTypes.sol\":486:581  function setMyString (string memory _myGreeting) public {... */\n      pop\n      jump\t// out\n        /* \"contracts/Workaround_BasicTypes.sol\":616:640  address public anAddress */\n    tag_48:\n      0x06\n      0x00\n      swap1\n      sload\n      swap1\n      0x0100\n      exp\n      swap1\n      div\n      0xffffffffffffffffffffffffffffffffffffffff\n      and\n      dup2\n      jump\t// out\n        /* \"contracts/Workaround_BasicTypes.sol\":171:198  uint8 public myUint8 = 2**4 */\n    tag_52:\n      0x02\n      0x00\n      swap1\n      sload\n      swap1\n      0x0100\n      exp\n      swap1\n      div\n      0xff\n      and\n      dup2\n      jump\t// out\n        /* \"contracts/Workaround_BasicTypes.sol\":695:779  function setAddress(address _anAdress) public {... */\n    tag_58:\n        /* \"contracts/Workaround_BasicTypes.sol\":763:772  _anAdress */\n      dup1\n        /* \"contracts/Workaround_BasicTypes.sol\":751:760  anAddress */\n      0x06\n      0x00\n        /* \"contracts/Workaround_BasicTypes.sol\":751:772  anAddress = _anAdress */\n      0x0100\n      exp\n      dup2\n      sload\n      dup2\n      0xffffffffffffffffffffffffffffffffffffffff\n      mul\n      not\n      and\n      swap1\n      dup4\n      0xffffffffffffffffffffffffffffffffffffffff\n      and\n      mul\n      or\n      swap1\n      sstore\n      pop\n        /* \"contracts/Workaround_BasicTypes.sol\":695:779  function setAddress(address _anAdress) public {... */\n      pop\n      jump\t// out\n        /* \"contracts/Workaround_BasicTypes.sol\":1181:1254  function setMyUint(uint _myUint) public {... */\n    tag_62:\n        /* \"contracts/Workaround_BasicTypes.sol\":1240:1247  _myUint */\n      dup1\n        /* \"contracts/Workaround_BasicTypes.sol\":1231:1237  myUint */\n      0x01\n        /* \"contracts/Workaround_BasicTypes.sol\":1231:1247  myUint = _myUint */\n      dup2\n      swap1\n      sstore\n      pop\n        /* \"contracts/Workaround_BasicTypes.sol\":1181:1254  function setMyUint(uint _myUint) public {... */\n      pop\n      jump\t// out\n        /* \"contracts/Workaround_BasicTypes.sol\":277:315  string public greeting = \"Hello World\" */\n    tag_64:\n      0x04\n      dup1\n      sload\n      tag_90\n      swap1\n      tag_72\n      jump\t// in\n    tag_90:\n      dup1\n      0x1f\n      add\n      0x20\n      dup1\n      swap2\n      div\n      mul\n      0x20\n      add\n      mload(0x40)\n      swap1\n      dup2\n      add\n      0x40\n      mstore\n      dup1\n      swap3\n      swap2\n      swap1\n      dup2\n      dup2\n      mstore\n      0x20\n      add\n      dup3\n      dup1\n      sload\n      tag_91\n      swap1\n      tag_72\n      jump\t// in\n    tag_91:\n      dup1\n      iszero\n      tag_92\n      jumpi\n      dup1\n      0x1f\n      lt\n      tag_93\n      jumpi\n      0x0100\n      dup1\n      dup4\n      sload\n      div\n      mul\n      dup4\n      mstore\n      swap2\n      0x20\n      add\n      swap2\n      jump(tag_92)\n    tag_93:\n      dup3\n      add\n      swap2\n      swap1\n      0x00\n      mstore\n      keccak256(0x00, 0x20)\n      swap1\n    tag_94:\n      dup2\n      sload\n      dup2\n      mstore\n      swap1\n      0x01\n      add\n      swap1\n      0x20\n      add\n      dup1\n      dup4\n      gt\n      tag_94\n      jumpi\n      dup3\n      swap1\n      sub\n      0x1f\n      and\n      dup3\n      add\n      swap2\n    tag_92:\n      pop\n      pop\n      pop\n      pop\n      pop\n      dup2\n      jump\t// out\n        /* \"contracts/Workaround_BasicTypes.sol\":1260:1315  function incrementInt() public {... */\n    tag_68:\n        /* \"contracts/Workaround_BasicTypes.sol\":1301:1306  myInt */\n      0x03\n      0x00\n        /* \"contracts/Workaround_BasicTypes.sol\":1301:1308  myInt++ */\n      dup2\n      sload\n      dup1\n      swap3\n      swap2\n      swap1\n      tag_96\n      swap1\n      tag_97\n      jump\t// in\n    tag_96:\n      swap2\n      swap1\n      pop\n      sstore\n      pop\n        /* \"contracts/Workaround_BasicTypes.sol\":1260:1315  function incrementInt() public {... */\n      jump\t// out\n        /* \"contracts/Workaround_BasicTypes.sol\":1321:1412  function decreementUint() public {... */\n    tag_70:\n        /* \"contracts/Workaround_BasicTypes.sol\":1387:1393  myUint */\n      0x01\n      0x00\n        /* \"contracts/Workaround_BasicTypes.sol\":1387:1395  myUint-- */\n      dup2\n      sload\n      dup1\n      swap3\n      swap2\n      swap1\n      0x01\n      swap1\n      sub\n      swap2\n      swap1\n      pop\n      sstore\n      pop\n        /* \"contracts/Workaround_BasicTypes.sol\":1321:1412  function decreementUint() public {... */\n      jump\t// out\n    tag_87:\n      dup3\n      dup1\n      sload\n      tag_99\n      swap1\n      tag_72\n      jump\t// in\n    tag_99:\n      swap1\n      0x00\n      mstore\n      keccak256(0x00, 0x20)\n      swap1\n      0x1f\n      add\n      0x20\n      swap1\n      div\n      dup2\n      add\n      swap3\n      dup3\n      tag_101\n      jumpi\n      0x00\n      dup6\n      sstore\n      jump(tag_100)\n    tag_101:\n      dup3\n      0x1f\n      lt\n      tag_102\n      jumpi\n      dup1\n      mload\n      not(0xff)\n      and\n      dup4\n      dup1\n      add\n      or\n      dup6\n      sstore\n      jump(tag_100)\n    tag_102:\n      dup3\n      dup1\n      add\n      0x01\n      add\n      dup6\n      sstore\n      dup3\n      iszero\n      tag_100\n      jumpi\n      swap2\n      dup3\n      add\n    tag_103:\n      dup3\n      dup2\n      gt\n      iszero\n      tag_104\n      jumpi\n      dup3\n      mload\n      dup3\n      sstore\n      swap2\n      0x20\n      add\n      swap2\n      swap1\n      0x01\n      add\n      swap1\n      jump(tag_103)\n    tag_104:\n    tag_100:\n      pop\n      swap1\n      pop\n      tag_105\n      swap2\n      swap1\n      tag_106\n      jump\t// in\n    tag_105:\n      pop\n      swap1\n      jump\t// out\n    tag_106:\n    tag_107:\n      dup1\n      dup3\n      gt\n      iszero\n      tag_108\n      jumpi\n      0x00\n      dup2\n      0x00\n      swap1\n      sstore\n      pop\n      0x01\n      add\n      jump(tag_107)\n    tag_108:\n      pop\n      swap1\n      jump\t// out\n        /* \"#utility.yul\":7:84   */\n    tag_109:\n        /* \"#utility.yul\":44:51   */\n      0x00\n        /* \"#utility.yul\":73:78   */\n      dup2\n        /* \"#utility.yul\":62:78   */\n      swap1\n      pop\n        /* \"#utility.yul\":7:84   */\n      swap2\n      swap1\n      pop\n      jump\t// out\n        /* \"#utility.yul\":90:208   */\n    tag_110:\n        /* \"#utility.yul\":177:201   */\n      tag_154\n        /* \"#utility.yul\":195:200   */\n      dup2\n        /* \"#utility.yul\":177:201   */\n      tag_109\n      jump\t// in\n    tag_154:\n        /* \"#utility.yul\":172:175   */\n      dup3\n        /* \"#utility.yul\":165:202   */\n      mstore\n        /* \"#utility.yul\":90:208   */\n      pop\n      pop\n      jump\t// out\n        /* \"#utility.yul\":214:436   */\n    tag_23:\n        /* \"#utility.yul\":307:311   */\n      0x00\n        /* \"#utility.yul\":345:347   */\n      0x20\n        /* \"#utility.yul\":334:343   */\n      dup3\n        /* \"#utility.yul\":330:348   */\n      add\n        /* \"#utility.yul\":322:348   */\n      swap1\n      pop\n        /* \"#utility.yul\":358:429   */\n      tag_156\n        /* \"#utility.yul\":426:427   */\n      0x00\n        /* \"#utility.yul\":415:424   */\n      dup4\n        /* \"#utility.yul\":411:428   */\n      add\n        /* \"#utility.yul\":402:408   */\n      dup5\n        /* \"#utility.yul\":358:429   */\n      tag_110\n      jump\t// in\n    tag_156:\n        /* \"#utility.yul\":214:436   */\n      swap3\n      swap2\n      pop\n      pop\n      jump\t// out\n        /* \"#utility.yul\":442:518   */\n    tag_111:\n        /* \"#utility.yul\":478:485   */\n      0x00\n        /* \"#utility.yul\":507:512   */\n      dup2\n        /* \"#utility.yul\":496:512   */\n      swap1\n      pop\n        /* \"#utility.yul\":442:518   */\n      swap2\n      swap1\n      pop\n      jump\t// out\n        /* \"#utility.yul\":524:639   */\n    tag_112:\n        /* \"#utility.yul\":609:632   */\n      tag_159\n        /* \"#utility.yul\":626:631   */\n      dup2\n        /* \"#utility.yul\":609:632   */\n      tag_111\n      jump\t// in\n    tag_159:\n        /* \"#utility.yul\":604:607   */\n      dup3\n        /* \"#utility.yul\":597:633   */\n      mstore\n        /* \"#utility.yul\":524:639   */\n      pop\n      pop\n      jump\t// out\n        /* \"#utility.yul\":645:863   */\n    tag_27:\n        /* \"#utility.yul\":736:740   */\n      0x00\n        /* \"#utility.yul\":774:776   */\n      0x20\n        /* \"#utility.yul\":763:772   */\n      dup3\n        /* \"#utility.yul\":759:777   */\n      add\n        /* \"#utility.yul\":751:777   */\n      swap1\n      pop\n        /* \"#utility.yul\":787:856   */\n      tag_161\n        /* \"#utility.yul\":853:854   */\n      0x00\n        /* \"#utility.yul\":842:851   */\n      dup4\n        /* \"#utility.yul\":838:855   */\n      add\n        /* \"#utility.yul\":829:835   */\n      dup5\n        /* \"#utility.yul\":787:856   */\n      tag_112\n      jump\t// in\n    tag_161:\n        /* \"#utility.yul\":645:863   */\n      swap3\n      swap2\n      pop\n      pop\n      jump\t// out\n        /* \"#utility.yul\":869:967   */\n    tag_113:\n        /* \"#utility.yul\":920:926   */\n      0x00\n        /* \"#utility.yul\":954:959   */\n      dup2\n        /* \"#utility.yul\":948:960   */\n      mload\n        /* \"#utility.yul\":938:960   */\n      swap1\n      pop\n        /* \"#utility.yul\":869:967   */\n      swap2\n      swap1\n      pop\n      jump\t// out\n        /* \"#utility.yul\":973:1141   */\n    tag_114:\n        /* \"#utility.yul\":1056:1067   */\n      0x00\n        /* \"#utility.yul\":1090:1096   */\n      dup3\n        /* \"#utility.yul\":1085:1088   */\n      dup3\n        /* \"#utility.yul\":1078:1097   */\n      mstore\n        /* \"#utility.yul\":1130:1134   */\n      0x20\n        /* \"#utility.yul\":1125:1128   */\n      dup3\n        /* \"#utility.yul\":1121:1135   */\n      add\n        /* \"#utility.yul\":1106:1135   */\n      swap1\n      pop\n        /* \"#utility.yul\":973:1141   */\n      swap3\n      swap2\n      pop\n      pop\n      jump\t// out\n        /* \"#utility.yul\":1147:1454   */\n    tag_115:\n        /* \"#utility.yul\":1215:1216   */\n      0x00\n        /* \"#utility.yul\":1225:1338   */\n    tag_165:\n        /* \"#utility.yul\":1239:1245   */\n      dup4\n        /* \"#utility.yul\":1236:1237   */\n      dup2\n        /* \"#utility.yul\":1233:1246   */\n      lt\n        /* \"#utility.yul\":1225:1338   */\n      iszero\n      tag_167\n      jumpi\n        /* \"#utility.yul\":1324:1325   */\n      dup1\n        /* \"#utility.yul\":1319:1322   */\n      dup3\n        /* \"#utility.yul\":1315:1326   */\n      add\n        /* \"#utility.yul\":1309:1327   */\n      mload\n        /* \"#utility.yul\":1305:1306   */\n      dup2\n        /* \"#utility.yul\":1300:1303   */\n      dup5\n        /* \"#utility.yul\":1296:1307   */\n      add\n        /* \"#utility.yul\":1289:1328   */\n      mstore\n        /* \"#utility.yul\":1261:1263   */\n      0x20\n        /* \"#utility.yul\":1258:1259   */\n      dup2\n        /* \"#utility.yul\":1254:1264   */\n      add\n        /* \"#utility.yul\":1249:1264   */\n      swap1\n      pop\n        /* \"#utility.yul\":1225:1338   */\n      jump(tag_165)\n    tag_167:\n        /* \"#utility.yul\":1356:1362   */\n      dup4\n        /* \"#utility.yul\":1353:1354   */\n      dup2\n        /* \"#utility.yul\":1350:1363   */\n      gt\n        /* \"#utility.yul\":1347:1448   */\n      iszero\n      tag_168\n      jumpi\n        /* \"#utility.yul\":1436:1437   */\n      0x00\n        /* \"#utility.yul\":1427:1433   */\n      dup5\n        /* \"#utility.yul\":1422:1425   */\n      dup5\n        /* \"#utility.yul\":1418:1434   */\n      add\n        /* \"#utility.yul\":1411:1438   */\n      mstore\n        /* \"#utility.yul\":1347:1448   */\n    tag_168:\n        /* \"#utility.yul\":1196:1454   */\n      pop\n        /* \"#utility.yul\":1147:1454   */\n      pop\n      pop\n      pop\n      jump\t// out\n        /* \"#utility.yul\":1460:1562   */\n    tag_116:\n        /* \"#utility.yul\":1501:1507   */\n      0x00\n        /* \"#utility.yul\":1552:1554   */\n      0x1f\n        /* \"#utility.yul\":1548:1555   */\n      not\n        /* \"#utility.yul\":1543:1545   */\n      0x1f\n        /* \"#utility.yul\":1536:1541   */\n      dup4\n        /* \"#utility.yul\":1532:1546   */\n      add\n        /* \"#utility.yul\":1528:1556   */\n      and\n        /* \"#utility.yul\":1518:1556   */\n      swap1\n      pop\n        /* \"#utility.yul\":1460:1562   */\n      swap2\n      swap1\n      pop\n      jump\t// out\n        /* \"#utility.yul\":1568:1928   */\n    tag_117:\n        /* \"#utility.yul\":1654:1657   */\n      0x00\n        /* \"#utility.yul\":1682:1720   */\n      tag_171\n        /* \"#utility.yul\":1714:1719   */\n      dup3\n        /* \"#utility.yul\":1682:1720   */\n      tag_113\n      jump\t// in\n    tag_171:\n        /* \"#utility.yul\":1736:1806   */\n      tag_172\n        /* \"#utility.yul\":1799:1805   */\n      dup2\n        /* \"#utility.yul\":1794:1797   */\n      dup6\n        /* \"#utility.yul\":1736:1806   */\n      tag_114\n      jump\t// in\n    tag_172:\n        /* \"#utility.yul\":1729:1806   */\n      swap4\n      pop\n        /* \"#utility.yul\":1815:1867   */\n      tag_173\n        /* \"#utility.yul\":1860:1866   */\n      dup2\n        /* \"#utility.yul\":1855:1858   */\n      dup6\n        /* \"#utility.yul\":1848:1852   */\n      0x20\n        /* \"#utility.yul\":1841:1846   */\n      dup7\n        /* \"#utility.yul\":1837:1853   */\n      add\n        /* \"#utility.yul\":1815:1867   */\n      tag_115\n      jump\t// in\n    tag_173:\n        /* \"#utility.yul\":1892:1921   */\n      tag_174\n        /* \"#utility.yul\":1914:1920   */\n      dup2\n        /* \"#utility.yul\":1892:1921   */\n      tag_116\n      jump\t// in\n    tag_174:\n        /* \"#utility.yul\":1887:1890   */\n      dup5\n        /* \"#utility.yul\":1883:1922   */\n      add\n        /* \"#utility.yul\":1876:1922   */\n      swap2\n      pop\n        /* \"#utility.yul\":1658:1928   */\n      pop\n        /* \"#utility.yul\":1568:1928   */\n      swap3\n      swap2\n      pop\n      pop\n      jump\t// out\n        /* \"#utility.yul\":1934:2243   */\n    tag_31:\n        /* \"#utility.yul\":2045:2049   */\n      0x00\n        /* \"#utility.yul\":2083:2085   */\n      0x20\n        /* \"#utility.yul\":2072:2081   */\n      dup3\n        /* \"#utility.yul\":2068:2086   */\n      add\n        /* \"#utility.yul\":2060:2086   */\n      swap1\n      pop\n        /* \"#utility.yul\":2132:2141   */\n      dup2\n        /* \"#utility.yul\":2126:2130   */\n      dup2\n        /* \"#utility.yul\":2122:2142   */\n      sub\n        /* \"#utility.yul\":2118:2119   */\n      0x00\n        /* \"#utility.yul\":2107:2116   */\n      dup4\n        /* \"#utility.yul\":2103:2120   */\n      add\n        /* \"#utility.yul\":2096:2143   */\n      mstore\n        /* \"#utility.yul\":2160:2236   */\n      tag_176\n        /* \"#utility.yul\":2231:2235   */\n      dup2\n        /* \"#utility.yul\":2222:2228   */\n      dup5\n        /* \"#utility.yul\":2160:2236   */\n      tag_117\n      jump\t// in\n    tag_176:\n        /* \"#utility.yul\":2152:2236   */\n      swap1\n      pop\n        /* \"#utility.yul\":1934:2243   */\n      swap3\n      swap2\n      pop\n      pop\n      jump\t// out\n        /* \"#utility.yul\":2249:2324   */\n    tag_118:\n        /* \"#utility.yul\":2282:2288   */\n      0x00\n        /* \"#utility.yul\":2315:2317   */\n      0x40\n        /* \"#utility.yul\":2309:2318   */\n      mload\n        /* \"#utility.yul\":2299:2318   */\n      swap1\n      pop\n        /* \"#utility.yul\":2249:2324   */\n      swap1\n      jump\t// out\n        /* \"#utility.yul\":2330:2447   */\n    tag_119:\n        /* \"#utility.yul\":2439:2440   */\n      0x00\n        /* \"#utility.yul\":2436:2437   */\n      dup1\n        /* \"#utility.yul\":2429:2441   */\n      revert\n        /* \"#utility.yul\":2453:2570   */\n    tag_120:\n        /* \"#utility.yul\":2562:2563   */\n      0x00\n        /* \"#utility.yul\":2559:2560   */\n      dup1\n        /* \"#utility.yul\":2552:2564   */\n      revert\n        /* \"#utility.yul\":2576:2693   */\n    tag_121:\n        /* \"#utility.yul\":2685:2686   */\n      0x00\n        /* \"#utility.yul\":2682:2683   */\n      dup1\n        /* \"#utility.yul\":2675:2687   */\n      revert\n        /* \"#utility.yul\":2699:2816   */\n    tag_122:\n        /* \"#utility.yul\":2808:2809   */\n      0x00\n        /* \"#utility.yul\":2805:2806   */\n      dup1\n        /* \"#utility.yul\":2798:2810   */\n      revert\n        /* \"#utility.yul\":2822:3002   */\n    tag_123:\n        /* \"#utility.yul\":2870:2947   */\n      0x4e487b7100000000000000000000000000000000000000000000000000000000\n        /* \"#utility.yul\":2867:2868   */\n      0x00\n        /* \"#utility.yul\":2860:2948   */\n      mstore\n        /* \"#utility.yul\":2967:2971   */\n      0x41\n        /* \"#utility.yul\":2964:2965   */\n      0x04\n        /* \"#utility.yul\":2957:2972   */\n      mstore\n        /* \"#utility.yul\":2991:2995   */\n      0x24\n        /* \"#utility.yul\":2988:2989   */\n      0x00\n        /* \"#utility.yul\":2981:2996   */\n      revert\n        /* \"#utility.yul\":3008:3289   */\n    tag_124:\n        /* \"#utility.yul\":3091:3118   */\n      tag_184\n        /* \"#utility.yul\":3113:3117   */\n      dup3\n        /* \"#utility.yul\":3091:3118   */\n      tag_116\n      jump\t// in\n    tag_184:\n        /* \"#utility.yul\":3083:3089   */\n      dup2\n        /* \"#utility.yul\":3079:3119   */\n      add\n        /* \"#utility.yul\":3221:3227   */\n      dup2\n        /* \"#utility.yul\":3209:3219   */\n      dup2\n        /* \"#utility.yul\":3206:3228   */\n      lt\n        /* \"#utility.yul\":3185:3203   */\n      0xffffffffffffffff\n        /* \"#utility.yul\":3173:3183   */\n      dup3\n        /* \"#utility.yul\":3170:3204   */\n      gt\n        /* \"#utility.yul\":3167:3229   */\n      or\n        /* \"#utility.yul\":3164:3252   */\n      iszero\n      tag_185\n      jumpi\n        /* \"#utility.yul\":3232:3250   */\n      tag_186\n      tag_123\n      jump\t// in\n    tag_186:\n        /* \"#utility.yul\":3164:3252   */\n    tag_185:\n        /* \"#utility.yul\":3272:3282   */\n      dup1\n        /* \"#utility.yul\":3268:3270   */\n      0x40\n        /* \"#utility.yul\":3261:3283   */\n      mstore\n        /* \"#utility.yul\":3051:3289   */\n      pop\n        /* \"#utility.yul\":3008:3289   */\n      pop\n      pop\n      jump\t// out\n        /* \"#utility.yul\":3295:3424   */\n    tag_125:\n        /* \"#utility.yul\":3329:3335   */\n      0x00\n        /* \"#utility.yul\":3356:3376   */\n      tag_188\n      tag_118\n      jump\t// in\n    tag_188:\n        /* \"#utility.yul\":3346:3376   */\n      swap1\n      pop\n        /* \"#utility.yul\":3385:3418   */\n      tag_189\n        /* \"#utility.yul\":3413:3417   */\n      dup3\n        /* \"#utility.yul\":3405:3411   */\n      dup3\n        /* \"#utility.yul\":3385:3418   */\n      tag_124\n      jump\t// in\n    tag_189:\n        /* \"#utility.yul\":3295:3424   */\n      swap2\n      swap1\n      pop\n      jump\t// out\n        /* \"#utility.yul\":3430:3738   */\n    tag_126:\n        /* \"#utility.yul\":3492:3496   */\n      0x00\n        /* \"#utility.yul\":3582:3600   */\n      0xffffffffffffffff\n        /* \"#utility.yul\":3574:3580   */\n      dup3\n        /* \"#utility.yul\":3571:3601   */\n      gt\n        /* \"#utility.yul\":3568:3624   */\n      iszero\n      tag_191\n      jumpi\n        /* \"#utility.yul\":3604:3622   */\n      tag_192\n      tag_123\n      jump\t// in\n    tag_192:\n        /* \"#utility.yul\":3568:3624   */\n    tag_191:\n        /* \"#utility.yul\":3642:3671   */\n      tag_193\n        /* \"#utility.yul\":3664:3670   */\n      dup3\n        /* \"#utility.yul\":3642:3671   */\n      tag_116\n      jump\t// in\n    tag_193:\n        /* \"#utility.yul\":3634:3671   */\n      swap1\n      pop\n        /* \"#utility.yul\":3726:3730   */\n      0x20\n        /* \"#utility.yul\":3720:3724   */\n      dup2\n        /* \"#utility.yul\":3716:3731   */\n      add\n        /* \"#utility.yul\":3708:3731   */\n      swap1\n      pop\n        /* \"#utility.yul\":3430:3738   */\n      swap2\n      swap1\n      pop\n      jump\t// out\n        /* \"#utility.yul\":3744:3898   */\n    tag_127:\n        /* \"#utility.yul\":3828:3834   */\n      dup3\n        /* \"#utility.yul\":3823:3826   */\n      dup2\n        /* \"#utility.yul\":3818:3821   */\n      dup4\n        /* \"#utility.yul\":3805:3835   */\n      calldatacopy\n        /* \"#utility.yul\":3890:3891   */\n      0x00\n        /* \"#utility.yul\":3881:3887   */\n      dup4\n        /* \"#utility.yul\":3876:3879   */\n      dup4\n        /* \"#utility.yul\":3872:3888   */\n      add\n        /* \"#utility.yul\":3865:3892   */\n      mstore\n        /* \"#utility.yul\":3744:3898   */\n      pop\n      pop\n      pop\n      jump\t// out\n        /* \"#utility.yul\":3904:4316   */\n    tag_128:\n        /* \"#utility.yul\":3982:3987   */\n      0x00\n        /* \"#utility.yul\":4007:4073   */\n      tag_196\n        /* \"#utility.yul\":4023:4072   */\n      tag_197\n        /* \"#utility.yul\":4065:4071   */\n      dup5\n        /* \"#utility.yul\":4023:4072   */\n      tag_126\n      jump\t// in\n    tag_197:\n        /* \"#utility.yul\":4007:4073   */\n      tag_125\n      jump\t// in\n    tag_196:\n        /* \"#utility.yul\":3998:4073   */\n      swap1\n      pop\n        /* \"#utility.yul\":4096:4102   */\n      dup3\n        /* \"#utility.yul\":4089:4094   */\n      dup2\n        /* \"#utility.yul\":4082:4103   */\n      mstore\n        /* \"#utility.yul\":4134:4138   */\n      0x20\n        /* \"#utility.yul\":4127:4132   */\n      dup2\n        /* \"#utility.yul\":4123:4139   */\n      add\n        /* \"#utility.yul\":4172:4175   */\n      dup5\n        /* \"#utility.yul\":4163:4169   */\n      dup5\n        /* \"#utility.yul\":4158:4161   */\n      dup5\n        /* \"#utility.yul\":4154:4170   */\n      add\n        /* \"#utility.yul\":4151:4176   */\n      gt\n        /* \"#utility.yul\":4148:4260   */\n      iszero\n      tag_198\n      jumpi\n        /* \"#utility.yul\":4179:4258   */\n      tag_199\n      tag_122\n      jump\t// in\n    tag_199:\n        /* \"#utility.yul\":4148:4260   */\n    tag_198:\n        /* \"#utility.yul\":4269:4310   */\n      tag_200\n        /* \"#utility.yul\":4303:4309   */\n      dup5\n        /* \"#utility.yul\":4298:4301   */\n      dup3\n        /* \"#utility.yul\":4293:4296   */\n      dup6\n        /* \"#utility.yul\":4269:4310   */\n      tag_127\n      jump\t// in\n    tag_200:\n        /* \"#utility.yul\":3988:4316   */\n      pop\n        /* \"#utility.yul\":3904:4316   */\n      swap4\n      swap3\n      pop\n      pop\n      pop\n      jump\t// out\n        /* \"#utility.yul\":4336:4676   */\n    tag_129:\n        /* \"#utility.yul\":4392:4397   */\n      0x00\n        /* \"#utility.yul\":4441:4444   */\n      dup3\n        /* \"#utility.yul\":4434:4438   */\n      0x1f\n        /* \"#utility.yul\":4426:4432   */\n      dup4\n        /* \"#utility.yul\":4422:4439   */\n      add\n        /* \"#utility.yul\":4418:4445   */\n      slt\n        /* \"#utility.yul\":4408:4530   */\n      tag_202\n      jumpi\n        /* \"#utility.yul\":4449:4528   */\n      tag_203\n      tag_121\n      jump\t// in\n    tag_203:\n        /* \"#utility.yul\":4408:4530   */\n    tag_202:\n        /* \"#utility.yul\":4566:4572   */\n      dup2\n        /* \"#utility.yul\":4553:4573   */\n      calldataload\n        /* \"#utility.yul\":4591:4670   */\n      tag_204\n        /* \"#utility.yul\":4666:4669   */\n      dup5\n        /* \"#utility.yul\":4658:4664   */\n      dup3\n        /* \"#utility.yul\":4651:4655   */\n      0x20\n        /* \"#utility.yul\":4643:4649   */\n      dup7\n        /* \"#utility.yul\":4639:4656   */\n      add\n        /* \"#utility.yul\":4591:4670   */\n      tag_128\n      jump\t// in\n    tag_204:\n        /* \"#utility.yul\":4582:4670   */\n      swap2\n      pop\n        /* \"#utility.yul\":4398:4676   */\n      pop\n        /* \"#utility.yul\":4336:4676   */\n      swap3\n      swap2\n      pop\n      pop\n      jump\t// out\n        /* \"#utility.yul\":4682:5191   */\n    tag_34:\n        /* \"#utility.yul\":4751:4757   */\n      0x00\n        /* \"#utility.yul\":4800:4802   */\n      0x20\n        /* \"#utility.yul\":4788:4797   */\n      dup3\n        /* \"#utility.yul\":4779:4786   */\n      dup5\n        /* \"#utility.yul\":4775:4798   */\n      sub\n        /* \"#utility.yul\":4771:4803   */\n      slt\n        /* \"#utility.yul\":4768:4887   */\n      iszero\n      tag_206\n      jumpi\n        /* \"#utility.yul\":4806:4885   */\n      tag_207\n      tag_119\n      jump\t// in\n    tag_207:\n        /* \"#utility.yul\":4768:4887   */\n    tag_206:\n        /* \"#utility.yul\":4954:4955   */\n      0x00\n        /* \"#utility.yul\":4943:4952   */\n      dup3\n        /* \"#utility.yul\":4939:4956   */\n      add\n        /* \"#utility.yul\":4926:4957   */\n      calldataload\n        /* \"#utility.yul\":4984:5002   */\n      0xffffffffffffffff\n        /* \"#utility.yul\":4976:4982   */\n      dup2\n        /* \"#utility.yul\":4973:5003   */\n      gt\n        /* \"#utility.yul\":4970:5087   */\n      iszero\n      tag_208\n      jumpi\n        /* \"#utility.yul\":5006:5085   */\n      tag_209\n      tag_120\n      jump\t// in\n    tag_209:\n        /* \"#utility.yul\":4970:5087   */\n    tag_208:\n        /* \"#utility.yul\":5111:5174   */\n      tag_210\n        /* \"#utility.yul\":5166:5173   */\n      dup5\n        /* \"#utility.yul\":5157:5163   */\n      dup3\n        /* \"#utility.yul\":5146:5155   */\n      dup6\n        /* \"#utility.yul\":5142:5164   */\n      add\n        /* \"#utility.yul\":5111:5174   */\n      tag_129\n      jump\t// in\n    tag_210:\n        /* \"#utility.yul\":5101:5174   */\n      swap2\n      pop\n        /* \"#utility.yul\":4897:5184   */\n      pop\n        /* \"#utility.yul\":4682:5191   */\n      swap3\n      swap2\n      pop\n      pop\n      jump\t// out\n        /* \"#utility.yul\":5197:5287   */\n    tag_130:\n        /* \"#utility.yul\":5231:5238   */\n      0x00\n        /* \"#utility.yul\":5274:5279   */\n      dup2\n        /* \"#utility.yul\":5267:5280   */\n      iszero\n        /* \"#utility.yul\":5260:5281   */\n      iszero\n        /* \"#utility.yul\":5249:5281   */\n      swap1\n      pop\n        /* \"#utility.yul\":5197:5287   */\n      swap2\n      swap1\n      pop\n      jump\t// out\n        /* \"#utility.yul\":5293:5402   */\n    tag_131:\n        /* \"#utility.yul\":5374:5395   */\n      tag_213\n        /* \"#utility.yul\":5389:5394   */\n      dup2\n        /* \"#utility.yul\":5374:5395   */\n      tag_130\n      jump\t// in\n    tag_213:\n        /* \"#utility.yul\":5369:5372   */\n      dup3\n        /* \"#utility.yul\":5362:5396   */\n      mstore\n        /* \"#utility.yul\":5293:5402   */\n      pop\n      pop\n      jump\t// out\n        /* \"#utility.yul\":5408:5618   */\n    tag_37:\n        /* \"#utility.yul\":5495:5499   */\n      0x00\n        /* \"#utility.yul\":5533:5535   */\n      0x20\n        /* \"#utility.yul\":5522:5531   */\n      dup3\n        /* \"#utility.yul\":5518:5536   */\n      add\n        /* \"#utility.yul\":5510:5536   */\n      swap1\n      pop\n        /* \"#utility.yul\":5546:5611   */\n      tag_215\n        /* \"#utility.yul\":5608:5609   */\n      0x00\n        /* \"#utility.yul\":5597:5606   */\n      dup4\n        /* \"#utility.yul\":5593:5610   */\n      add\n        /* \"#utility.yul\":5584:5590   */\n      dup5\n        /* \"#utility.yul\":5546:5611   */\n      tag_131\n      jump\t// in\n    tag_215:\n        /* \"#utility.yul\":5408:5618   */\n      swap3\n      swap2\n      pop\n      pop\n      jump\t// out\n        /* \"#utility.yul\":5624:5750   */\n    tag_132:\n        /* \"#utility.yul\":5661:5668   */\n      0x00\n        /* \"#utility.yul\":5701:5743   */\n      0xffffffffffffffffffffffffffffffffffffffff\n        /* \"#utility.yul\":5694:5699   */\n      dup3\n        /* \"#utility.yul\":5690:5744   */\n      and\n        /* \"#utility.yul\":5679:5744   */\n      swap1\n      pop\n        /* \"#utility.yul\":5624:5750   */\n      swap2\n      swap1\n      pop\n      jump\t// out\n        /* \"#utility.yul\":5756:5852   */\n    tag_133:\n        /* \"#utility.yul\":5793:5800   */\n      0x00\n        /* \"#utility.yul\":5822:5846   */\n      tag_218\n        /* \"#utility.yul\":5840:5845   */\n      dup3\n        /* \"#utility.yul\":5822:5846   */\n      tag_132\n      jump\t// in\n    tag_218:\n        /* \"#utility.yul\":5811:5846   */\n      swap1\n      pop\n        /* \"#utility.yul\":5756:5852   */\n      swap2\n      swap1\n      pop\n      jump\t// out\n        /* \"#utility.yul\":5858:5976   */\n    tag_134:\n        /* \"#utility.yul\":5945:5969   */\n      tag_220\n        /* \"#utility.yul\":5963:5968   */\n      dup2\n        /* \"#utility.yul\":5945:5969   */\n      tag_133\n      jump\t// in\n    tag_220:\n        /* \"#utility.yul\":5940:5943   */\n      dup3\n        /* \"#utility.yul\":5933:5970   */\n      mstore\n        /* \"#utility.yul\":5858:5976   */\n      pop\n      pop\n      jump\t// out\n        /* \"#utility.yul\":5982:6204   */\n    tag_50:\n        /* \"#utility.yul\":6075:6079   */\n      0x00\n        /* \"#utility.yul\":6113:6115   */\n      0x20\n        /* \"#utility.yul\":6102:6111   */\n      dup3\n        /* \"#utility.yul\":6098:6116   */\n      add\n        /* \"#utility.yul\":6090:6116   */\n      swap1\n      pop\n        /* \"#utility.yul\":6126:6197   */\n      tag_222\n        /* \"#utility.yul\":6194:6195   */\n      0x00\n        /* \"#utility.yul\":6183:6192   */\n      dup4\n        /* \"#utility.yul\":6179:6196   */\n      add\n        /* \"#utility.yul\":6170:6176   */\n      dup5\n        /* \"#utility.yul\":6126:6197   */\n      tag_134\n      jump\t// in\n    tag_222:\n        /* \"#utility.yul\":5982:6204   */\n      swap3\n      swap2\n      pop\n      pop\n      jump\t// out\n        /* \"#utility.yul\":6210:6296   */\n    tag_135:\n        /* \"#utility.yul\":6245:6252   */\n      0x00\n        /* \"#utility.yul\":6285:6289   */\n      0xff\n        /* \"#utility.yul\":6278:6283   */\n      dup3\n        /* \"#utility.yul\":6274:6290   */\n      and\n        /* \"#utility.yul\":6263:6290   */\n      swap1\n      pop\n        /* \"#utility.yul\":6210:6296   */\n      swap2\n      swap1\n      pop\n      jump\t// out\n        /* \"#utility.yul\":6302:6414   */\n    tag_136:\n        /* \"#utility.yul\":6385:6407   */\n      tag_225\n        /* \"#utility.yul\":6401:6406   */\n      dup2\n        /* \"#utility.yul\":6385:6407   */\n      tag_135\n      jump\t// in\n    tag_225:\n        /* \"#utility.yul\":6380:6383   */\n      dup3\n        /* \"#utility.yul\":6373:6408   */\n      mstore\n        /* \"#utility.yul\":6302:6414   */\n      pop\n      pop\n      jump\t// out\n        /* \"#utility.yul\":6420:6634   */\n    tag_54:\n        /* \"#utility.yul\":6509:6513   */\n      0x00\n        /* \"#utility.yul\":6547:6549   */\n      0x20\n        /* \"#utility.yul\":6536:6545   */\n      dup3\n        /* \"#utility.yul\":6532:6550   */\n      add\n        /* \"#utility.yul\":6524:6550   */\n      swap1\n      pop\n        /* \"#utility.yul\":6560:6627   */\n      tag_227\n        /* \"#utility.yul\":6624:6625   */\n      0x00\n        /* \"#utility.yul\":6613:6622   */\n      dup4\n        /* \"#utility.yul\":6609:6626   */\n      add\n        /* \"#utility.yul\":6600:6606   */\n      dup5\n        /* \"#utility.yul\":6560:6627   */\n      tag_136\n      jump\t// in\n    tag_227:\n        /* \"#utility.yul\":6420:6634   */\n      swap3\n      swap2\n      pop\n      pop\n      jump\t// out\n        /* \"#utility.yul\":6640:6762   */\n    tag_137:\n        /* \"#utility.yul\":6713:6737   */\n      tag_229\n        /* \"#utility.yul\":6731:6736   */\n      dup2\n        /* \"#utility.yul\":6713:6737   */\n      tag_133\n      jump\t// in\n    tag_229:\n        /* \"#utility.yul\":6706:6711   */\n      dup2\n        /* \"#utility.yul\":6703:6738   */\n      eq\n        /* \"#utility.yul\":6693:6756   */\n      tag_230\n      jumpi\n        /* \"#utility.yul\":6752:6753   */\n      0x00\n        /* \"#utility.yul\":6749:6750   */\n      dup1\n        /* \"#utility.yul\":6742:6754   */\n      revert\n        /* \"#utility.yul\":6693:6756   */\n    tag_230:\n        /* \"#utility.yul\":6640:6762   */\n      pop\n      jump\t// out\n        /* \"#utility.yul\":6768:6907   */\n    tag_138:\n        /* \"#utility.yul\":6814:6819   */\n      0x00\n        /* \"#utility.yul\":6852:6858   */\n      dup2\n        /* \"#utility.yul\":6839:6859   */\n      calldataload\n        /* \"#utility.yul\":6830:6859   */\n      swap1\n      pop\n        /* \"#utility.yul\":6868:6901   */\n      tag_232\n        /* \"#utility.yul\":6895:6900   */\n      dup2\n        /* \"#utility.yul\":6868:6901   */\n      tag_137\n      jump\t// in\n    tag_232:\n        /* \"#utility.yul\":6768:6907   */\n      swap3\n      swap2\n      pop\n      pop\n      jump\t// out\n        /* \"#utility.yul\":6913:7242   */\n    tag_57:\n        /* \"#utility.yul\":6972:6978   */\n      0x00\n        /* \"#utility.yul\":7021:7023   */\n      0x20\n        /* \"#utility.yul\":7009:7018   */\n      dup3\n        /* \"#utility.yul\":7000:7007   */\n      dup5\n        /* \"#utility.yul\":6996:7019   */\n      sub\n        /* \"#utility.yul\":6992:7024   */\n      slt\n        /* \"#utility.yul\":6989:7108   */\n      iszero\n      tag_234\n      jumpi\n        /* \"#utility.yul\":7027:7106   */\n      tag_235\n      tag_119\n      jump\t// in\n    tag_235:\n        /* \"#utility.yul\":6989:7108   */\n    tag_234:\n        /* \"#utility.yul\":7147:7148   */\n      0x00\n        /* \"#utility.yul\":7172:7225   */\n      tag_236\n        /* \"#utility.yul\":7217:7224   */\n      dup5\n        /* \"#utility.yul\":7208:7214   */\n      dup3\n        /* \"#utility.yul\":7197:7206   */\n      dup6\n        /* \"#utility.yul\":7193:7215   */\n      add\n        /* \"#utility.yul\":7172:7225   */\n      tag_138\n      jump\t// in\n    tag_236:\n        /* \"#utility.yul\":7162:7225   */\n      swap2\n      pop\n        /* \"#utility.yul\":7118:7235   */\n      pop\n        /* \"#utility.yul\":6913:7242   */\n      swap3\n      swap2\n      pop\n      pop\n      jump\t// out\n        /* \"#utility.yul\":7248:7370   */\n    tag_139:\n        /* \"#utility.yul\":7321:7345   */\n      tag_238\n        /* \"#utility.yul\":7339:7344   */\n      dup2\n        /* \"#utility.yul\":7321:7345   */\n      tag_109\n      jump\t// in\n    tag_238:\n        /* \"#utility.yul\":7314:7319   */\n      dup2\n        /* \"#utility.yul\":7311:7346   */\n      eq\n        /* \"#utility.yul\":7301:7364   */\n      tag_239\n      jumpi\n        /* \"#utility.yul\":7360:7361   */\n      0x00\n        /* \"#utility.yul\":7357:7358   */\n      dup1\n        /* \"#utility.yul\":7350:7362   */\n      revert\n        /* \"#utility.yul\":7301:7364   */\n    tag_239:\n        /* \"#utility.yul\":7248:7370   */\n      pop\n      jump\t// out\n        /* \"#utility.yul\":7376:7515   */\n    tag_140:\n        /* \"#utility.yul\":7422:7427   */\n      0x00\n        /* \"#utility.yul\":7460:7466   */\n      dup2\n        /* \"#utility.yul\":7447:7467   */\n      calldataload\n        /* \"#utility.yul\":7438:7467   */\n      swap1\n      pop\n        /* \"#utility.yul\":7476:7509   */\n      tag_241\n        /* \"#utility.yul\":7503:7508   */\n      dup2\n        /* \"#utility.yul\":7476:7509   */\n      tag_139\n      jump\t// in\n    tag_241:\n        /* \"#utility.yul\":7376:7515   */\n      swap3\n      swap2\n      pop\n      pop\n      jump\t// out\n        /* \"#utility.yul\":7521:7850   */\n    tag_61:\n        /* \"#utility.yul\":7580:7586   */\n      0x00\n        /* \"#utility.yul\":7629:7631   */\n      0x20\n        /* \"#utility.yul\":7617:7626   */\n      dup3\n        /* \"#utility.yul\":7608:7615   */\n      dup5\n        /* \"#utility.yul\":7604:7627   */\n      sub\n        /* \"#utility.yul\":7600:7632   */\n      slt\n        /* \"#utility.yul\":7597:7716   */\n      iszero\n      tag_243\n      jumpi\n        /* \"#utility.yul\":7635:7714   */\n      tag_244\n      tag_119\n      jump\t// in\n    tag_244:\n        /* \"#utility.yul\":7597:7716   */\n    tag_243:\n        /* \"#utility.yul\":7755:7756   */\n      0x00\n        /* \"#utility.yul\":7780:7833   */\n      tag_245\n        /* \"#utility.yul\":7825:7832   */\n      dup5\n        /* \"#utility.yul\":7816:7822   */\n      dup3\n        /* \"#utility.yul\":7805:7814   */\n      dup6\n        /* \"#utility.yul\":7801:7823   */\n      add\n        /* \"#utility.yul\":7780:7833   */\n      tag_140\n      jump\t// in\n    tag_245:\n        /* \"#utility.yul\":7770:7833   */\n      swap2\n      pop\n        /* \"#utility.yul\":7726:7843   */\n      pop\n        /* \"#utility.yul\":7521:7850   */\n      swap3\n      swap2\n      pop\n      pop\n      jump\t// out\n        /* \"#utility.yul\":7856:7955   */\n    tag_141:\n        /* \"#utility.yul\":7908:7914   */\n      0x00\n        /* \"#utility.yul\":7942:7947   */\n      dup2\n        /* \"#utility.yul\":7936:7948   */\n      mload\n        /* \"#utility.yul\":7926:7948   */\n      swap1\n      pop\n        /* \"#utility.yul\":7856:7955   */\n      swap2\n      swap1\n      pop\n      jump\t// out\n        /* \"#utility.yul\":7961:8130   */\n    tag_142:\n        /* \"#utility.yul\":8045:8056   */\n      0x00\n        /* \"#utility.yul\":8079:8085   */\n      dup3\n        /* \"#utility.yul\":8074:8077   */\n      dup3\n        /* \"#utility.yul\":8067:8086   */\n      mstore\n        /* \"#utility.yul\":8119:8123   */\n      0x20\n        /* \"#utility.yul\":8114:8117   */\n      dup3\n        /* \"#utility.yul\":8110:8124   */\n      add\n        /* \"#utility.yul\":8095:8124   */\n      swap1\n      pop\n        /* \"#utility.yul\":7961:8130   */\n      swap3\n      swap2\n      pop\n      pop\n      jump\t// out\n        /* \"#utility.yul\":8136:8500   */\n    tag_143:\n        /* \"#utility.yul\":8224:8227   */\n      0x00\n        /* \"#utility.yul\":8252:8291   */\n      tag_249\n        /* \"#utility.yul\":8285:8290   */\n      dup3\n        /* \"#utility.yul\":8252:8291   */\n      tag_141\n      jump\t// in\n    tag_249:\n        /* \"#utility.yul\":8307:8378   */\n      tag_250\n        /* \"#utility.yul\":8371:8377   */\n      dup2\n        /* \"#utility.yul\":8366:8369   */\n      dup6\n        /* \"#utility.yul\":8307:8378   */\n      tag_142\n      jump\t// in\n    tag_250:\n        /* \"#utility.yul\":8300:8378   */\n      swap4\n      pop\n        /* \"#utility.yul\":8387:8439   */\n      tag_251\n        /* \"#utility.yul\":8432:8438   */\n      dup2\n        /* \"#utility.yul\":8427:8430   */\n      dup6\n        /* \"#utility.yul\":8420:8424   */\n      0x20\n        /* \"#utility.yul\":8413:8418   */\n      dup7\n        /* \"#utility.yul\":8409:8425   */\n      add\n        /* \"#utility.yul\":8387:8439   */\n      tag_115\n      jump\t// in\n    tag_251:\n        /* \"#utility.yul\":8464:8493   */\n      tag_252\n        /* \"#utility.yul\":8486:8492   */\n      dup2\n        /* \"#utility.yul\":8464:8493   */\n      tag_116\n      jump\t// in\n    tag_252:\n        /* \"#utility.yul\":8459:8462   */\n      dup5\n        /* \"#utility.yul\":8455:8494   */\n      add\n        /* \"#utility.yul\":8448:8494   */\n      swap2\n      pop\n        /* \"#utility.yul\":8228:8500   */\n      pop\n        /* \"#utility.yul\":8136:8500   */\n      swap3\n      swap2\n      pop\n      pop\n      jump\t// out\n        /* \"#utility.yul\":8506:8819   */\n    tag_66:\n        /* \"#utility.yul\":8619:8623   */\n      0x00\n        /* \"#utility.yul\":8657:8659   */\n      0x20\n        /* \"#utility.yul\":8646:8655   */\n      dup3\n        /* \"#utility.yul\":8642:8660   */\n      add\n        /* \"#utility.yul\":8634:8660   */\n      swap1\n      pop\n        /* \"#utility.yul\":8706:8715   */\n      dup2\n        /* \"#utility.yul\":8700:8704   */\n      dup2\n        /* \"#utility.yul\":8696:8716   */\n      sub\n        /* \"#utility.yul\":8692:8693   */\n      0x00\n        /* \"#utility.yul\":8681:8690   */\n      dup4\n        /* \"#utility.yul\":8677:8694   */\n      add\n        /* \"#utility.yul\":8670:8717   */\n      mstore\n        /* \"#utility.yul\":8734:8812   */\n      tag_254\n        /* \"#utility.yul\":8807:8811   */\n      dup2\n        /* \"#utility.yul\":8798:8804   */\n      dup5\n        /* \"#utility.yul\":8734:8812   */\n      tag_143\n      jump\t// in\n    tag_254:\n        /* \"#utility.yul\":8726:8812   */\n      swap1\n      pop\n        /* \"#utility.yul\":8506:8819   */\n      swap3\n      swap2\n      pop\n      pop\n      jump\t// out\n        /* \"#utility.yul\":8825:9005   */\n    tag_144:\n        /* \"#utility.yul\":8873:8950   */\n      0x4e487b7100000000000000000000000000000000000000000000000000000000\n        /* \"#utility.yul\":8870:8871   */\n      0x00\n        /* \"#utility.yul\":8863:8951   */\n      mstore\n        /* \"#utility.yul\":8970:8974   */\n      0x22\n        /* \"#utility.yul\":8967:8968   */\n      0x04\n        /* \"#utility.yul\":8960:8975   */\n      mstore\n        /* \"#utility.yul\":8994:8998   */\n      0x24\n        /* \"#utility.yul\":8991:8992   */\n      0x00\n        /* \"#utility.yul\":8984:8999   */\n      revert\n        /* \"#utility.yul\":9011:9331   */\n    tag_72:\n        /* \"#utility.yul\":9055:9061   */\n      0x00\n        /* \"#utility.yul\":9092:9093   */\n      0x02\n        /* \"#utility.yul\":9086:9090   */\n      dup3\n        /* \"#utility.yul\":9082:9094   */\n      div\n        /* \"#utility.yul\":9072:9094   */\n      swap1\n      pop\n        /* \"#utility.yul\":9139:9140   */\n      0x01\n        /* \"#utility.yul\":9133:9137   */\n      dup3\n        /* \"#utility.yul\":9129:9141   */\n      and\n        /* \"#utility.yul\":9160:9178   */\n      dup1\n        /* \"#utility.yul\":9150:9231   */\n      tag_257\n      jumpi\n        /* \"#utility.yul\":9216:9220   */\n      0x7f\n        /* \"#utility.yul\":9208:9214   */\n      dup3\n        /* \"#utility.yul\":9204:9221   */\n      and\n        /* \"#utility.yul\":9194:9221   */\n      swap2\n      pop\n        /* \"#utility.yul\":9150:9231   */\n    tag_257:\n        /* \"#utility.yul\":9278:9280   */\n      0x20\n        /* \"#utility.yul\":9270:9276   */\n      dup3\n        /* \"#utility.yul\":9267:9281   */\n      lt\n        /* \"#utility.yul\":9247:9265   */\n      dup2\n        /* \"#utility.yul\":9244:9282   */\n      sub\n        /* \"#utility.yul\":9241:9325   */\n      tag_258\n      jumpi\n        /* \"#utility.yul\":9297:9315   */\n      tag_259\n      tag_144\n      jump\t// in\n    tag_259:\n        /* \"#utility.yul\":9241:9325   */\n    tag_258:\n        /* \"#utility.yul\":9062:9331   */\n      pop\n        /* \"#utility.yul\":9011:9331   */\n      swap2\n      swap1\n      pop\n      jump\t// out\n        /* \"#utility.yul\":9337:9485   */\n    tag_145:\n        /* \"#utility.yul\":9439:9450   */\n      0x00\n        /* \"#utility.yul\":9476:9479   */\n      dup2\n        /* \"#utility.yul\":9461:9479   */\n      swap1\n      pop\n        /* \"#utility.yul\":9337:9485   */\n      swap3\n      swap2\n      pop\n      pop\n      jump\t// out\n        /* \"#utility.yul\":9491:9868   */\n    tag_146:\n        /* \"#utility.yul\":9597:9600   */\n      0x00\n        /* \"#utility.yul\":9625:9664   */\n      tag_262\n        /* \"#utility.yul\":9658:9663   */\n      dup3\n        /* \"#utility.yul\":9625:9664   */\n      tag_141\n      jump\t// in\n    tag_262:\n        /* \"#utility.yul\":9680:9769   */\n      tag_263\n        /* \"#utility.yul\":9762:9768   */\n      dup2\n        /* \"#utility.yul\":9757:9760   */\n      dup6\n        /* \"#utility.yul\":9680:9769   */\n      tag_145\n      jump\t// in\n    tag_263:\n        /* \"#utility.yul\":9673:9769   */\n      swap4\n      pop\n        /* \"#utility.yul\":9778:9830   */\n      tag_264\n        /* \"#utility.yul\":9823:9829   */\n      dup2\n        /* \"#utility.yul\":9818:9821   */\n      dup6\n        /* \"#utility.yul\":9811:9815   */\n      0x20\n        /* \"#utility.yul\":9804:9809   */\n      dup7\n        /* \"#utility.yul\":9800:9816   */\n      add\n        /* \"#utility.yul\":9778:9830   */\n      tag_115\n      jump\t// in\n    tag_264:\n        /* \"#utility.yul\":9855:9861   */\n      dup1\n        /* \"#utility.yul\":9850:9853   */\n      dup5\n        /* \"#utility.yul\":9846:9862   */\n      add\n        /* \"#utility.yul\":9839:9862   */\n      swap2\n      pop\n        /* \"#utility.yul\":9601:9868   */\n      pop\n        /* \"#utility.yul\":9491:9868   */\n      swap3\n      swap2\n      pop\n      pop\n      jump\t// out\n        /* \"#utility.yul\":9874:10149   */\n    tag_79:\n        /* \"#utility.yul\":10006:10009   */\n      0x00\n        /* \"#utility.yul\":10028:10123   */\n      tag_266\n        /* \"#utility.yul\":10119:10122   */\n      dup3\n        /* \"#utility.yul\":10110:10116   */\n      dup5\n        /* \"#utility.yul\":10028:10123   */\n      tag_146\n      jump\t// in\n    tag_266:\n        /* \"#utility.yul\":10021:10123   */\n      swap2\n      pop\n        /* \"#utility.yul\":10140:10143   */\n      dup2\n        /* \"#utility.yul\":10133:10143   */\n      swap1\n      pop\n        /* \"#utility.yul\":9874:10149   */\n      swap3\n      swap2\n      pop\n      pop\n      jump\t// out\n        /* \"#utility.yul\":10155:10296   */\n    tag_147:\n        /* \"#utility.yul\":10204:10208   */\n      0x00\n        /* \"#utility.yul\":10227:10230   */\n      dup2\n        /* \"#utility.yul\":10219:10230   */\n      swap1\n      pop\n        /* \"#utility.yul\":10250:10253   */\n      dup2\n        /* \"#utility.yul\":10247:10248   */\n      0x00\n        /* \"#utility.yul\":10240:10254   */\n      mstore\n        /* \"#utility.yul\":10284:10288   */\n      0x20\n        /* \"#utility.yul\":10281:10282   */\n      0x00\n        /* \"#utility.yul\":10271:10289   */\n      keccak256\n        /* \"#utility.yul\":10263:10289   */\n      swap1\n      pop\n        /* \"#utility.yul\":10155:10296   */\n      swap2\n      swap1\n      pop\n      jump\t// out\n        /* \"#utility.yul\":10326:11171   */\n    tag_148:\n        /* \"#utility.yul\":10429:10432   */\n      0x00\n        /* \"#utility.yul\":10466:10471   */\n      dup2\n        /* \"#utility.yul\":10460:10472   */\n      sload\n        /* \"#utility.yul\":10495:10531   */\n      tag_269\n        /* \"#utility.yul\":10521:10530   */\n      dup2\n        /* \"#utility.yul\":10495:10531   */\n      tag_72\n      jump\t// in\n    tag_269:\n        /* \"#utility.yul\":10547:10636   */\n      tag_270\n        /* \"#utility.yul\":10629:10635   */\n      dup2\n        /* \"#utility.yul\":10624:10627   */\n      dup7\n        /* \"#utility.yul\":10547:10636   */\n      tag_145\n      jump\t// in\n    tag_270:\n        /* \"#utility.yul\":10540:10636   */\n      swap5\n      pop\n        /* \"#utility.yul\":10667:10668   */\n      0x01\n        /* \"#utility.yul\":10656:10665   */\n      dup3\n        /* \"#utility.yul\":10652:10669   */\n      and\n        /* \"#utility.yul\":10683:10684   */\n      0x00\n        /* \"#utility.yul\":10678:10815   */\n      dup2\n      eq\n      tag_272\n      jumpi\n        /* \"#utility.yul\":10829:10830   */\n      0x01\n        /* \"#utility.yul\":10824:11165   */\n      dup2\n      eq\n      tag_273\n      jumpi\n        /* \"#utility.yul\":10645:11165   */\n      jump(tag_271)\n        /* \"#utility.yul\":10678:10815   */\n    tag_272:\n        /* \"#utility.yul\":10762:10766   */\n      0xff\n        /* \"#utility.yul\":10758:10767   */\n      not\n        /* \"#utility.yul\":10747:10756   */\n      dup4\n        /* \"#utility.yul\":10743:10768   */\n      and\n        /* \"#utility.yul\":10738:10741   */\n      dup7\n        /* \"#utility.yul\":10731:10769   */\n      mstore\n        /* \"#utility.yul\":10798:10804   */\n      dup2\n        /* \"#utility.yul\":10793:10796   */\n      dup7\n        /* \"#utility.yul\":10789:10805   */\n      add\n        /* \"#utility.yul\":10782:10805   */\n      swap4\n      pop\n        /* \"#utility.yul\":10678:10815   */\n      jump(tag_271)\n        /* \"#utility.yul\":10824:11165   */\n    tag_273:\n        /* \"#utility.yul\":10891:10929   */\n      tag_274\n        /* \"#utility.yul\":10923:10928   */\n      dup6\n        /* \"#utility.yul\":10891:10929   */\n      tag_147\n      jump\t// in\n    tag_274:\n        /* \"#utility.yul\":10951:10952   */\n      0x00\n        /* \"#utility.yul\":10965:11119   */\n    tag_275:\n        /* \"#utility.yul\":10979:10985   */\n      dup4\n        /* \"#utility.yul\":10976:10977   */\n      dup2\n        /* \"#utility.yul\":10973:10986   */\n      lt\n        /* \"#utility.yul\":10965:11119   */\n      iszero\n      tag_277\n      jumpi\n        /* \"#utility.yul\":11053:11060   */\n      dup2\n        /* \"#utility.yul\":11047:11061   */\n      sload\n        /* \"#utility.yul\":11043:11044   */\n      dup2\n        /* \"#utility.yul\":11038:11041   */\n      dup10\n        /* \"#utility.yul\":11034:11045   */\n      add\n        /* \"#utility.yul\":11027:11062   */\n      mstore\n        /* \"#utility.yul\":11103:11104   */\n      0x01\n        /* \"#utility.yul\":11094:11101   */\n      dup3\n        /* \"#utility.yul\":11090:11105   */\n      add\n        /* \"#utility.yul\":11079:11105   */\n      swap2\n      pop\n        /* \"#utility.yul\":11001:11005   */\n      0x20\n        /* \"#utility.yul\":10998:10999   */\n      dup2\n        /* \"#utility.yul\":10994:11006   */\n      add\n        /* \"#utility.yul\":10989:11006   */\n      swap1\n      pop\n        /* \"#utility.yul\":10965:11119   */\n      jump(tag_275)\n    tag_277:\n        /* \"#utility.yul\":11148:11154   */\n      dup4\n        /* \"#utility.yul\":11143:11146   */\n      dup9\n        /* \"#utility.yul\":11139:11155   */\n      add\n        /* \"#utility.yul\":11132:11155   */\n      swap6\n      pop\n        /* \"#utility.yul\":10831:11165   */\n      pop\n      pop\n        /* \"#utility.yul\":10645:11165   */\n    tag_271:\n      pop\n        /* \"#utility.yul\":10433:11171   */\n      pop\n      pop\n        /* \"#utility.yul\":10326:11171   */\n      swap3\n      swap2\n      pop\n      pop\n      jump\t// out\n        /* \"#utility.yul\":11177:11446   */\n    tag_81:\n        /* \"#utility.yul\":11306:11309   */\n      0x00\n        /* \"#utility.yul\":11328:11420   */\n      tag_279\n        /* \"#utility.yul\":11416:11419   */\n      dup3\n        /* \"#utility.yul\":11407:11413   */\n      dup5\n        /* \"#utility.yul\":11328:11420   */\n      tag_148\n      jump\t// in\n    tag_279:\n        /* \"#utility.yul\":11321:11420   */\n      swap2\n      pop\n        /* \"#utility.yul\":11437:11440   */\n      dup2\n        /* \"#utility.yul\":11430:11440   */\n      swap1\n      pop\n        /* \"#utility.yul\":11177:11446   */\n      swap3\n      swap2\n      pop\n      pop\n      jump\t// out\n        /* \"#utility.yul\":11452:11632   */\n    tag_149:\n        /* \"#utility.yul\":11500:11577   */\n      0x4e487b7100000000000000000000000000000000000000000000000000000000\n        /* \"#utility.yul\":11497:11498   */\n      0x00\n        /* \"#utility.yul\":11490:11578   */\n      mstore\n        /* \"#utility.yul\":11597:11601   */\n      0x12\n        /* \"#utility.yul\":11594:11595   */\n      0x04\n        /* \"#utility.yul\":11587:11602   */\n      mstore\n        /* \"#utility.yul\":11621:11625   */\n      0x24\n        /* \"#utility.yul\":11618:11619   */\n      0x00\n        /* \"#utility.yul\":11611:11626   */\n      revert\n        /* \"#utility.yul\":11638:11818   */\n    tag_150:\n        /* \"#utility.yul\":11686:11763   */\n      0x4e487b7100000000000000000000000000000000000000000000000000000000\n        /* \"#utility.yul\":11683:11684   */\n      0x00\n        /* \"#utility.yul\":11676:11764   */\n      mstore\n        /* \"#utility.yul\":11783:11787   */\n      0x11\n        /* \"#utility.yul\":11780:11781   */\n      0x04\n        /* \"#utility.yul\":11773:11788   */\n      mstore\n        /* \"#utility.yul\":11807:11811   */\n      0x24\n        /* \"#utility.yul\":11804:11805   */\n      0x00\n        /* \"#utility.yul\":11797:11812   */\n      revert\n        /* \"#utility.yul\":11824:12009   */\n    tag_84:\n        /* \"#utility.yul\":11864:11865   */\n      0x00\n        /* \"#utility.yul\":11881:11901   */\n      tag_283\n        /* \"#utility.yul\":11899:11900   */\n      dup3\n        /* \"#utility.yul\":11881:11901   */\n      tag_109\n      jump\t// in\n    tag_283:\n        /* \"#utility.yul\":11876:11901   */\n      swap2\n      pop\n        /* \"#utility.yul\":11915:11935   */\n      tag_284\n        /* \"#utility.yul\":11933:11934   */\n      dup4\n        /* \"#utility.yul\":11915:11935   */\n      tag_109\n      jump\t// in\n    tag_284:\n        /* \"#utility.yul\":11910:11935   */\n      swap3\n      pop\n        /* \"#utility.yul\":11954:11955   */\n      dup3\n        /* \"#utility.yul\":11944:11979   */\n      tag_285\n      jumpi\n        /* \"#utility.yul\":11959:11977   */\n      tag_286\n      tag_149\n      jump\t// in\n    tag_286:\n        /* \"#utility.yul\":11944:11979   */\n    tag_285:\n        /* \"#utility.yul\":12001:12002   */\n      dup3\n        /* \"#utility.yul\":11998:11999   */\n      dup3\n        /* \"#utility.yul\":11994:12003   */\n      div\n        /* \"#utility.yul\":11989:12003   */\n      swap1\n      pop\n        /* \"#utility.yul\":11824:12009   */\n      swap3\n      swap2\n      pop\n      pop\n      jump\t// out\n        /* \"#utility.yul\":12015:12246   */\n    tag_97:\n        /* \"#utility.yul\":12053:12056   */\n      0x00\n        /* \"#utility.yul\":12076:12099   */\n      tag_288\n        /* \"#utility.yul\":12093:12098   */\n      dup3\n        /* \"#utility.yul\":12076:12099   */\n      tag_111\n      jump\t// in\n    tag_288:\n        /* \"#utility.yul\":12067:12099   */\n      swap2\n      pop\n        /* \"#utility.yul\":12121:12187   */\n      0x7fffffffffffffffffffffffffffffffffffffffffffffffffffffffffffffff\n        /* \"#utility.yul\":12114:12119   */\n      dup3\n        /* \"#utility.yul\":12111:12188   */\n      sub\n        /* \"#utility.yul\":12108:12211   */\n      tag_289\n      jumpi\n        /* \"#utility.yul\":12191:12209   */\n      tag_290\n      tag_150\n      jump\t// in\n    tag_290:\n        /* \"#utility.yul\":12108:12211   */\n    tag_289:\n        /* \"#utility.yul\":12238:12239   */\n      0x01\n        /* \"#utility.yul\":12231:12236   */\n      dup3\n        /* \"#utility.yul\":12227:12240   */\n      add\n        /* \"#utility.yul\":12220:12240   */\n      swap1\n      pop\n        /* \"#utility.yul\":12015:12246   */\n      swap2\n      swap1\n      pop\n      jump\t// out\n\n    auxdata: 0xa2646970667358221220371e9cef04a1ca0d665eab649b4666114c9ece170b87cfb9c199ae4376f919f364736f6c634300080e0033\n}\n",
				"bytecode": {
					"linkReferences": {},
					"object": "60806040526010600260006101000a81548160ff021916908360ff1602179055507ffffffffffffffffffffffffffffffffffffffffffffffffffffffffffffffff66003556040518060400160405280600b81526020017f48656c6c6f20576f726c640000000000000000000000000000000000000000008152506004908051906020019062000091929190620000f4565b506040518060400160405280600b81526020017f48656c6c6f20576f726c6400000000000000000000000000000000000000000081525060059080519060200190620000df92919062000185565b50348015620000ed57600080fd5b5062000299565b828054620001029062000264565b90600052602060002090601f01602090048101928262000126576000855562000172565b82601f106200014157805160ff191683800117855562000172565b8280016001018555821562000172579182015b828111156200017157825182559160200191906001019062000154565b5b50905062000181919062000216565b5090565b828054620001939062000264565b90600052602060002090601f016020900481019282620001b7576000855562000203565b82601f10620001d257805160ff191683800117855562000203565b8280016001018555821562000203579182015b8281111562000202578251825591602001919060010190620001e5565b5b50905062000212919062000216565b5090565b5b808211156200023157600081600090555060010162000217565b5090565b7f4e487b7100000000000000000000000000000000000000000000000000000000600052602260045260246000fd5b600060028204905060018216806200027d57607f821691505b60208210810362000293576200029262000235565b5b50919050565b610ce280620002a96000396000f3fe608060405234801561001057600080fd5b50600436106100ea5760003560e01c8063935760e71161008c578063e492fd8411610066578063e492fd8414610229578063ef690cc014610245578063f102a71d14610263578063fc979f7b1461026d576100ea565b8063935760e7146101d1578063e2a4b2af146101ef578063e30081a01461020d576100ea565b80634f86f506116100c85780634f86f5061461014957806375eb2ad1146101795780637c43b66e1461019757806382180568146101b5576100ea565b806306540f7e146100ef5780632cb777a61461010d578063336ab5041461012b575b600080fd5b6100f7610277565b60405161010491906105e9565b60405180910390f35b61011561027d565b604051610122919061061d565b60405180910390f35b610133610283565b60405161014091906106d1565b60405180910390f35b610163600480360381019061015e919061083c565b610311565b60405161017091906108a0565b60405180910390f35b61018161036a565b60405161018e91906105e9565b60405180910390f35b61019f6103be565b6040516101ac91906108a0565b60405180910390f35b6101cf60048036038101906101ca919061083c565b6103cf565b005b6101d96103e9565b6040516101e691906108fc565b60405180910390f35b6101f761040f565b6040516102049190610933565b60405180910390f35b6102276004803603810190610222919061097a565b610422565b005b610243600480360381019061023e91906109d3565b610466565b005b61024d610470565b60405161025a9190610a55565b60405180910390f35b61026b6104fe565b005b610275610518565b005b60015481565b60035481565b6005805461029090610aa6565b80601f01602080910402602001604051908101604052809291908181526020018280546102bc90610aa6565b80156103095780601f106102de57610100808354040283529160200191610309565b820191906000526020600020905b8154815290600101906020018083116102ec57829003601f168201915b505050505081565b6000816040516020016103249190610b13565b60405160208183030381529060405280519060200120600460405160200161034c9190610bbe565b60405160208183030381529060405280519060200120149050919050565b6000670de0b6b3a7640000600660009054906101000a900473ffffffffffffffffffffffffffffffffffffffff1673ffffffffffffffffffffffffffffffffffffffff16316103b99190610c33565b905090565b60008054906101000a900460ff1681565b80600490805190602001906103e592919061052d565b5050565b600660009054906101000a900473ffffffffffffffffffffffffffffffffffffffff1681565b600260009054906101000a900460ff1681565b80600660006101000a81548173ffffffffffffffffffffffffffffffffffffffff021916908373ffffffffffffffffffffffffffffffffffffffff16021790555050565b8060018190555050565b6004805461047d90610aa6565b80601f01602080910402602001604051908101604052809291908181526020018280546104a990610aa6565b80156104f65780601f106104cb576101008083540402835291602001916104f6565b820191906000526020600020905b8154815290600101906020018083116104d957829003601f168201915b505050505081565b6003600081548092919061051190610c64565b9190505550565b60016000815480929190600190039190505550565b82805461053990610aa6565b90600052602060002090601f01602090048101928261055b57600085556105a2565b82601f1061057457805160ff19168380011785556105a2565b828001600101855582156105a2579182015b828111156105a1578251825591602001919060010190610586565b5b5090506105af91906105b3565b5090565b5b808211156105cc5760008160009055506001016105b4565b5090565b6000819050919050565b6105e3816105d0565b82525050565b60006020820190506105fe60008301846105da565b92915050565b6000819050919050565b61061781610604565b82525050565b6000602082019050610632600083018461060e565b92915050565b600081519050919050565b600082825260208201905092915050565b60005b83811015610672578082015181840152602081019050610657565b83811115610681576000848401525b50505050565b6000601f19601f8301169050919050565b60006106a382610638565b6106ad8185610643565b93506106bd818560208601610654565b6106c681610687565b840191505092915050565b600060208201905081810360008301526106eb8184610698565b905092915050565b6000604051905090565b600080fd5b600080fd5b600080fd5b600080fd5b7f4e487b7100000000000000000000000000000000000000000000000000000000600052604160045260246000fd5b61074982610687565b810181811067ffffffffffffffff8211171561076857610767610711565b5b80604052505050565b600061077b6106f3565b90506107878282610740565b919050565b600067ffffffffffffffff8211156107a7576107a6610711565b5b6107b082610687565b9050602081019050919050565b82818337600083830152505050565b60006107df6107da8461078c565b610771565b9050828152602081018484840111156107fb576107fa61070c565b5b6108068482856107bd565b509392505050565b600082601f83011261082357610822610707565b5b81356108338482602086016107cc565b91505092915050565b600060208284031215610852576108516106fd565b5b600082013567ffffffffffffffff8111156108705761086f610702565b5b61087c8482850161080e565b91505092915050565b60008115159050919050565b61089a81610885565b82525050565b60006020820190506108b56000830184610891565b92915050565b600073ffffffffffffffffffffffffffffffffffffffff82169050919050565b60006108e6826108bb565b9050919050565b6108f6816108db565b82525050565b600060208201905061091160008301846108ed565b92915050565b600060ff82169050919050565b61092d81610917565b82525050565b60006020820190506109486000830184610924565b92915050565b610957816108db565b811461096257600080fd5b50565b6000813590506109748161094e565b92915050565b6000602082840312156109905761098f6106fd565b5b600061099e84828501610965565b91505092915050565b6109b0816105d0565b81146109bb57600080fd5b50565b6000813590506109cd816109a7565b92915050565b6000602082840312156109e9576109e86106fd565b5b60006109f7848285016109be565b91505092915050565b600081519050919050565b600082825260208201905092915050565b6000610a2782610a00565b610a318185610a0b565b9350610a41818560208601610654565b610a4a81610687565b840191505092915050565b60006020820190508181036000830152610a6f8184610a1c565b905092915050565b7f4e487b7100000000000000000000000000000000000000000000000000000000600052602260045260246000fd5b60006002820490506001821680610abe57607f821691505b602082108103610ad157610ad0610a77565b5b50919050565b600081905092915050565b6000610aed82610a00565b610af78185610ad7565b9350610b07818560208601610654565b80840191505092915050565b6000610b1f8284610ae2565b915081905092915050565b60008190508160005260206000209050919050565b60008154610b4c81610aa6565b610b568186610ad7565b94506001821660008114610b715760018114610b8257610bb5565b60ff19831686528186019350610bb5565b610b8b85610b2a565b60005b83811015610bad57815481890152600182019150602081019050610b8e565b838801955050505b50505092915050565b6000610bca8284610b3f565b915081905092915050565b7f4e487b7100000000000000000000000000000000000000000000000000000000600052601260045260246000fd5b7f4e487b7100000000000000000000000000000000000000000000000000000000600052601160045260246000fd5b6000610c3e826105d0565b9150610c49836105d0565b925082610c5957610c58610bd5565b5b828204905092915050565b6000610c6f82610604565b91507f7fffffffffffffffffffffffffffffffffffffffffffffffffffffffffffffff8203610ca157610ca0610c04565b5b60018201905091905056fea2646970667358221220371e9cef04a1ca0d665eab649b4666114c9ece170b87cfb9c199ae4376f919f364736f6c634300080e0033",
					"opcodes": "PUSH1 0x80 PUSH1 0x40 MSTORE PUSH1 0x10 PUSH1 0x2 PUSH1 0x0 PUSH2 0x100 EXP DUP2 SLOAD DUP2 PUSH1 0xFF MUL NOT AND SWAP1 DUP4 PUSH1 0xFF AND MUL OR SWAP1 SSTORE POP PUSH32 0xFFFFFFFFFFFFFFFFFFFFFFFFFFFFFFFFFFFFFFFFFFFFFFFFFFFFFFFFFFFFFFF6 PUSH1 0x3 SSTORE PUSH1 0x40 MLOAD DUP1 PUSH1 0x40 ADD PUSH1 0x40 MSTORE DUP1 PUSH1 0xB DUP2 MSTORE PUSH1 0x20 ADD PUSH32 0x48656C6C6F20576F726C64000000000000000000000000000000000000000000 DUP2 MSTORE POP PUSH1 0x4 SWAP1 DUP1 MLOAD SWAP1 PUSH1 0x20 ADD SWAP1 PUSH3 0x91 SWAP3 SWAP2 SWAP1 PUSH3 0xF4 JUMP JUMPDEST POP PUSH1 0x40 MLOAD DUP1 PUSH1 0x40 ADD PUSH1 0x40 MSTORE DUP1 PUSH1 0xB DUP2 MSTORE PUSH1 0x20 ADD PUSH32 0x48656C6C6F20576F726C64000000000000000000000000000000000000000000 DUP2 MSTORE POP PUSH1 0x5 SWAP1 DUP1 MLOAD SWAP1 PUSH1 0x20 ADD SWAP1 PUSH3 0xDF SWAP3 SWAP2 SWAP1 PUSH3 0x185 JUMP JUMPDEST POP CALLVALUE DUP1 ISZERO PUSH3 0xED JUMPI PUSH1 0x0 DUP1 REVERT JUMPDEST POP PUSH3 0x299 JUMP JUMPDEST DUP3 DUP1 SLOAD PUSH3 0x102 SWAP1 PUSH3 0x264 JUMP JUMPDEST SWAP1 PUSH1 0x0 MSTORE PUSH1 0x20 PUSH1 0x0 KECCAK256 SWAP1 PUSH1 0x1F ADD PUSH1 0x20 SWAP1 DIV DUP2 ADD SWAP3 DUP3 PUSH3 0x126 JUMPI PUSH1 0x0 DUP6 SSTORE PUSH3 0x172 JUMP JUMPDEST DUP3 PUSH1 0x1F LT PUSH3 0x141 JUMPI DUP1 MLOAD PUSH1 0xFF NOT AND DUP4 DUP1 ADD OR DUP6 SSTORE PUSH3 0x172 JUMP JUMPDEST DUP3 DUP1 ADD PUSH1 0x1 ADD DUP6 SSTORE DUP3 ISZERO PUSH3 0x172 JUMPI SWAP2 DUP3 ADD JUMPDEST DUP3 DUP2 GT ISZERO PUSH3 0x171 JUMPI DUP3 MLOAD DUP3 SSTORE SWAP2 PUSH1 0x20 ADD SWAP2 SWAP1 PUSH1 0x1 ADD SWAP1 PUSH3 0x154 JUMP JUMPDEST JUMPDEST POP SWAP1 POP PUSH3 0x181 SWAP2 SWAP1 PUSH3 0x216 JUMP JUMPDEST POP SWAP1 JUMP JUMPDEST DUP3 DUP1 SLOAD PUSH3 0x193 SWAP1 PUSH3 0x264 JUMP JUMPDEST SWAP1 PUSH1 0x0 MSTORE PUSH1 0x20 PUSH1 0x0 KECCAK256 SWAP1 PUSH1 0x1F ADD PUSH1 0x20 SWAP1 DIV DUP2 ADD SWAP3 DUP3 PUSH3 0x1B7 JUMPI PUSH1 0x0 DUP6 SSTORE PUSH3 0x203 JUMP JUMPDEST DUP3 PUSH1 0x1F LT PUSH3 0x1D2 JUMPI DUP1 MLOAD PUSH1 0xFF NOT AND DUP4 DUP1 ADD OR DUP6 SSTORE PUSH3 0x203 JUMP JUMPDEST DUP3 DUP1 ADD PUSH1 0x1 ADD DUP6 SSTORE DUP3 ISZERO PUSH3 0x203 JUMPI SWAP2 DUP3 ADD JUMPDEST DUP3 DUP2 GT ISZERO PUSH3 0x202 JUMPI DUP3 MLOAD DUP3 SSTORE SWAP2 PUSH1 0x20 ADD SWAP2 SWAP1 PUSH1 0x1 ADD SWAP1 PUSH3 0x1E5 JUMP JUMPDEST JUMPDEST POP SWAP1 POP PUSH3 0x212 SWAP2 SWAP1 PUSH3 0x216 JUMP JUMPDEST POP SWAP1 JUMP JUMPDEST JUMPDEST DUP1 DUP3 GT ISZERO PUSH3 0x231 JUMPI PUSH1 0x0 DUP2 PUSH1 0x0 SWAP1 SSTORE POP PUSH1 0x1 ADD PUSH3 0x217 JUMP JUMPDEST POP SWAP1 JUMP JUMPDEST PUSH32 0x4E487B7100000000000000000000000000000000000000000000000000000000 PUSH1 0x0 MSTORE PUSH1 0x22 PUSH1 0x4 MSTORE PUSH1 0x24 PUSH1 0x0 REVERT JUMPDEST PUSH1 0x0 PUSH1 0x2 DUP3 DIV SWAP1 POP PUSH1 0x1 DUP3 AND DUP1 PUSH3 0x27D JUMPI PUSH1 0x7F DUP3 AND SWAP2 POP JUMPDEST PUSH1 0x20 DUP3 LT DUP2 SUB PUSH3 0x293 JUMPI PUSH3 0x292 PUSH3 0x235 JUMP JUMPDEST JUMPDEST POP SWAP2 SWAP1 POP JUMP JUMPDEST PUSH2 0xCE2 DUP1 PUSH3 0x2A9 PUSH1 0x0 CODECOPY PUSH1 0x0 RETURN INVALID PUSH1 0x80 PUSH1 0x40 MSTORE CALLVALUE DUP1 ISZERO PUSH2 0x10 JUMPI PUSH1 0x0 DUP1 REVERT JUMPDEST POP PUSH1 0x4 CALLDATASIZE LT PUSH2 0xEA JUMPI PUSH1 0x0 CALLDATALOAD PUSH1 0xE0 SHR DUP1 PUSH4 0x935760E7 GT PUSH2 0x8C JUMPI DUP1 PUSH4 0xE492FD84 GT PUSH2 0x66 JUMPI DUP1 PUSH4 0xE492FD84 EQ PUSH2 0x229 JUMPI DUP1 PUSH4 0xEF690CC0 EQ PUSH2 0x245 JUMPI DUP1 PUSH4 0xF102A71D EQ PUSH2 0x263 JUMPI DUP1 PUSH4 0xFC979F7B EQ PUSH2 0x26D JUMPI PUSH2 0xEA JUMP JUMPDEST DUP1 PUSH4 0x935760E7 EQ PUSH2 0x1D1 JUMPI DUP1 PUSH4 0xE2A4B2AF EQ PUSH2 0x1EF JUMPI DUP1 PUSH4 0xE30081A0 EQ PUSH2 0x20D JUMPI PUSH2 0xEA JUMP JUMPDEST DUP1 PUSH4 0x4F86F506 GT PUSH2 0xC8 JUMPI DUP1 PUSH4 0x4F86F506 EQ PUSH2 0x149 JUMPI DUP1 PUSH4 0x75EB2AD1 EQ PUSH2 0x179 JUMPI DUP1 PUSH4 0x7C43B66E EQ PUSH2 0x197 JUMPI DUP1 PUSH4 0x82180568 EQ PUSH2 0x1B5 JUMPI PUSH2 0xEA JUMP JUMPDEST DUP1 PUSH4 0x6540F7E EQ PUSH2 0xEF JUMPI DUP1 PUSH4 0x2CB777A6 EQ PUSH2 0x10D JUMPI DUP1 PUSH4 0x336AB504 EQ PUSH2 0x12B JUMPI JUMPDEST PUSH1 0x0 DUP1 REVERT JUMPDEST PUSH2 0xF7 PUSH2 0x277 JUMP JUMPDEST PUSH1 0x40 MLOAD PUSH2 0x104 SWAP2 SWAP1 PUSH2 0x5E9 JUMP JUMPDEST PUSH1 0x40 MLOAD DUP1 SWAP2 SUB SWAP1 RETURN JUMPDEST PUSH2 0x115 PUSH2 0x27D JUMP JUMPDEST PUSH1 0x40 MLOAD PUSH2 0x122 SWAP2 SWAP1 PUSH2 0x61D JUMP JUMPDEST PUSH1 0x40 MLOAD DUP1 SWAP2 SUB SWAP1 RETURN JUMPDEST PUSH2 0x133 PUSH2 0x283 JUMP JUMPDEST PUSH1 0x40 MLOAD PUSH2 0x140 SWAP2 SWAP1 PUSH2 0x6D1 JUMP JUMPDEST PUSH1 0x40 MLOAD DUP1 SWAP2 SUB SWAP1 RETURN JUMPDEST PUSH2 0x163 PUSH1 0x4 DUP1 CALLDATASIZE SUB DUP2 ADD SWAP1 PUSH2 0x15E SWAP2 SWAP1 PUSH2 0x83C JUMP JUMPDEST PUSH2 0x311 JUMP JUMPDEST PUSH1 0x40 MLOAD PUSH2 0x170 SWAP2 SWAP1 PUSH2 0x8A0 JUMP JUMPDEST PUSH1 0x40 MLOAD DUP1 SWAP2 SUB SWAP1 RETURN JUMPDEST PUSH2 0x181 PUSH2 0x36A JUMP JUMPDEST PUSH1 0x40 MLOAD PUSH2 0x18E SWAP2 SWAP1 PUSH2 0x5E9 JUMP JUMPDEST PUSH1 0x40 MLOAD DUP1 SWAP2 SUB SWAP1 RETURN JUMPDEST PUSH2 0x19F PUSH2 0x3BE JUMP JUMPDEST PUSH1 0x40 MLOAD PUSH2 0x1AC SWAP2 SWAP1 PUSH2 0x8A0 JUMP JUMPDEST PUSH1 0x40 MLOAD DUP1 SWAP2 SUB SWAP1 RETURN JUMPDEST PUSH2 0x1CF PUSH1 0x4 DUP1 CALLDATASIZE SUB DUP2 ADD SWAP1 PUSH2 0x1CA SWAP2 SWAP1 PUSH2 0x83C JUMP JUMPDEST PUSH2 0x3CF JUMP JUMPDEST STOP JUMPDEST PUSH2 0x1D9 PUSH2 0x3E9 JUMP JUMPDEST PUSH1 0x40 MLOAD PUSH2 0x1E6 SWAP2 SWAP1 PUSH2 0x8FC JUMP JUMPDEST PUSH1 0x40 MLOAD DUP1 SWAP2 SUB SWAP1 RETURN JUMPDEST PUSH2 0x1F7 PUSH2 0x40F JUMP JUMPDEST PUSH1 0x40 MLOAD PUSH2 0x204 SWAP2 SWAP1 PUSH2 0x933 JUMP JUMPDEST PUSH1 0x40 MLOAD DUP1 SWAP2 SUB SWAP1 RETURN JUMPDEST PUSH2 0x227 PUSH1 0x4 DUP1 CALLDATASIZE SUB DUP2 ADD SWAP1 PUSH2 0x222 SWAP2 SWAP1 PUSH2 0x97A JUMP JUMPDEST PUSH2 0x422 JUMP JUMPDEST STOP JUMPDEST PUSH2 0x243 PUSH1 0x4 DUP1 CALLDATASIZE SUB DUP2 ADD SWAP1 PUSH2 0x23E SWAP2 SWAP1 PUSH2 0x9D3 JUMP JUMPDEST PUSH2 0x466 JUMP JUMPDEST STOP JUMPDEST PUSH2 0x24D PUSH2 0x470 JUMP JUMPDEST PUSH1 0x40 MLOAD PUSH2 0x25A SWAP2 SWAP1 PUSH2 0xA55 JUMP JUMPDEST PUSH1 0x40 MLOAD DUP1 SWAP2 SUB SWAP1 RETURN JUMPDEST PUSH2 0x26B PUSH2 0x4FE JUMP JUMPDEST STOP JUMPDEST PUSH2 0x275 PUSH2 0x518 JUMP JUMPDEST STOP JUMPDEST PUSH1 0x1 SLOAD DUP2 JUMP JUMPDEST PUSH1 0x3 SLOAD DUP2 JUMP JUMPDEST PUSH1 0x5 DUP1 SLOAD PUSH2 0x290 SWAP1 PUSH2 0xAA6 JUMP JUMPDEST DUP1 PUSH1 0x1F ADD PUSH1 0x20 DUP1 SWAP2 DIV MUL PUSH1 0x20 ADD PUSH1 0x40 MLOAD SWAP1 DUP2 ADD PUSH1 0x40 MSTORE DUP1 SWAP3 SWAP2 SWAP1 DUP2 DUP2 MSTORE PUSH1 0x20 ADD DUP3 DUP1 SLOAD PUSH2 0x2BC SWAP1 PUSH2 0xAA6 JUMP JUMPDEST DUP1 ISZERO PUSH2 0x309 JUMPI DUP1 PUSH1 0x1F LT PUSH2 0x2DE JUMPI PUSH2 0x100 DUP1 DUP4 SLOAD DIV MUL DUP4 MSTORE SWAP2 PUSH1 0x20 ADD SWAP2 PUSH2 0x309 JUMP JUMPDEST DUP3 ADD SWAP2 SWAP1 PUSH1 0x0 MSTORE PUSH1 0x20 PUSH1 0x0 KECCAK256 SWAP1 JUMPDEST DUP2 SLOAD DUP2 MSTORE SWAP1 PUSH1 0x1 ADD SWAP1 PUSH1 0x20 ADD DUP1 DUP4 GT PUSH2 0x2EC JUMPI DUP3 SWAP1 SUB PUSH1 0x1F AND DUP3 ADD SWAP2 JUMPDEST POP POP POP POP POP DUP2 JUMP JUMPDEST PUSH1 0x0 DUP2 PUSH1 0x40 MLOAD PUSH1 0x20 ADD PUSH2 0x324 SWAP2 SWAP1 PUSH2 0xB13 JUMP JUMPDEST PUSH1 0x40 MLOAD PUSH1 0x20 DUP2 DUP4 SUB SUB DUP2 MSTORE SWAP1 PUSH1 0x40 MSTORE DUP1 MLOAD SWAP1 PUSH1 0x20 ADD KECCAK256 PUSH1 0x4 PUSH1 0x40 MLOAD PUSH1 0x20 ADD PUSH2 0x34C SWAP2 SWAP1 PUSH2 0xBBE JUMP JUMPDEST PUSH1 0x40 MLOAD PUSH1 0x20 DUP2 DUP4 SUB SUB DUP2 MSTORE SWAP1 PUSH1 0x40 MSTORE DUP1 MLOAD SWAP1 PUSH1 0x20 ADD KECCAK256 EQ SWAP1 POP SWAP2 SWAP1 POP JUMP JUMPDEST PUSH1 0x0 PUSH8 0xDE0B6B3A7640000 PUSH1 0x6 PUSH1 0x0 SWAP1 SLOAD SWAP1 PUSH2 0x100 EXP SWAP1 DIV PUSH20 0xFFFFFFFFFFFFFFFFFFFFFFFFFFFFFFFFFFFFFFFF AND PUSH20 0xFFFFFFFFFFFFFFFFFFFFFFFFFFFFFFFFFFFFFFFF AND BALANCE PUSH2 0x3B9 SWAP2 SWAP1 PUSH2 0xC33 JUMP JUMPDEST SWAP1 POP SWAP1 JUMP JUMPDEST PUSH1 0x0 DUP1 SLOAD SWAP1 PUSH2 0x100 EXP SWAP1 DIV PUSH1 0xFF AND DUP2 JUMP JUMPDEST DUP1 PUSH1 0x4 SWAP1 DUP1 MLOAD SWAP1 PUSH1 0x20 ADD SWAP1 PUSH2 0x3E5 SWAP3 SWAP2 SWAP1 PUSH2 0x52D JUMP JUMPDEST POP POP JUMP JUMPDEST PUSH1 0x6 PUSH1 0x0 SWAP1 SLOAD SWAP1 PUSH2 0x100 EXP SWAP1 DIV PUSH20 0xFFFFFFFFFFFFFFFFFFFFFFFFFFFFFFFFFFFFFFFF AND DUP2 JUMP JUMPDEST PUSH1 0x2 PUSH1 0x0 SWAP1 SLOAD SWAP1 PUSH2 0x100 EXP SWAP1 DIV PUSH1 0xFF AND DUP2 JUMP JUMPDEST DUP1 PUSH1 0x6 PUSH1 0x0 PUSH2 0x100 EXP DUP2 SLOAD DUP2 PUSH20 0xFFFFFFFFFFFFFFFFFFFFFFFFFFFFFFFFFFFFFFFF MUL NOT AND SWAP1 DUP4 PUSH20 0xFFFFFFFFFFFFFFFFFFFFFFFFFFFFFFFFFFFFFFFF AND MUL OR SWAP1 SSTORE POP POP JUMP JUMPDEST DUP1 PUSH1 0x1 DUP2 SWAP1 SSTORE POP POP JUMP JUMPDEST PUSH1 0x4 DUP1 SLOAD PUSH2 0x47D SWAP1 PUSH2 0xAA6 JUMP JUMPDEST DUP1 PUSH1 0x1F ADD PUSH1 0x20 DUP1 SWAP2 DIV MUL PUSH1 0x20 ADD PUSH1 0x40 MLOAD SWAP1 DUP2 ADD PUSH1 0x40 MSTORE DUP1 SWAP3 SWAP2 SWAP1 DUP2 DUP2 MSTORE PUSH1 0x20 ADD DUP3 DUP1 SLOAD PUSH2 0x4A9 SWAP1 PUSH2 0xAA6 JUMP JUMPDEST DUP1 ISZERO PUSH2 0x4F6 JUMPI DUP1 PUSH1 0x1F LT PUSH2 0x4CB JUMPI PUSH2 0x100 DUP1 DUP4 SLOAD DIV MUL DUP4 MSTORE SWAP2 PUSH1 0x20 ADD SWAP2 PUSH2 0x4F6 JUMP JUMPDEST DUP3 ADD SWAP2 SWAP1 PUSH1 0x0 MSTORE PUSH1 0x20 PUSH1 0x0 KECCAK256 SWAP1 JUMPDEST DUP2 SLOAD DUP2 MSTORE SWAP1 PUSH1 0x1 ADD SWAP1 PUSH1 0x20 ADD DUP1 DUP4 GT PUSH2 0x4D9 JUMPI DUP3 SWAP1 SUB PUSH1 0x1F AND DUP3 ADD SWAP2 JUMPDEST POP POP POP POP POP DUP2 JUMP JUMPDEST PUSH1 0x3 PUSH1 0x0 DUP2 SLOAD DUP1 SWAP3 SWAP2 SWAP1 PUSH2 0x511 SWAP1 PUSH2 0xC64 JUMP JUMPDEST SWAP2 SWAP1 POP SSTORE POP JUMP JUMPDEST PUSH1 0x1 PUSH1 0x0 DUP2 SLOAD DUP1 SWAP3 SWAP2 SWAP1 PUSH1 0x1 SWAP1 SUB SWAP2 SWAP1 POP SSTORE POP JUMP JUMPDEST DUP3 DUP1 SLOAD PUSH2 0x539 SWAP1 PUSH2 0xAA6 JUMP JUMPDEST SWAP1 PUSH1 0x0 MSTORE PUSH1 0x20 PUSH1 0x0 KECCAK256 SWAP1 PUSH1 0x1F ADD PUSH1 0x20 SWAP1 DIV DUP2 ADD SWAP3 DUP3 PUSH2 0x55B JUMPI PUSH1 0x0 DUP6 SSTORE PUSH2 0x5A2 JUMP JUMPDEST DUP3 PUSH1 0x1F LT PUSH2 0x574 JUMPI DUP1 MLOAD PUSH1 0xFF NOT AND DUP4 DUP1 ADD OR DUP6 SSTORE PUSH2 0x5A2 JUMP JUMPDEST DUP3 DUP1 ADD PUSH1 0x1 ADD DUP6 SSTORE DUP3 ISZERO PUSH2 0x5A2 JUMPI SWAP2 DUP3 ADD JUMPDEST DUP3 DUP2 GT ISZERO PUSH2 0x5A1 JUMPI DUP3 MLOAD DUP3 SSTORE SWAP2 PUSH1 0x20 ADD SWAP2 SWAP1 PUSH1 0x1 ADD SWAP1 PUSH2 0x586 JUMP JUMPDEST JUMPDEST POP SWAP1 POP PUSH2 0x5AF SWAP2 SWAP1 PUSH2 0x5B3 JUMP JUMPDEST POP SWAP1 JUMP JUMPDEST JUMPDEST DUP1 DUP3 GT ISZERO PUSH2 0x5CC JUMPI PUSH1 0x0 DUP2 PUSH1 0x0 SWAP1 SSTORE POP PUSH1 0x1 ADD PUSH2 0x5B4 JUMP JUMPDEST POP SWAP1 JUMP JUMPDEST PUSH1 0x0 DUP2 SWAP1 POP SWAP2 SWAP1 POP JUMP JUMPDEST PUSH2 0x5E3 DUP2 PUSH2 0x5D0 JUMP JUMPDEST DUP3 MSTORE POP POP JUMP JUMPDEST PUSH1 0x0 PUSH1 0x20 DUP3 ADD SWAP1 POP PUSH2 0x5FE PUSH1 0x0 DUP4 ADD DUP5 PUSH2 0x5DA JUMP JUMPDEST SWAP3 SWAP2 POP POP JUMP JUMPDEST PUSH1 0x0 DUP2 SWAP1 POP SWAP2 SWAP1 POP JUMP JUMPDEST PUSH2 0x617 DUP2 PUSH2 0x604 JUMP JUMPDEST DUP3 MSTORE POP POP JUMP JUMPDEST PUSH1 0x0 PUSH1 0x20 DUP3 ADD SWAP1 POP PUSH2 0x632 PUSH1 0x0 DUP4 ADD DUP5 PUSH2 0x60E JUMP JUMPDEST SWAP3 SWAP2 POP POP JUMP JUMPDEST PUSH1 0x0 DUP2 MLOAD SWAP1 POP SWAP2 SWAP1 POP JUMP JUMPDEST PUSH1 0x0 DUP3 DUP3 MSTORE PUSH1 0x20 DUP3 ADD SWAP1 POP SWAP3 SWAP2 POP POP JUMP JUMPDEST PUSH1 0x0 JUMPDEST DUP4 DUP2 LT ISZERO PUSH2 0x672 JUMPI DUP1 DUP3 ADD MLOAD DUP2 DUP5 ADD MSTORE PUSH1 0x20 DUP2 ADD SWAP1 POP PUSH2 0x657 JUMP JUMPDEST DUP4 DUP2 GT ISZERO PUSH2 0x681 JUMPI PUSH1 0x0 DUP5 DUP5 ADD MSTORE JUMPDEST POP POP POP POP JUMP JUMPDEST PUSH1 0x0 PUSH1 0x1F NOT PUSH1 0x1F DUP4 ADD AND SWAP1 POP SWAP2 SWAP1 POP JUMP JUMPDEST PUSH1 0x0 PUSH2 0x6A3 DUP3 PUSH2 0x638 JUMP JUMPDEST PUSH2 0x6AD DUP2 DUP6 PUSH2 0x643 JUMP JUMPDEST SWAP4 POP PUSH2 0x6BD DUP2 DUP6 PUSH1 0x20 DUP7 ADD PUSH2 0x654 JUMP JUMPDEST PUSH2 0x6C6 DUP2 PUSH2 0x687 JUMP JUMPDEST DUP5 ADD SWAP2 POP POP SWAP3 SWAP2 POP POP JUMP JUMPDEST PUSH1 0x0 PUSH1 0x20 DUP3 ADD SWAP1 POP DUP2 DUP2 SUB PUSH1 0x0 DUP4 ADD MSTORE PUSH2 0x6EB DUP2 DUP5 PUSH2 0x698 JUMP JUMPDEST SWAP1 POP SWAP3 SWAP2 POP POP JUMP JUMPDEST PUSH1 0x0 PUSH1 0x40 MLOAD SWAP1 POP SWAP1 JUMP JUMPDEST PUSH1 0x0 DUP1 REVERT JUMPDEST PUSH1 0x0 DUP1 REVERT JUMPDEST PUSH1 0x0 DUP1 REVERT JUMPDEST PUSH1 0x0 DUP1 REVERT JUMPDEST PUSH32 0x4E487B7100000000000000000000000000000000000000000000000000000000 PUSH1 0x0 MSTORE PUSH1 0x41 PUSH1 0x4 MSTORE PUSH1 0x24 PUSH1 0x0 REVERT JUMPDEST PUSH2 0x749 DUP3 PUSH2 0x687 JUMP JUMPDEST DUP2 ADD DUP2 DUP2 LT PUSH8 0xFFFFFFFFFFFFFFFF DUP3 GT OR ISZERO PUSH2 0x768 JUMPI PUSH2 0x767 PUSH2 0x711 JUMP JUMPDEST JUMPDEST DUP1 PUSH1 0x40 MSTORE POP POP POP JUMP JUMPDEST PUSH1 0x0 PUSH2 0x77B PUSH2 0x6F3 JUMP JUMPDEST SWAP1 POP PUSH2 0x787 DUP3 DUP3 PUSH2 0x740 JUMP JUMPDEST SWAP2 SWAP1 POP JUMP JUMPDEST PUSH1 0x0 PUSH8 0xFFFFFFFFFFFFFFFF DUP3 GT ISZERO PUSH2 0x7A7 JUMPI PUSH2 0x7A6 PUSH2 0x711 JUMP JUMPDEST JUMPDEST PUSH2 0x7B0 DUP3 PUSH2 0x687 JUMP JUMPDEST SWAP1 POP PUSH1 0x20 DUP2 ADD SWAP1 POP SWAP2 SWAP1 POP JUMP JUMPDEST DUP3 DUP2 DUP4 CALLDATACOPY PUSH1 0x0 DUP4 DUP4 ADD MSTORE POP POP POP JUMP JUMPDEST PUSH1 0x0 PUSH2 0x7DF PUSH2 0x7DA DUP5 PUSH2 0x78C JUMP JUMPDEST PUSH2 0x771 JUMP JUMPDEST SWAP1 POP DUP3 DUP2 MSTORE PUSH1 0x20 DUP2 ADD DUP5 DUP5 DUP5 ADD GT ISZERO PUSH2 0x7FB JUMPI PUSH2 0x7FA PUSH2 0x70C JUMP JUMPDEST JUMPDEST PUSH2 0x806 DUP5 DUP3 DUP6 PUSH2 0x7BD JUMP JUMPDEST POP SWAP4 SWAP3 POP POP POP JUMP JUMPDEST PUSH1 0x0 DUP3 PUSH1 0x1F DUP4 ADD SLT PUSH2 0x823 JUMPI PUSH2 0x822 PUSH2 0x707 JUMP JUMPDEST JUMPDEST DUP2 CALLDATALOAD PUSH2 0x833 DUP5 DUP3 PUSH1 0x20 DUP7 ADD PUSH2 0x7CC JUMP JUMPDEST SWAP2 POP POP SWAP3 SWAP2 POP POP JUMP JUMPDEST PUSH1 0x0 PUSH1 0x20 DUP3 DUP5 SUB SLT ISZERO PUSH2 0x852 JUMPI PUSH2 0x851 PUSH2 0x6FD JUMP JUMPDEST JUMPDEST PUSH1 0x0 DUP3 ADD CALLDATALOAD PUSH8 0xFFFFFFFFFFFFFFFF DUP2 GT ISZERO PUSH2 0x870 JUMPI PUSH2 0x86F PUSH2 0x702 JUMP JUMPDEST JUMPDEST PUSH2 0x87C DUP5 DUP3 DUP6 ADD PUSH2 0x80E JUMP JUMPDEST SWAP2 POP POP SWAP3 SWAP2 POP POP JUMP JUMPDEST PUSH1 0x0 DUP2 ISZERO ISZERO SWAP1 POP SWAP2 SWAP1 POP JUMP JUMPDEST PUSH2 0x89A DUP2 PUSH2 0x885 JUMP JUMPDEST DUP3 MSTORE POP POP JUMP JUMPDEST PUSH1 0x0 PUSH1 0x20 DUP3 ADD SWAP1 POP PUSH2 0x8B5 PUSH1 0x0 DUP4 ADD DUP5 PUSH2 0x891 JUMP JUMPDEST SWAP3 SWAP2 POP POP JUMP JUMPDEST PUSH1 0x0 PUSH20 0xFFFFFFFFFFFFFFFFFFFFFFFFFFFFFFFFFFFFFFFF DUP3 AND SWAP1 POP SWAP2 SWAP1 POP JUMP JUMPDEST PUSH1 0x0 PUSH2 0x8E6 DUP3 PUSH2 0x8BB JUMP JUMPDEST SWAP1 POP SWAP2 SWAP1 POP JUMP JUMPDEST PUSH2 0x8F6 DUP2 PUSH2 0x8DB JUMP JUMPDEST DUP3 MSTORE POP POP JUMP JUMPDEST PUSH1 0x0 PUSH1 0x20 DUP3 ADD SWAP1 POP PUSH2 0x911 PUSH1 0x0 DUP4 ADD DUP5 PUSH2 0x8ED JUMP JUMPDEST SWAP3 SWAP2 POP POP JUMP JUMPDEST PUSH1 0x0 PUSH1 0xFF DUP3 AND SWAP1 POP SWAP2 SWAP1 POP JUMP JUMPDEST PUSH2 0x92D DUP2 PUSH2 0x917 JUMP JUMPDEST DUP3 MSTORE POP POP JUMP JUMPDEST PUSH1 0x0 PUSH1 0x20 DUP3 ADD SWAP1 POP PUSH2 0x948 PUSH1 0x0 DUP4 ADD DUP5 PUSH2 0x924 JUMP JUMPDEST SWAP3 SWAP2 POP POP JUMP JUMPDEST PUSH2 0x957 DUP2 PUSH2 0x8DB JUMP JUMPDEST DUP2 EQ PUSH2 0x962 JUMPI PUSH1 0x0 DUP1 REVERT JUMPDEST POP JUMP JUMPDEST PUSH1 0x0 DUP2 CALLDATALOAD SWAP1 POP PUSH2 0x974 DUP2 PUSH2 0x94E JUMP JUMPDEST SWAP3 SWAP2 POP POP JUMP JUMPDEST PUSH1 0x0 PUSH1 0x20 DUP3 DUP5 SUB SLT ISZERO PUSH2 0x990 JUMPI PUSH2 0x98F PUSH2 0x6FD JUMP JUMPDEST JUMPDEST PUSH1 0x0 PUSH2 0x99E DUP5 DUP3 DUP6 ADD PUSH2 0x965 JUMP JUMPDEST SWAP2 POP POP SWAP3 SWAP2 POP POP JUMP JUMPDEST PUSH2 0x9B0 DUP2 PUSH2 0x5D0 JUMP JUMPDEST DUP2 EQ PUSH2 0x9BB JUMPI PUSH1 0x0 DUP1 REVERT JUMPDEST POP JUMP JUMPDEST PUSH1 0x0 DUP2 CALLDATALOAD SWAP1 POP PUSH2 0x9CD DUP2 PUSH2 0x9A7 JUMP JUMPDEST SWAP3 SWAP2 POP POP JUMP JUMPDEST PUSH1 0x0 PUSH1 0x20 DUP3 DUP5 SUB SLT ISZERO PUSH2 0x9E9 JUMPI PUSH2 0x9E8 PUSH2 0x6FD JUMP JUMPDEST JUMPDEST PUSH1 0x0 PUSH2 0x9F7 DUP5 DUP3 DUP6 ADD PUSH2 0x9BE JUMP JUMPDEST SWAP2 POP POP SWAP3 SWAP2 POP POP JUMP JUMPDEST PUSH1 0x0 DUP2 MLOAD SWAP1 POP SWAP2 SWAP1 POP JUMP JUMPDEST PUSH1 0x0 DUP3 DUP3 MSTORE PUSH1 0x20 DUP3 ADD SWAP1 POP SWAP3 SWAP2 POP POP JUMP JUMPDEST PUSH1 0x0 PUSH2 0xA27 DUP3 PUSH2 0xA00 JUMP JUMPDEST PUSH2 0xA31 DUP2 DUP6 PUSH2 0xA0B JUMP JUMPDEST SWAP4 POP PUSH2 0xA41 DUP2 DUP6 PUSH1 0x20 DUP7 ADD PUSH2 0x654 JUMP JUMPDEST PUSH2 0xA4A DUP2 PUSH2 0x687 JUMP JUMPDEST DUP5 ADD SWAP2 POP POP SWAP3 SWAP2 POP POP JUMP JUMPDEST PUSH1 0x0 PUSH1 0x20 DUP3 ADD SWAP1 POP DUP2 DUP2 SUB PUSH1 0x0 DUP4 ADD MSTORE PUSH2 0xA6F DUP2 DUP5 PUSH2 0xA1C JUMP JUMPDEST SWAP1 POP SWAP3 SWAP2 POP POP JUMP JUMPDEST PUSH32 0x4E487B7100000000000000000000000000000000000000000000000000000000 PUSH1 0x0 MSTORE PUSH1 0x22 PUSH1 0x4 MSTORE PUSH1 0x24 PUSH1 0x0 REVERT JUMPDEST PUSH1 0x0 PUSH1 0x2 DUP3 DIV SWAP1 POP PUSH1 0x1 DUP3 AND DUP1 PUSH2 0xABE JUMPI PUSH1 0x7F DUP3 AND SWAP2 POP JUMPDEST PUSH1 0x20 DUP3 LT DUP2 SUB PUSH2 0xAD1 JUMPI PUSH2 0xAD0 PUSH2 0xA77 JUMP JUMPDEST JUMPDEST POP SWAP2 SWAP1 POP JUMP JUMPDEST PUSH1 0x0 DUP2 SWAP1 POP SWAP3 SWAP2 POP POP JUMP JUMPDEST PUSH1 0x0 PUSH2 0xAED DUP3 PUSH2 0xA00 JUMP JUMPDEST PUSH2 0xAF7 DUP2 DUP6 PUSH2 0xAD7 JUMP JUMPDEST SWAP4 POP PUSH2 0xB07 DUP2 DUP6 PUSH1 0x20 DUP7 ADD PUSH2 0x654 JUMP JUMPDEST DUP1 DUP5 ADD SWAP2 POP POP SWAP3 SWAP2 POP POP JUMP JUMPDEST PUSH1 0x0 PUSH2 0xB1F DUP3 DUP5 PUSH2 0xAE2 JUMP JUMPDEST SWAP2 POP DUP2 SWAP1 POP SWAP3 SWAP2 POP POP JUMP JUMPDEST PUSH1 0x0 DUP2 SWAP1 POP DUP2 PUSH1 0x0 MSTORE PUSH1 0x20 PUSH1 0x0 KECCAK256 SWAP1 POP SWAP2 SWAP1 POP JUMP JUMPDEST PUSH1 0x0 DUP2 SLOAD PUSH2 0xB4C DUP2 PUSH2 0xAA6 JUMP JUMPDEST PUSH2 0xB56 DUP2 DUP7 PUSH2 0xAD7 JUMP JUMPDEST SWAP5 POP PUSH1 0x1 DUP3 AND PUSH1 0x0 DUP2 EQ PUSH2 0xB71 JUMPI PUSH1 0x1 DUP2 EQ PUSH2 0xB82 JUMPI PUSH2 0xBB5 JUMP JUMPDEST PUSH1 0xFF NOT DUP4 AND DUP7 MSTORE DUP2 DUP7 ADD SWAP4 POP PUSH2 0xBB5 JUMP JUMPDEST PUSH2 0xB8B DUP6 PUSH2 0xB2A JUMP JUMPDEST PUSH1 0x0 JUMPDEST DUP4 DUP2 LT ISZERO PUSH2 0xBAD JUMPI DUP2 SLOAD DUP2 DUP10 ADD MSTORE PUSH1 0x1 DUP3 ADD SWAP2 POP PUSH1 0x20 DUP2 ADD SWAP1 POP PUSH2 0xB8E JUMP JUMPDEST DUP4 DUP9 ADD SWAP6 POP POP POP JUMPDEST POP POP POP SWAP3 SWAP2 POP POP JUMP JUMPDEST PUSH1 0x0 PUSH2 0xBCA DUP3 DUP5 PUSH2 0xB3F JUMP JUMPDEST SWAP2 POP DUP2 SWAP1 POP SWAP3 SWAP2 POP POP JUMP JUMPDEST PUSH32 0x4E487B7100000000000000000000000000000000000000000000000000000000 PUSH1 0x0 MSTORE PUSH1 0x12 PUSH1 0x4 MSTORE PUSH1 0x24 PUSH1 0x0 REVERT JUMPDEST PUSH32 0x4E487B7100000000000000000000000000000000000000000000000000000000 PUSH1 0x0 MSTORE PUSH1 0x11 PUSH1 0x4 MSTORE PUSH1 0x24 PUSH1 0x0 REVERT JUMPDEST PUSH1 0x0 PUSH2 0xC3E DUP3 PUSH2 0x5D0 JUMP JUMPDEST SWAP2 POP PUSH2 0xC49 DUP4 PUSH2 0x5D0 JUMP JUMPDEST SWAP3 POP DUP3 PUSH2 0xC59 JUMPI PUSH2 0xC58 PUSH2 0xBD5 JUMP JUMPDEST JUMPDEST DUP3 DUP3 DIV SWAP1 POP SWAP3 SWAP2 POP POP JUMP JUMPDEST PUSH1 0x0 PUSH2 0xC6F DUP3 PUSH2 0x604 JUMP JUMPDEST SWAP2 POP PUSH32 0x7FFFFFFFFFFFFFFFFFFFFFFFFFFFFFFFFFFFFFFFFFFFFFFFFFFFFFFFFFFFFFFF DUP3 SUB PUSH2 0xCA1 JUMPI PUSH2 0xCA0 PUSH2 0xC04 JUMP JUMPDEST JUMPDEST PUSH1 0x1 DUP3 ADD SWAP1 POP SWAP2 SWAP1 POP JUMP INVALID LOG2 PUSH5 0x6970667358 0x22 SLT KECCAK256 CALLDATACOPY 0x1E SWAP13 0xEF DIV LOG1 0xCA 0xD PUSH7 0x5EAB649B466611 0x4C SWAP15 0xCE OR SIGNEXTEND DUP8 0xCF 0xB9 0xC1 SWAP10 0xAE NUMBER PUSH23 0xF919F364736F6C634300080E0033000000000000000000 "
				},
				"gasEstimates": {
					"creation": {
						"codeDepositCost": "659600",
						"executionCost": "infinite",
						"totalCost": "infinite"
					},
					"external": {
						"anAddress()": "2537",
						"compareStrings(string)": "infinite",
						"decreementUint()": "24472",
						"getAddressBalance()": "infinite",
						"greeting()": "infinite",
						"incrementInt()": "24567",
						"myBytesGreeting()": "infinite",
						"myInt()": "2475",
						"myUint()": "2453",
						"myUint8()": "2516",
						"myboll()": "2535",
						"setAddress(address)": "24789",
						"setMyString(string)": "infinite",
						"setMyUint(uint256)": "22542"
					}
				},
				"methodIdentifiers": {
					"anAddress()": "935760e7",
					"compareStrings(string)": "4f86f506",
					"decreementUint()": "fc979f7b",
					"getAddressBalance()": "75eb2ad1",
					"greeting()": "ef690cc0",
					"incrementInt()": "f102a71d",
					"myBytesGreeting()": "336ab504",
					"myInt()": "2cb777a6",
					"myUint()": "06540f7e",
					"myUint8()": "e2a4b2af",
					"myboll()": "7c43b66e",
					"setAddress(address)": "e30081a0",
					"setMyString(string)": "82180568",
					"setMyUint(uint256)": "e492fd84"
				}
			},
			"storageLayout": {
				"storage": [
					{
						"astId": 3,
						"contract": "contracts/Workaround_BasicTypes.sol:BasicTypes",
						"label": "myboll",
						"offset": 0,
						"slot": "0",
						"type": "t_bool"
					},
					{
						"astId": 5,
						"contract": "contracts/Workaround_BasicTypes.sol:BasicTypes",
						"label": "myUint",
						"offset": 0,
						"slot": "1",
						"type": "t_uint256"
					},
					{
						"astId": 10,
						"contract": "contracts/Workaround_BasicTypes.sol:BasicTypes",
						"label": "myUint8",
						"offset": 0,
						"slot": "2",
						"type": "t_uint8"
					},
					{
						"astId": 14,
						"contract": "contracts/Workaround_BasicTypes.sol:BasicTypes",
						"label": "myInt",
						"offset": 0,
						"slot": "3",
						"type": "t_int256"
					},
					{
						"astId": 17,
						"contract": "contracts/Workaround_BasicTypes.sol:BasicTypes",
						"label": "greeting",
						"offset": 0,
						"slot": "4",
						"type": "t_string_storage"
					},
					{
						"astId": 20,
						"contract": "contracts/Workaround_BasicTypes.sol:BasicTypes",
						"label": "myBytesGreeting",
						"offset": 0,
						"slot": "5",
						"type": "t_bytes_storage"
					},
					{
						"astId": 32,
						"contract": "contracts/Workaround_BasicTypes.sol:BasicTypes",
						"label": "anAddress",
						"offset": 0,
						"slot": "6",
						"type": "t_address"
					}
				],
				"types": {
					"t_address": {
						"encoding": "inplace",
						"label": "address",
						"numberOfBytes": "20"
					},
					"t_bool": {
						"encoding": "inplace",
						"label": "bool",
						"numberOfBytes": "1"
					},
					"t_bytes_storage": {
						"encoding": "bytes",
						"label": "bytes",
						"numberOfBytes": "32"
					},
					"t_int256": {
						"encoding": "inplace",
						"label": "int256",
						"numberOfBytes": "32"
					},
					"t_string_storage": {
						"encoding": "bytes",
						"label": "string",
						"numberOfBytes": "32"
					},
					"t_uint256": {
						"encoding": "inplace",
						"label": "uint256",
						"numberOfBytes": "32"
					},
					"t_uint8": {
						"encoding": "inplace",
						"label": "uint8",
						"numberOfBytes": "1"
					}
				}
			},
			"userdoc": {
				"kind": "user",
				"methods": {},
				"version": 1
			}
		}
	}
}